:020000040000FA
:060000000A128A110C280F
:10000800FE00030EF1000A08F2000A128A111628EF
:100018000A128A110F28F801F901FA0183010A125C
:100028008A116728831203138C1D60281412141B6D
:100038001F28941F26281308F0007008FA001413CC
:100048009413141683160313941E14194328831249
:1000580003131308F0007008FA008C1114168316A5
:100068000313141C3328831203131308F0007008B9
:10007800F800A630F000F00B3F2800005D28941E21
:10008800141D5D28831203131308F0007008FA008A
:10009800831603131410790883120313930014169C
:1000A800A630F000F00B562800008316031314182E
:1000B8005928831203138C1172088A00710E830069
:1000C800FE0E7E0E0900831603130F168F160F17E8
:1000D8000F14831203138501860183160313850108
:1000E8000230860083160317880189018B17403078
:1000F800F3000030F4000A128A119A200A128A11B9
:100108009428F901F90A0330F7008A30F6005530CF
:10011800F500F50B8D28F60B8D28F70B8D28942804
:100128008312031386188528F90194287308831607
:100138000313930036308312031394008030831620
:100148000313940001309100871507168B170B17BE
:0E015800831203138C11831603138C150800F9
:04400E00F4E0FFFFDC
:00000001FF
