:020000040000FA
:060000000A128A110E280D
:10000800FE00030EF1000408F2000A08F3000A12C9
:100018008A1127290A128A111128F601F701F80115
:10002800F90183120313A601A701A801A9018301FD
:100038000A128A11A72883120313A4002403031D9C
:100048006428033086000130F4000030F5000A12FD
:100058008A1187210A128A11063083120313860037
:100068000130F4000030F5000A128A1187210A12C3
:100078008A110C308312031386000130F40000301B
:10008800F5000A128A1187210A128A11093083128F
:10009800031386000130F4000030F5000A128A11BB
:1000A80087210A128A110330831203138600013054
:1000B800F4000030F5000A128A1187210A128A1109
:1000C800831203132408031D080009308600013039
:1000D800F4000030F5000A128A1187210A128A11E9
:1000E8000C308312031386000130F4000030F50051
:1000F8000A128A1187210A128A1106308312031301
:1001080086000130F4000030F5000A128A118721B8
:100118000A128A1103308312031386000130F40097
:100128000030F5000A128A1187210A128A11093053
:100138008312031386000130F4000030F5000A1220
:100148008A1187210800831603130F168F160F17BD
:100158000F14F601E83083120313AA000330AB0032
:10016800A6010330A5002508A7008501860183168E
:10017800031385010230880083160317880189015B
:100188008B170A128A11C2210A128A11F70120302C
:10019800F4000030F5000A128A11A9210A128A1106
:1001A80083120313881CDC280514A601A60ADD287F
:1001B800A601770A031D01292B08803AFF00833026
:1001C8007F02031DE928E8302A020318FA280030C4
:1001D8000A128A111F200A128A110130831203138E
:1001E800AA070318AB0A0030AB07012903308312B2
:1001F8000313A5002508A700F701F0307706031DB3
:10020800D4282B08803AFF0080307F02031D0E2976
:1002180001302A02031C1F2901300A128A111F20EB
:100228000A128A11FF3083120313AA070318AB0AB4
:10023800FF30AB07D428023083120313A50025082A
:10024800A700F701D428831203138C1D7E291412EA
:10025800141B3029941F37291308F0007008F9007F
:1002680014139413141683160313941E1419542983
:10027800831203131308F0007008F9008C11141688
:1002880083160313141C4429831203131308F00064
:100298007008F700A630F000F00B502900007B2909
:1002A800941E141D7B29831203131308F000700891
:1002B800F9008316031314107608263E840083136E
:1002C80000088312031393000130F0007008F6074A
:1002D800023076020318F60105171416A630F0004E
:1002E800F00B74290000831603131418772983125E
:1002F80003138C1173088A0072088400710E83003E
:10030800FE0E7E0E090083120313A001A1017508D9
:100318002102031D91297408200203180800A20174
:10032800A3010130A2070318A30A0030A307003075
:100338002302FA3003192202031C95290130A00771
:100348000318A10A0030A1078B2974088316031328
:1003580093003630831203139400803083160313FE
:10036800940001309100871507168B170B1783121D
:1003780003138C11831603138C15080083160317B7
:1003880089018316031386010F3083120313860035
:0203980008005B
:04400E00F4E0FFFFDC
:00000001FF
