:020000040000FA
:060000000A128A110E280D
:10000800FE00030EF1000408F2000A08F3000A12C9
:100018008A1123290A128A111128F701F801F90116
:1000280083120313A701A80183010A128A11A428C5
:10003800F6007603031D612803308312031386003C
:100048000130F4000030F5000A128A1183210A12E7
:100058008A1106308312031386000130F400003041
:10006800F5000A128A1183210A128A110C308312B0
:10007800031386000130F4000030F5000A128A11DB
:1000880083210A128A110930831203138600013072
:10009800F4000030F5000A128A1183210A128A112D
:1000A80003308312031386000130F4000030F5009A
:1000B8000A128A1183210A128A117608031D080080
:1000C80009308312031386000130F4000030F50074
:1000D8000A128A1183210A128A110C30831203131F
:1000E80086000130F4000030F5000A128A118321DD
:1000F8000A128A1106308312031386000130F400B5
:100108000030F5000A128A1183210A128A1103307D
:100118008312031386000130F4000030F5000A1240
:100128008A1183210A128A11093083120313860067
:100138000130F4000030F5000A128A11832108000A
:10014800831603130F168F160F170F14F701E830D5
:1001580083120313A5000330A600A7010330A400EF
:100168002408A800F8018501860183160313850178
:100178000230880083160317880189018B170A1239
:100188008A11BE210A128A112030F4000030F500CD
:100198000A128A11A5210A128A1183120313881CD4
:1001A800D828A701A70AD928A701780A031DFD287E
:1001B8002608803AFF0083307F02031DE528E830D7
:1001C80025020318F62800300A128A111C200A1288
:1001D8008A11013083120313A5070318A60A0030F9
:1001E800A607FD28033083120313A4002408A800DF
:1001F800F801F0307806031DD1282608803AFF0060
:1002080080307F02031D0A2901302502031C1B29A7
:1002180001300A128A111C200A128A11FF30831237
:100228000313A5070318A60AFF30A607D128023032
:1002380083120313A4002408A800F801D12883120C
:1002480003138C1D7A291412141B2C29941F33298B
:100258001308F0007008F900141394131416831689
:100268000313941E14195029831203131308F00062
:100278007008F9008C11141683160313141C4029F6
:10028800831203131308F0007008F800A630F0007A
:10029800F00B4C2900007729941E141D772983122E
:1002A80003131308F0007008F900831603131410E1
:1002B8007708273E840083130008831203139300F2
:1002C8000130F0007008F707023077020318F701D1
:1002D80005171416A630F000F00B702900008316DD
:1002E800031314187329831203138C1173088A00DB
:1002F80072088400710E8300FE0E7E0E09008312C0
:100308000313A001A10175082102031D8D2974089A
:10031800200203180800A201A3010130A207031854
:10032800A30A0030A30700302302FA30031922027F
:10033800031C91290130A0070318A10A0030A10766
:100348008729740883160313930036308312031326
:1003580094008030831603139400013091008715B0
:1003680007168B170B17831203138C1183160313AD
:100378008C15080083160317890183160313860159
:0A0388000F308312031386000800F3
:04400E00F4E0FFFFDC
:00000001FF
