:020000040000FA
:060000000A128A110E280D
:10000800FE00030EF1000408F2000A08F3000A12C9
:100018008A1127290A128A111128F601F701F80115
:10002800F90183120313A001A101A201A301A401F4
:10003800A50183010A128A11A92883120313AA00B1
:100048002A03031D6628033086000130F4000030BF
:10005800F5000A128A1187210A128A1106308312C2
:10006800031386000130F4000030F5000A128A11EB
:1000780087210A128A110C3083120313860001307B
:10008800F4000030F5000A128A1187210A128A1139
:1000980009308312031386000130F4000030F500A4
:1000A8000A128A1187210A128A1103308312031354
:1000B80086000130F4000030F5000A128A11872109
:1000C8000A128A11831203132A08031D0800093033
:1000D80086000130F4000030F5000A128A118721E9
:1000E8000A128A110C308312031386000130F400BF
:1000F8000030F5000A128A1187210A128A11063087
:100108008312031386000130F4000030F5000A1250
:100118008A1187210A128A11033083120313860079
:100128000130F4000030F5000A128A1187210A1202
:100138008A1109308312031386000130F40000305D
:10014800F5000A128A1187210800831603130F1677
:100158008F160F170F14F60183120313A201A301C0
:10016800A0010330AB002B08A1008501860183168E
:10017800031385010230880083160317880189015B
:100188008B170A128A11C2210A128A11F70120302C
:10019800F4000030F5000A128A11A9210A128A1106
:1001A80083120313881CDC280514A001A00ADD288B
:1001B800A001770A031D01292308803AFF00833034
:1001C8007F02031DE928E83022020318FA280030CC
:1001D8000A128A1121200A128A110130831203138C
:1001E800A2070318A30A0030A307012903308312CA
:1001F8000313AB002B08A100F701F0307706031DAD
:10020800D4282308803AFF0080307F02031D0E297E
:1002180001302202031C1F2901300A128A112120F1
:100228000A128A11FF3083120313A2070318A30AC4
:10023800FF30A307D428023083120313AB002B0826
:10024800A100F701D428831203138C1D7E291412F0
:10025800141B3029941F37291308F0007008F9007F
:1002680014139413141683160313941E1419542983
:10027800831203131308F0007008F9008C11141688
:1002880083160313141C4429831203131308F00064
:100298007008F700A630F000F00B502900007B2909
:1002A800941E141D7B29831203131308F000700891
:1002B800F9008316031314107608203E8400831374
:1002C80000088312031393000130F0007008F6074A
:1002D800023076020318F60105171416A630F0004E
:1002E800F00B74290000831603131418772983125E
:1002F80003138C1173088A0072088400710E83003E
:10030800FE0E7E0E090083120313A601A7017508CD
:100318002702031D91297408260203180800A80162
:10032800A9010130A8070318A90A0030A90700305D
:100338002902FA3003192802031C95290130A6075F
:100348000318A70A0030A7078B297408831603131C
:1003580093003630831203139400803083160313FE
:10036800940001309100871507168B170B1783121D
:1003780003138C11831603138C15080083160317B7
:1003880089018316031386010F3083120313860035
:0203980008005B
:04400E00F4E0FFFFDC
:00000001FF
