:020000040000FA
:060000000A128A110C280F
:10000800FE00030EF1000A08F2000A128A111429F0
:100018000A128A110F28F601F701F8018312031357
:10002800A801A90183010A128A11A228F500750303
:10003800031D5F2803308312031386000130F30089
:100048000030F4000A128A1166210A128A11063059
:100058008312031386000130F3000030F4000A1203
:100068008A1166210A128A110C3083120313860042
:100078000130F3000030F4000A128A1166210A12D6
:100088008A1109308312031386000130F30000300F
:10009800F4000A128A1166210A128A1103308312A7
:1000A800031386000130F3000030F4000A128A11AD
:1000B80066210A128A117508031D08000930831287
:1000C800031386000130F3000030F4000A128A118D
:1000D80066210A128A110C3083120313860001303C
:1000E800F3000030F4000A128A1166210A128A11FC
:1000F80006308312031386000130F3000030F40049
:100108000A128A1166210A128A1103308312031314
:1001180086000130F3000030F4000A128A116621CB
:100128000A128A1109308312031386000130F30082
:100138000030F4000A128A1166210800831603139E
:100148000F168F160F170F148312031385018601DC
:10015800831603138501023088008316031788016C
:1001680089018B170A128A11A1210A128A11831296
:100178000313A8012030F3000030F4000A128A119A
:1001880088210A128A1183120313881CCF280514A8
:10019800A901A90AD028A901280A031DF128A40148
:1001A800A50100300A128A111A200A128A11013098
:1001B80083120313A4070318A50A0030A50725080E
:1001C800803AFF0083307F02031DEC28E8302402C8
:1001D800031CD52883120313A801F0302806031D39
:1001E800C728A601A70101300A128A111A200A128B
:1001F8008A11013083120313A6070318A70A0030D7
:10020800A7072708803AFF0083307F02031D0E29C5
:10021800E8302602031CF72883120313A801C72815
:10022800831203138C1D5F291412141B1D29941F9C
:1002380024291308F0007008F800141394131416F6
:1002480083160313941E14194129831203131308E8
:10025800F0007008F8008C11141683160313141C90
:100268003129831203131308F0007008A800A63080
:10027800F000F00B3D2900005C29941E141D5C2938
:10028800831203131308F0007008F8008316031391
:100298001410831203132908930005171416A630A7
:1002A800F000F00B55290000831603131418582981
:1002B800831203138C1172088A00710E8300FE0EDC
:1002C8007E0E090083120313A001A1017408210204
:1002D800031D70297308200203180800A201A30156
:1002E8000130A2070318A30A0030A3070030230235
:1002F800FA3003192202031C74290130A0070318DD
:10030800A10A0030A1076A29730883160313930012
:10031800363083120313940080308316031394003D
:1003280001309100871507168B170B1783120313DB
:100338008C11831603138C15080083160317890183
:100348008316031386010F308312031386000800F7
:04400E00F4E0FFFFDC
:00000001FF
