:020000040000FA
:060000000A128A11FC2F18
:100E48008316031789018316031386010F30831253
:100E5800031386000800F201F30171087302031DF1
:100E6800372F7008720203180800F401F5010130E9
:100E7800F4070318F50A0030F50700307502FA3058
:100E880003197402031C3B2F0130F2070318F30AFD
:100E98000030F307312F0A128A1124270A128A1107
:100EA800831603130F168F160F170F14F701F80187
:100EB80000300A128A1174270A128A110130F707C2
:100EC8000318F80A0030F8077808803AFF008030E5
:100ED8007F02031D712FFA30770203185A2F5C2FF7
:100EE800F6007603031DB92F03308312031386001F
:100EF8000130F0000030F1000A128A112F270A127F
:100F08008A1106308312031386000130F000003086
:100F1800F1000A128A112F270A128A110C30831243
:100F2800031386000130F0000030F1000A128A1124
:100F38002F270A128A110930831203138600013001
:100F4800F0000030F1000A128A112F270A128A11C4
:100F580003308312031386000130F0000030F100E3
:100F68000A128A112F270A128A117608031D08000F
:100F780009308312031386000130F0000030F100BD
:100F88000A128A112F270A128A110C3083120313AE
:100F980086000130F0000030F1000A128A112F2774
:100FA8000A128A1106308312031386000130F000FA
:100FB8000030F1000A128A112F270A128A11033011
:100FC8008312031386000130F0000030F1000A128A
:100FD8008A112F270A128A110930831203138600F7
:100FE8000130F0000030F1000A128A112F270800A2
:080FF80083010A128A114F2F38
:04400E00F4E0FFFFDC
:00000001FF
