:020000040000FA
:060000000A128A110E280D
:10000800FE00030EF7000408F8000A08F9000A12B7
:100018008A11E8290A128A111128F001F101F20166
:10002800F301F40183120313C201C301C401C50122
:10003800C601C701C801C901CA01CB0183010A125F
:100048008A118E29831203132F08B3003008B400D5
:100058003108B5003208B60006300310B30DB40DF0
:10006800B50DB60DFF3E031D31283608A30035082F
:10007800A2003408A1003308A0002F08B7003008F8
:10008800B8003108B9003208BA0006300310B70DBD
:10009800B80DB90DBA0DFF3E031D4A280030BB004C
:1000A8001230BC007A30BD000030BE003708BB02F9
:1000B8003808031C380F61286228BC023908031C61
:1000C800390F67286828BD023A08031C3A0F6D28C3
:1000D8006E28BE023E08A7003D08A6003C08A50001
:1000E8003B08A4000A128A11FF200A128A118312FF
:1000F80003132108C0002008BF000130400200306F
:1001080003193F02031CE4282F08B3003008B40089
:100118003108B5003208B60004300310B30DB40D31
:10012800B50DB60DFF3E031D91283608A30035080E
:10013800A2003408A1003308A0002F08B700300837
:10014800B8003108B9003208BA0004300310B70DFE
:10015800B80DB90DBA0DFF3E031DAA280030BB002B
:100168001230BC007A30BD000030BE003708BB0238
:100178003808031C380FC128C228BC023908031CE0
:10018800390FC728C828BD023A08031C3A0FCD28E2
:10019800CE28BE023E08A7003D08A6003C08A500E0
:1001A8003B08A4000A128A11FF200A128A1183123E
:1001B80003132108C0002008BF0083160313181575
:1001C800013083124002003003193F02031808006F
:1001D8003F08831603139900181283120313981704
:1001E800831603138717071783120313181683162A
:1001F80003139816080083120313AA01A31F1129D9
:10020800A009A109A209A309A00A0319A10A0319AF
:10021800A20A0319A30AAA01AA0AA71F2229A40944
:10022800A509A609A709A40A0319A50A0319A60A74
:100238000319A70A0130A8002808AA060030AE0052
:100248000030AD000030AC000030AB0023082204C1
:100258002104200403197729A901A90AA31B42290B
:100268000130A8000310A00DA10DA20DA30DA80B2D
:1002780036290130A8002808A90732290130A8002A
:100288000310AB0DAC0DAD0DAE0DA80B4429230822
:100298002702031D592922082602031D592921086E
:1002A8002502031D592920082402031C6A29200855
:1002B800A4022108031C210FA5022208031C220FF7
:1002C800A6022308031C230FA7022B1401300310D6
:1002D800A30CA20CA10CA00CFF3E031D6B2901303E
:1002E800A902031D42292A0803198529AB09AC096B
:1002F800AD09AE09AB0A0319AC0A0319AD0A031913
:10030800AE0A2E08A3002D08A2002C08A1002B0875
:10031800A00008000A128A113E220A128A117203EA
:10032800031D9329413083120313C1004108CA00F9
:1003380042080A128A11A0220A128A118312031390
:1003480043080A128A11A0220A128A11831203137F
:1003580044080A128A11A0220A128A11831203136E
:1003680045080A128A11A0220A128A11831203135D
:1003780046080A128A11A0220A128A11831203134C
:1003880047080A128A11A0220A128A11831203133B
:1003980048080A128A11A0220A128A11831203132A
:1003A80049080A128A11A0220A128A118312031319
:1003B8004A080A128A11A0220A128A11F201F301CC
:1003C8008312031306109329831203138C1E0A2A1F
:1003D8000A128A11B9220A128A11F6007608F00068
:1003E8007008F6007308423E840076088313800084
:1003F8000130F6007608F307831203130614413020
:100408007006031D352AF201F20A352A8C1D352A99
:100418000A128A11AC220A128A11F6007608F40030
:100428007108423E8400831300080A128A11B3221D
:100438000A128A110130F6007608F10709307106B0
:100448000319F101031083120313081C0314031C7E
:10045800312A831203130814342A83120313081051
:100468008C1179088A0078088400770E8300FE0EC4
:100478007E0E0900831603130F168F160F170F141D
:10048800F401F301F101831603178901831603139D
:1004980086018312031386018316031788018316C6
:1004A8000313880183120313880183160313851627
:1004B80087158B170B17831203138C1183160313DD
:1004C8008C15831203138C12831603138C160030B9
:1004D80083120313B2000030B1002530B000803021
:1004E800AF000A128A1126200A128A1183120313F6
:1004F800A001A101A20124300A128A118422080055
:1005080083120313A30083160313871283120313A2
:10051800231D942A220883160313940087159A2A08
:1005280020082204831603139400871183120313EF
:10053800230821049400080083120313A0008312E7
:1005480003130C1AA92A0000A32A200899000800FE
:100558000A128A11BF228312031313080800F50038
:1005680075088312031393000800831203138C1E6B
:10057800B92A1A0808008316031314180800BF2A9A
:04400E00F4E0FFFFDC
:00000001FF
