:020000040000FA
:060000000A128A110E280D
:10000800FE00030EF7000408F8000A08F9000A12B7
:100018008A11182A0A128A111128F001F101F20135
:10002800F301F40183120313C101C201C301C40126
:10003800C501C601C701C801C901CA01CB01CC016C
:10004800CD01CE01CF0183010A128A1193298312AF
:1000580003132F08B3003008B4003108B500320884
:10006800B60006300310B30DB40DB50DB60DFF3E46
:10007800031D36283608A3003508A2003408A1005D
:100088003308A0002F08B7003008B8003108B900BD
:100098003208BA0006300310B70DB80DB90DBA0D05
:1000A800FF3E031D4F280030BB001230BC007A30E1
:1000B800BD000030BE003708BB023808031C380FEB
:1000C80066286728BC023908031C390F6C286D287C
:1000D800BD023A08031C3A0F72287328BE023E0874
:1000E800A7003D08A6003C08A5003B08A4000A128A
:1000F8008A1104210A128A11831203132108C000ED
:100108002008BF0001304002003003193F02031CE1
:10011800E9282F08B3003008B4003108B5003208C8
:10012800B60004300310B30DB40DB50DB60DFF3E87
:10013800031D96283608A3003508A2003408A1003C
:100148003308A0002F08B7003008B8003108B900FC
:100158003208BA0004300310B70DB80DB90DBA0D46
:10016800FF3E031DAF280030BB001230BC007A30C0
:10017800BD000030BE003708BB023808031C380F2A
:10018800C628C728BC023908031C390FCC28CD283B
:10019800BD023A08031C3A0FD228D328BE023E08F3
:1001A800A7003D08A6003C08A5003B08A4000A12C9
:1001B8008A1104210A128A11831203132108C0002C
:1001C8002008BF008316031318150130831240025C
:1001D800003003193F02031808003F088316031371
:1001E800990018128312031398178316031387179D
:1001F800071783120313181683160313981608009B
:1002080083120313AA01A31F1629A009A109A20991
:10021800A309A00A0319A10A0319A20A0319A30A28
:10022800AA01AA0AA71F2729A409A509A609A70997
:10023800A40A0319A50A0319A60A0319A70A013073
:10024800A8002808AA060030AE000030AD00003033
:10025800AC000030AB002308220421042004031959
:100268007C29A901A90AA31B47290130A80003106A
:10027800A00DA10DA20DA30DA80B3B290130A800CC
:100288002808A90737290130A8000310AB0DAC0DC9
:10029800AD0DAE0DA80B492923082702031D5E29C1
:1002A80022082602031D5E2921082502031D5E2956
:1002B80020082402031C6F292008A4022108031C1B
:1002C800210FA5022208031C220FA6022308031CE3
:1002D800230FA7022B1401300310A30CA20CA10CAE
:1002E800A00CFF3E031D70290130A902031D4729F8
:1002F8002A0803198A29AB09AC09AD09AE09AB0A6A
:100308000319AC0A0319AD0A0319AE0A2E08A30093
:100318002D08A2002C08A1002B08A00008000A1232
:100328008A116E220A128A117103031D98298312F9
:10033800031341080A128A11CF220A128A11831262
:10034800031342080A128A11CF220A128A11831251
:10035800031343080A128A11CF220A128A11831240
:10036800031344080A128A11CF220A128A1183122F
:10037800031345080A128A11CF220A128A1183121E
:10038800031346080A128A11CF220A128A1183120D
:10039800031347080A128A11CF220A128A118312FC
:1003A800031348080A128A11CF220A128A118312EB
:1003B800031349080A128A11CF220A128A118312DA
:1003C80003134A080A128A11CF220A128A118312C9
:1003D80003134B080A128A11CF220A128A118312B8
:1003E80003134C080A128A11CF220A128A118312A7
:1003F80003134D080A128A11CF220A128A11831296
:1004080003134E080A128A11CF220A128A11831284
:1004180003134F080A128A11CF220A128A11F10116
:100428008312031306109829831203138C1E3A2A89
:100438000A128A11E8220A128A11F6007208413E4D
:1004480084007608831380000130F6007608F207EE
:100458008312031306147208403E840041300006DC
:10046800031D652AF101F10AF201652A8C1D652A2E
:100478000A128A11DB220A128A11F6007608F400A1
:100488007008413E8400831300080A128A11E22290
:100498000A128A110130F6007608F0070F3070064C
:1004A8000319F001031083120313081C0314031C1F
:1004B800612A831203130814642A83120313081091
:1004C8008C1179088A0078088400770E8300FE0E64
:1004D8007E0E0900831603130F168F160F170F14BD
:1004E800F401F001831603178901831603138601AB
:1004F80083120313860183160317880183160313D7
:100508008801831203138801831603138516871540
:100518008B170B17831203138C11831603138C1577
:10052800831203138C12831603138C160030831264
:100538000313B2000030B1002530B0008030AF00A6
:100548000A128A112B200A128A1183120313A0019E
:10055800A101A20124300A128A11B32208008312D1
:100568000313A30083160313871283120313231D97
:10057800C32A22088316031394008715C92A200862
:10058800220483160313940087118312031323088C
:1005980021049400080083120313A000831203139C
:1005A8000C1AD82A0000D22A2008990008000A123A
:1005B8008A11EE228312031313080800F500750848
:1005C8008312031393000800831203138C1EE82A76
:0E05D8001A0808008316031314180800EE2AF0
:04400E00F4E0FFFFDC
:00000001FF
