:020000040000FA
:060000000A128A110C280F
:10000800FE00030EF1000A08F2000A128A11702994
:100018000A128A110F28F701F801F901FA0183126F
:100028000313A301A40183010A128A111C29F500F4
:100038007508F300F30EF30DF30D831203131F0875
:1000480073063F3973069F00922883160317081416
:1000580083160313051408008316031788148316E0
:100068000313851408008316031708158316031352
:1000780005150800831603178815831603138515BD
:10008800080083160317081683160313851608003D
:10009800831603178816831603130914080083169A
:1000A8000317081783160313891408008316031708
:1000B80088178316031309150800831603170914F4
:1000C800831603130615080083160317891483166D
:1000D80003138615080083160317091583160313DF
:1000E800861408008316031789158316031306164A
:1000F800080083160317091683160313061408004D
:1001080083160317891683160313861608008316A9
:100118000317081483160313051408007508F30061
:10012800F4017408003A03199A288B287308003AD6
:1001380003192928013A03193028033A03193728E3
:10014800013A03193E28073A03194528013A0319C9
:100158004C28033A03195328013A03195A280F3A2D
:1001680003196128013A03196828033A03196F280B
:10017800013A03197628073A03197D28013A031929
:1001880084288B280800F500F8288F30831603137D
:100198008F051A29831603130F088F391038F12891
:1001A800831603130F088F392038F1288316031399
:1001B8000F088F393038F128831603130F088F3949
:1001C8004038F128831603130F088F395038F12867
:1001D800831603130F088F3960388F001A2970307F
:1001E800831603138F041A297508F300F4017408A1
:1001F800003A03190029F3287308003A0319C9289B
:10020800013A0319CE28033A0319D428013A0319ED
:10021800DA28073A0319E028013A0319E628033ACD
:100228000319EC28013A0319F328F3280F140800DE
:100238000A128A11C1210A128A11831203139F1408
:10024800831203139F1C2A29000024291E08A000DA
:100258002008F80079088600033083120313A200EF
:100268000830A1007630A000A00B3829A10B38294E
:10027800A20B382900008730780203184729783004
:10028800780203184A29F901F90A4B29F901770874
:10029800031D652983120313051D542901305529AF
:1002A8000030A0007903031D5B2901305C29003070
:1002B8002005003803192129F701F70A051D21290E
:1002C80062297703031D212983120313051D2129A0
:1002D800F701051D21296D29831203138C1DBA29E5
:1002E8001412141B7929941F80291308F000700830
:1002F800FA0014139413141683160313941E141976
:100308009D29831203131308F0007008FA008C115A
:10031800141683160313141C8D2983120313130850
:10032800F0007008FA00A630F000F00B99290000E0
:10033800B729941E141DB729831203131308F0005C
:100348007008FA0083160313141077088312031336
:1003580093001416A630F000F00BB02900008316A5
:1003680003131418B329831203138C1172088A001B
:10037800710E8300FE0E7E0E090007300A128A11E4
:10038800C7200A128A118316031788018901831668
:100398000313850105158601831203138501860160
:1003A8000830F6007608A300F70100300A128A1117
:1003B8001B200A128A1102300A128A1107220A1215
:1003C8008A118B171030F3000030F4000A128A11DA
:1003D800EE21080073088316031393003630831246
:1003E80003139400803083160313940001309100A6
:1003F800871507168B170B17831203138C11831697
:1004080003138C150800F400831603139F131F129F
:100418009F127408F300F30EF30DF30D8312031308
:0E0428001F0873063F3973069F001F1408005B
:04400E00F4E0FFFFDC
:00000001FF
