:020000040000FA
:100000000A128A11F62FFF1B0D2883137F188317FE
:100010000008840A0319FF0A080000308A00040857
:10002000840A82070034013400340A340034643412
:100030000034E83403341034273444346F346F34DC
:10004000723420344F34503445344E34203420340C
:10005000003444346F346F347234203443344C34BD
:100060004F34533445344434003454347234693496
:10007000703420344F344E342034003454347234CD
:100080006934703420344F344634463400343234CA
:1000900033342E343534303400342E342534643443
:0C00A000303400342E3425346434003435
:10030E000A128A11A42183160313111408000A126B
:10031E008A11A42183160313111508000A128A11DB
:10032E00A42183160313911408000A128A11A42122
:10033E007008831203139300080083160313141915
:10034E00A42911081F3903190800A42900300A1224
:10035E008A11E3210A128A1101300A128A11E3214D
:10036E000800F300F201731CC0297008F100710837
:10037E00F2070310F00D0310F30C7308031DBA29D6
:10038E0072080800F000701CD029831203130614A3
:10039E00D329831203130610F01CD7298614D829EB
:1003AE008610701DDC290615DD290611F01DE129C8
:1003BE008615080086110800F30083120313061237
:1003CE0073080A128A11C9210A128A1183120313A1
:1003DE0086160B30F2006230F100F10BF429F20BAD
:1003EE00F429000083120313861208000A128A11E0
:1003FE0087210A128A111130F0000030F1000A1222
:10040E008A119C210A128A110030F000F1000A12A2
:10041E008A11AE220A128A117008F6007608F700C9
:10042E000A128A118E21770808000A128A11872172
:10043E000A128A112130F0000030F1000A128A11DE
:10044E009C210A128A110030F000F1000A128A1162
:10045E00AE220A128A117008F6007608F7000A1208
:10046E008A118E2177080800F2007208F1007108D7
:10047E00F30073088400831300080319532A013014
:10048E00F1007108F307402A0130F1007108F307FB
:10049E000130F1007108F007700884000008F100C7
:1004AE0073088400710880000008031908004B2AA5
:1004BE0007300A128A113E240A128A118316031774
:1004CE0089018801831603138601850183120313A4
:1004DE00860185010A128A1193240A128A110030AC
:1004EE0083120313A3000130A2008630A100A030B6
:1004FE00A0000A128A110C230800F600932A76082F
:10050E00840000080319A82A0130F2007208F607C9
:10051E000130F2007208F007700884000A128A1186
:10052E000D200A128A11F200760884008313000847
:10053E00F30072087302F4007408F50075080319CD
:10054E00862A7508F000F101F01BF10308000A126B
:10055E008A11A4210A128A118316031391150A1205
:10056E008A11A4210A128A11831203131308F200AE
:10057E00F3017208F4007308F5000A128A11A4211F
:10058E000A128A1170037104031DD12A83160313F4
:10059E009112D42A83160313911611167508F100C1
:1005AE007408F0000800780879040319072BFD0180
:1005BE00FD0AF91BEE2A01300310F80DF90DFF3E6E
:1005CE00031DE32A0130FC007C08FD07E02A7908B0
:1005DE007B02031DF42A78087A02031CFC2A780891
:1005EE00FA027908031CFB03FB0201300310F90C1D
:1005FE00F80CFF3E031DFD2A0130FD02031DEE2AFD
:10060E007B08F9007A08F8000800283083120313DB
:10061E009400831603139101831203132008A40080
:10062E002108A5002208A6002308A7000230031007
:10063E00A40DA50DA60DA70DFF3E031D1E2B27080D
:10064E00F3002608F2002508F1002408F00000301F
:10065E00F7007A30F6001230F5000030F4000A127E
:10066E008A11EE247008FF3E831603139300940143
:10067E00871507160800F40074080F39F100710889
:10068E00F2007408F039F1007108F30083120313BD
:10069E0006167308F10004300310F10CFF3E031D23
:1006AE00532B71080A128A11C9210A128A11831258
:1006BE00031386161A30F100F10B632B0000831220
:1006CE000313861272080A128A11C9210A128A119C
:1006DE008312031386161A30F100F10B742B0000EF
:1006EE008312031386120800F501F60170087104D7
:1006FE000319B22BF701F70AF11B912B01300310EE
:10070E00F00DF10DFF3E031D862B0130F400740831
:10071E00F707832B01300310F50DF60DFF3E031D79
:10072E00922B71087302031D9E2B70087202031C1C
:10073E00A72B7008F2027108031CF303F302751461
:10074E0001300310F10CF00CFF3E031DA82B0130FD
:10075E00F702031D912B7608F1007508F0000800D2
:10076E00FA01FB017A087507F8007608F7000318FE
:10077E00F70AFA1BF7037708F900790883120313B7
:10078E00FF00780884000A128A1103200A128A11C7
:10079E00003A031908007A087507F8007608F70082
:1007AE000318F70AFA1BF7037708F9007908831282
:1007BE000313FF00780884000A128A1103200A121C
:1007CE008A110A128A1142230A128A110130FA077B
:1007DE000318FB0A0030FB07B92BF7007703031D44
:1007EE00192C74087F3EF5007508FA007A08F5009A
:1007FE0004300310F50CFF3E031D002C7508F600A7
:10080E007608F8007A080F39F5007508F9007808AF
:10081E000A128A11E3210A128A1179080A128A1120
:10082E00E321080002307706031D08007408BF3E5E
:10083E00F5007508FA007A08F50004300310F50C7F
:10084E00FF3E031D252C7508F6007608F8007A0881
:10085E000F39F5007508F90078080A128A11E3219C
:10086E000A128A1179080A128A11E3210800F2008D
:10087E006F2C8F30831603138F05912C8316031361
:10088E000F088F391038682C831603130F088F3911
:10089E002038682C831603130F088F393038682CD4
:1008AE00831603130F088F394038682C83160313F1
:1008BE000F088F395038682C831603130F088F39A1
:1008CE0060388F00912C7030831603138F04912C97
:1008DE007208F000F1017108003A0319772C6A2CA6
:1008EE007008003A0319402C013A0319452C033ABB
:1008FE0003194B2C013A0319512C073A0319572CA3
:10090E00013A03195D2C033A0319632C013A0319BA
:10091E006A2C6A2C0F14080000300A128A11C921A1
:10092E000A128A113430F500F130F400F40B9D2CCC
:10093E00F50B9D2CA22C03300A128A11E3210A1208
:10094E008A110D30F500FB30F400F40BAC2CF50BD6
:10095E00AC2CB12C03300A128A11E3210A128A112F
:10096E001D30F5009130F400F40BBB2CF50BBB2CB5
:10097E0003300A128A11E3210A128A1102300A1276
:10098E008A11E3210A128A1102300A128A11E32116
:10099E000A128A1108300A128A11E3210A128A11E8
:1009AE0000300A128A11E3210A128A110C300A123F
:1009BE008A11E3210A128A1100300A128A11E321E8
:1009CE000A128A1106300A128A11E3210800003039
:1009DE00FC000030FB000030FA000030F900730814
:1009EE007204710470040319432DFD01FD0AF31BFB
:1009FE000E2D0130F8000310F00DF10DF20DF30D78
:100A0E00F80B022D0130F8007808FD07FE2C01309E
:100A1E00F8000310F90DFA0DFB0DFC0DF80B102D5F
:100A2E0073087702031D252D72087602031D252DEE
:100A3E0071087502031D252D70087402031C362DD6
:100A4E007008F4027108031C710FF5027208031C82
:100A5E00720FF6027308031C730FF702791401303C
:100A6E000310F30CF20CF10CF00CFF3E031D372DAE
:100A7E000130FD02031D0E2D7C08F3007B08F200F1
:100A8E007A08F1007908F00008000A128A1187210D
:100A9E000A128A11D030F0000030F1000A128A11C9
:100AAE009C210A128A110130F0000030F1000A1266
:100ABE008A119C210A128A110A128A1195210A1290
:100ACE008A11D130F0000030F1000A128A119C21F7
:100ADE000A128A110130F0000030F1000A128A1158
:100AEE00AE220A128A117008F600760883120313DA
:100AFE00A7000030F000F1000A128A11AE220A128D
:100B0E008A117008F600760883120313A6000A12E3
:100B1E008A118E210A128A11831203132608F600F7
:100B2E0004300310F60CFF3E031D982D7608303E60
:100B3E00F7007708A00026080F39303EF600760839
:100B4E00A1003A30F6007608A2002708F60004301D
:100B5E000310F60CFF3E031DAF2D7608303EF70056
:100B6E007708A30027080F39303EF6007608A40058
:100B7E00A501203008000A128A1187210A128A1153
:100B8E00D030F0000030F1000A128A119C210A12B6
:100B9E008A111130F0000030F1000A128A119C21E6
:100BAE000A128A110A128A1195210A128A11D1305B
:100BBE00F0000030F1000A128A119C210A128A11EB
:100BCE000130F0000030F1000A128A11AE220A1232
:100BDE008A11700883120313AD002D08B90000307E
:100BEE00F000F1000A128A11AE220A128A11700860
:100BFE0083120313AD002D08BA000A128A118E213A
:100C0E000A128A11831203133908FC3EAD002D0817
:100C1E00B9001930AD002D08F0003A08AE000630CC
:100C2E000310AE0CFF3E031D172E2E080A128A115A
:100C3E00B8210A128A1183120313AF002F08BA00CB
:100C4E004130AD002D08A0003908AE00AF012E08CE
:100C5E00A1002F08A20030300A128A111E270A1294
:100C6E008A11831203133A08031D3F2E3B30402E88
:100C7E004030AD002D08A0003A08AE00AF012E089E
:100C8E00A1002F08A20036300A128A111E270A125E
:100C9E008A11363083120313AD002D08F000303068
:100CAE000A128A113B2283120313B5013030080059
:100CBE000A128A115F220A128A110A128A11AD21B2
:100CCE000A128A110A128A114C250A128A118312EB
:100CDE000313BB003B08BF00F401F40A01300A12F3
:100CEE008A11F4230A128A11831203133F08F500A6
:100CFE000030F6000A128A11B7230A128A110A125C
:100D0E008A11C2250A128A1183120313BB003B08F3
:100D1E00BE00F401F40A02300A128A11F4230A12F8
:100D2E008A11831203133E08F5000030F6000A12F2
:100D3E008A11B7230A128A11DF300A128A1142234E
:100D4E000A128A1143300A128A1142230A128A1198
:100D5E000A128A11FD210A128A1183120313BB0093
:100D6E003B08BD000730BB003B08F40001300A12FF
:100D7E008A11F4230A128A11831203133D03031DF1
:100D8E00CA2E0B30CB2E1730F5008030F6000A122B
:100D9E008A11B7230A128A11353083120313BB004E
:100DAE003B08F0003E080A128A1184220A128A11A8
:100DBE007108803AFF0080307F02031DE82E01305B
:100DCE007002031CEE2E831203130514F12E8312F0
:100DDE00031305100A128A111C220A128A11831299
:100DEE000313BB003B08BC000930BB003B08F400FA
:100DFE0002300A128A11F4230A128A118312031383
:100E0E003C03031D142F2330F5008030F6000A1228
:100E1E008A11B7230A128A11692E2C30F500803000
:100E2E00F6000A128A11B7230A128A11692E83124A
:100E3E000313AB002130A3002308A6000130A00746
:100E4E00FF30200784000A128A110D200A128A111F
:100E5E00A3002308AC002C080319F12F25302C0613
:100E6E000319452F2C08A3002B0884002308831395
:100E7E0080000130A3002308AB07252FA701013006
:100E8E00A007FF30200784000A128A110D200A12D3
:100E9E008A11AC00A300A4012408003A0319582FAC
:100EAE00252F2308003A0319F12F643A0319632FF3
:100EBE000D3A0319632F252F26088400831300088B
:100ECE00A900840A0008AA000230A3002308A6077E
:100EDE00AA1F7A2F0330A3002308A704A909AA0981
:100EEE00A90A0319AA0AAC01AC0A2C08A30023070D
:100EFE00013E84000A128A110D200A128A11A400E2
:100F0E000A128A110D200A128A11A50025082A023A
:100F1E00031D932F24082902031C9D2F0130A300CB
:100F2E002308AC0705302C06031D7C2F2708033938
:100F3E000319AC2F2D30A3002B0884002308831334
:100F4E0080000130A3002308AB072C08A300230860
:100F5E00A800FF30A3002308A807280A0319252F8D
:100F6E000A30F8000030F9002808A3002307013EDC
:100F7E0084000A128A110D200A128A11F0000A1238
:100F8E008A110D200A128A11F1002A08F30029088D
:100F9E00F2000A128A117B230A128A117108FB00D1
:100FAE007008FA000A128A11DA220A128A117808D7
:100FBE00303E83120313A4002408AC002C08A300B7
:100FCE002B0884002308831380000130A30023081C
:100FDE00AB07B02F2B088400831380010800831207
:100FEE000313BC01BD01BE01BF0183010A128A11A8
:020FFE005F2E64
:04400E00F4E0FFFFDC
:00000001FF
