:020000040000FA
:100000000A128A11F72FFF1B0D2883137F188317FD
:100010000008840A0319FF0A080000308A00040857
:10002000840A82070034013400340A340034643412
:100030000034E8340334103427344B3465347934D5
:1000400020344F344E342034203400344B34653463
:10005000793420344F34463446342034003432343A
:1000600033342E343534303400342E342534643473
:0C007000303400342E3425346434003465
:1003BE000A128A11FC2183160313111408000A1263
:1003CE008A11FC2183160313111508000A128A11D3
:1003DE00FC2183160313911408000A128A11FC21C2
:1003EE007008831203139300080083160313141965
:1003FE00FC2911081F3903190800FC2900300A12C4
:10040E008A113B220A128A1101300A128A113B22EA
:10041E000800F300F201731C182A7008F10071082D
:10042E00F2070310F00D0310F30C7308031D122ACC
:10043E0072080800F000701C282A83120313061499
:10044E002B2A831203130610F01C2F2A8614302A2F
:10045E008610701D342A0615352A0611F01D392A0C
:10046E008615080086110800F30083120313061286
:10047E0073080A128A1121220A128A118312031397
:10048E0086160B30F2006230F100F10B4C2AF20BA3
:10049E004C2A000083120313861208000A128A11D6
:1004AE00DF210A128A111130F0000030F1000A1219
:1004BE008A11F4210A128A110030F000F1000A129A
:1004CE008A11E7220A128A117008F6007608F700E0
:1004DE000A128A11E62177080800F2007208F1006C
:1004EE007108F300730884008313000803198C2A23
:1004FE000130F1007108F307792A0130F10071081B
:10050E00F3070130F1007108F0077008840000084D
:10051E00F1007308840071088000000803190800B8
:10052E00842A07300A128A1177240A128A11831636
:10053E00031789018801831603138601850183122F
:10054E000313860185010A128A11CC240A128A111C
:10055E00003083120313A3000130A2008630A100E5
:10056E00A030A0000A128A1145230800F600CC2AFA
:10057E007608840000080319E12A0130F20072089F
:10058E00F6070130F2007208F007700884000A12B4
:10059E008A110D200A128A11F20076088400831344
:1005AE000008F30072087302F4007408F500750871
:1005BE000319BF2A7508F000F101F01BF1030800C2
:1005CE000A128A11FC210A128A118316031391153D
:1005DE000A128A11FC210A128A11831203131308BC
:1005EE00F200F3017208F4007308F5000A128A1182
:1005FE00FC210A128A1170037104031D0A2B831643
:10060E00031391120D2B83160313911611167508F1
:10061E00F1007408F0000800780879040319402BE3
:10062E00FD01FD0AF91B272B01300310F80DF90D02
:10063E00FF3E031D1C2B0130FC007C08FD07192B0F
:10064E0079087B02031D2D2B78087A02031C352BAB
:10065E007808FA027908031CFB03FB020130031031
:10066E00F90CF80CFF3E031D362B0130FD02031D65
:10067E00272B7B08F9007A08F8000800283083122F
:10068E00031394008316031391018312031320089E
:10069E00A4002108A5002208A6002308A700023006
:1006AE000310A40DA50DA60DA70DFF3E031D572B80
:1006BE002708F3002608F2002508F1002408F000B0
:1006CE000030F7007A30F6001230F5000030F400FA
:1006DE000A128A1127257008FF3E83160313930012
:1006EE009401871507160800F40074080F39F100FD
:1006FE007108F2007408F039F1007108F3008312EA
:10070E00031306167308F10004300310F10CFF3EBC
:10071E00031D8C2B71080A128A1121220A128A11CA
:10072E008312031386161A30F100F10B9C2B000076
:10073E0083120313861272080A128A1121220A12D8
:10074E008A118312031386161A30F100F10BAD2BAA
:10075E0000008312031386120800F501F6017008DB
:10076E0071040319EB2BF701F70AF11BCA2B0130A9
:10077E000310F00DF10DFF3E031DBF2B0130F400F1
:10078E007408F707BC2B01300310F50DF60DFF3E74
:10079E00031DCB2B71087302031DD72B7008720239
:1007AE00031CE02B7008F2027108031CF303F30222
:1007BE00751401300310F10CF00CFF3E031DE12BFC
:1007CE000130F702031DCA2B7608F1007508F00000
:1007DE000800FA01FB017A087507F8007608F700A1
:1007EE000318F70AFA1BF7037708F9007908831242
:1007FE000313FF00780884000A128A1103200A12DC
:10080E008A11003A031908007A087507F80076086D
:10081E00F7000318F70AFA1BF7037708F9007908AF
:10082E0083120313FF00780884000A128A11032032
:10083E000A128A110A128A117B230A128A110130B6
:10084E00FA070318FB0A0030FB07F22BF7007703B9
:10085E00031D522C74087F3EF5007508FA007A08C5
:10086E00F50004300310F50CFF3E031D392C7508FE
:10087E00F6007608F8007A080F39F5007508F900C9
:10088E0078080A128A113B220A128A1179080A1272
:10089E008A113B22080002307706031D08007408F7
:1008AE00BF3EF5007508FA007A08F5000430031013
:1008BE00F50CFF3E031D5E2C7508F6007608F80059
:1008CE007A080F39F5007508F90078080A128A11AE
:1008DE003B220A128A1179080A128A113B22080059
:1008EE00F200A82C8F30831603138F05CA2C8316A3
:1008FE0003130F088F391038A12C831603130F081A
:10090E008F392038A12C831603130F088F393038F6
:10091E00A12C831603130F088F394038A12C831690
:10092E0003130F088F395038A12C831603130F08A9
:10093E008F3960388F00CA2C7030831603138F04E2
:10094E00CA2C7208F000F1017108003A0319B02C9C
:10095E00A32C7008003A0319792C013A03197E2C46
:10096E00033A0319842C013A03198A2C073A031906
:10097E00902C013A0319962C033A03199C2C013A38
:10098E000319A32CA32C0F14080000300A128A118D
:10099E0021220A128A113430F500F130F400F40BE2
:1009AE00D62CF50BD62CDB2C03300A128A113B22E7
:1009BE000A128A110D30F500FB30F400F40BE52C11
:1009CE00F50BE52CEA2C03300A128A113B220A128F
:1009DE008A111D30F5009130F400F40BF42CF50B58
:1009EE00F42C03300A128A113B220A128A110230A9
:1009FE000A128A113B220A128A1102300A128A1135
:100A0E003B220A128A1108300A128A113B220A125C
:100A1E008A1100300A128A113B220A128A110C30F6
:100A2E000A128A113B220A128A1100300A128A1106
:100A3E003B220A128A1106300A128A113B22080042
:100A4E000030FC000030FB000030FA000030F900EE
:100A5E00730872047104700403197C2DFD01FD0AE4
:100A6E00F31B472D0130F8000310F00DF10DF20DC0
:100A7E00F30DF80B3B2D0130F8007808FD07372DEC
:100A8E000130F8000310F90DFA0DFB0DFC0DF80BFB
:100A9E00492D73087702031D5E2D72087602031D21
:100AAE005E2D71087502031D5E2D70087402031C05
:100ABE006F2D7008F4027108031C710FF502720895
:100ACE00031C720FF6027308031C730FF7027914DE
:100ADE0001300310F30CF20CF10CF00CFF3E031D71
:100AEE00702D0130FD02031D472D7C08F3007B089D
:100AFE00F2007A08F1007908F00008000A128A1153
:100B0E00DF210A128A11D030F0000030F1000A12F3
:100B1E008A11F4210A128A110130F0000030F1001E
:100B2E000A128A11F4210A128A110A128A11ED216F
:100B3E000A128A11D130F0000030F1000A128A1127
:100B4E00F4210A128A110130F0000030F1000A126D
:100B5E008A11E7220A128A117008F60076088312AB
:100B6E000313A7000030F000F1000A128A11E722E9
:100B7E000A128A117008F600760883120313A60073
:100B8E000A128A11E6210A128A1183120313260809
:100B9E00F60004300310F60CFF3E031DD12D76082F
:100BAE00303EF7007708A00026080F39303EF600D9
:100BBE007608A1003A30F6007608A2002708F60063
:100BCE0004300310F60CFF3E031DE82D7608303E70
:100BDE00F7007708A30027080F39303EF600760895
:100BEE00A400A501203008000A128A1198220A12C8
:100BFE008A110A128A1105220A128A110A128A1100
:100C0E0085250A128A1183120313BB003B08BE000E
:100C1E00F401F40A01300A128A112D240A128A11E3
:100C2E00831203133E08F5000030F6000A128A11F3
:100C3E00F0230A128A110A128A1182260A128A11C6
:100C4E0083120313BB003B08BD00F401F40A02300B
:100C5E000A128A112D240A128A11831203133D08D7
:100C6E00F5000030F6000A128A11F0230A128A11DA
:100C7E000A128A1155220A128A1183120313BB001B
:100C8E003B08BC000730BB003B08F40001300A12E1
:100C9E008A112D240A128A11831203133C03031D99
:100CAE005A2E0B305B2E1430F5008030F6000A12EF
:100CBE008A11F0230A128A111D3083120313BB000E
:100CCE003B08F0003D080A128A11BD220A128A1151
:100CDE007108803AFF0080307F02031D782E0130AC
:100CEE007002031C7E2E831203130514052E83122D
:100CFE0003130510052E0A128A11DF210A128A111A
:100D0E00D030F0000030F1000A128A11F4210A12DC
:100D1E008A111130F0000030F1000A128A11F4210C
:100D2E000A128A110A128A11ED210A128A11D13081
:100D3E00F0000030F1000A128A11F4210A128A1111
:100D4E000130F0000030F1000A128A11E7220A1277
:100D5E008A11700883120313AD002D08B9000030FC
:100D6E00F000F1000A128A11E7220A128A117008A5
:100D7E0083120313AD002D08BA000A128A11E62160
:100D8E000A128A11831203133908FC3EAD002D0896
:100D9E00B9001930AD002D08F0003A08AE0006304B
:100DAE000310AE0CFF3E031DD72E2E080A128A1119
:100DBE0010220A128A1183120313AF002F08BA00F1
:100DCE002930AD002D08A0003908AE00AF012E0865
:100DDE00A1002F08A20030300A128A111F270A1212
:100DEE008A11831203133A08031DFF2E2330002F9E
:100DFE002830AD002D08A0003A08AE00AF012E0835
:100E0E00A1002F08A20036300A128A111F270A12DB
:100E1E008A11363083120313AD002D08F0003030E6
:100E2E000A128A11742283120313B501303008009E
:100E3E0083120313AB002130A3002308A600013058
:100E4E00A007FF30200784000A128A110D200A1213
:100E5E008A11A3002308AC002C080319F22F2530A9
:100E6E002C060319462F2C08A3002B0884002308F8
:100E7E00831380000130A3002308AB07262FA701A0
:100E8E000130A007FF30200784000A128A110D20BE
:100E9E000A128A11AC00A300A4012408003A031917
:100EAE00592F262F2308003A0319F22F643A0319FB
:100EBE00642F0D3A0319642F262F260884008313FE
:100ECE000008A900840A0008AA000230A300230823
:100EDE00A607AA1F7B2F0330A3002308A704A90986
:100EEE00AA09A90A0319AA0AAC01AC0A2C08A30084
:100EFE002307013E84000A128A110D200A128A115C
:100F0E00A4000A128A110D200A128A11A5002508C2
:100F1E002A02031D942F24082902031C9E2F013040
:100F2E00A3002308AC0705302C06031D7D2F2708D0
:100F3E0003390319AD2F2D30A3002B08840023088D
:100F4E00831380000130A3002308AB072C08A300F5
:100F5E002308A800FF30A3002308A807280A0319B6
:100F6E00262F0A30F8000030F9002808A3002307C6
:100F7E00013E84000A128A110D200A128A11F00015
:100F8E000A128A110D200A128A11F1002A08F300A2
:100F9E002908F2000A128A11B4230A128A11710862
:100FAE00FB007008FA000A128A1113230A128A1122
:100FBE007808303E83120313A4002408AC002C08DA
:100FCE00A3002B0884002308831380000130A300A4
:100FDE002308AB07B12F2B08840083138001080070
:100FEE0083120313BC01BD01BE0183010A128A11D3
:020FFE00FB2DC9
:04400E00F4E0FFFFDC
:00000001FF
