:020000040000FA
:100000000A128A11F32FFF1B0D2883137F18831701
:100010000008840A0319FF0A080000308A00040857
:10002000840A82070034013400340A340034643412
:100030000034E83403341034273444346F346F34DC
:10004000723420344F34503445344E34203420340C
:10005000003444346F346F347234203443344C34BD
:100060004F34533445344434003454347234693496
:10007000703420344F344E342034003454347234CD
:100080006934703420344F344634463400345034AC
:100090004934523420344F344E34203400345034F8
:1000A0004934523420344F344634463400343234E8
:1000B00033342E343534303400342E342534643423
:0C00C000303400342E3425346434003415
:1001EE000A128A11142183160313111408000A121D
:1001FE008A11142183160313111508000A128A118D
:10020E00142183160313911408000A128A11142163
:10021E007008831203139300080083160313141936
:10022E00142911081F3903190800142900300A1265
:10023E008A1153210A128A1101300A128A1153218E
:10024E000800F300F201731C30297008F1007108E8
:10025E00F2070310F00D0310F30C7308031D2A2987
:10026E0072080800F000701C402983120313061454
:10027E004329831203130610F01C472986144829BC
:10028E008610701D4C2906154D290611F01D512999
:10029E008615080086110800F30083120313061258
:1002AE0073080A128A1139210A128A118312031352
:1002BE0086160B30F2006230F100F10B6429F20B5E
:1002CE006429000083120313861208000A128A1191
:1002DE00F7200A128A114130F0000030F1000A12A4
:1002EE008A110C210A128A110030F000F1000A1254
:1002FE008A1162220A128A117008F6007608F70037
:10030E000A128A11FE20770808000A128A11F720B5
:10031E000A128A111130F0000030F1000A128A110F
:10032E000C210A128A110030F000F1000A128A1113
:10033E0062220A128A117008F6007608F7000A1275
:10034E008A11FE20770808000A128A11F7200A1275
:10035E008A112130F0000030F1000A128A110C21AE
:10036E000A128A110030F000F1000A128A1162227C
:10037E000A128A117008F6007608F7000A128A111E
:10038E00FE20770808000A128A11F7200A128A1135
:10039E003130F0000030F1000A128A110C210A12DD
:1003AE008A110030F000F1000A128A1162220A123C
:1003BE008A117008F600760883120313BE000A1223
:1003CE008A11FE2077080800F2007208F100710809
:1003DE00F30073088400831300080319032A013005
:1003EE00F1007108F307F0290130F1007108F307ED
:1003FE000130F1007108F007700884000008F10068
:10040E007308840071088000000803190800FB2996
:10041E0007300A128A11F2230A128A118316031761
:10042E008901880183160313860185018312031344
:10043E008601850103308316031387000A128A1181
:10044E0047240A128A11003083120313A3000130CD
:10045E00A2008630A100A030A0000A128A11C0228C
:10046E000800F600472A76088400000803195C2A63
:10047E000130F2007208F6070130F2007208F00740
:10048E00700884000A128A110D200A128A11F200D5
:10049E007608840083130008F30072087302F400D8
:1004AE007408F500750803193A2A7508F000F10171
:1004BE00F01BF10308000A128A1114210A128A1184
:1004CE008316031391150A128A1114210A128A1126
:1004DE00831203131308F200F3017208F400730879
:1004EE00F5000A128A1114210A128A11700371047E
:1004FE00031D852A831603139112882A831603136C
:10050E00911611167508F1007408F00008007808AD
:10051E0079040319BB2AFD01FD0AF91BA22A013039
:10052E000310F80DF90DFF3E031D972A0130FC0054
:10053E007C08FD07942A79087B02031DA82A7808F7
:10054E007A02031CB02A7808FA027908031CFB030E
:10055E00FB0201300310F90CF80CFF3E031DB12A0B
:10056E000130FD02031DA22A7B08F9007A08F8006B
:10057E00080028308312031394008316031391018D
:10058E00831203132008A4002108A5002208A60048
:10059E002308A70002300310A40DA50DA60DA70D6C
:1005AE00FF3E031DD22A2708F3002608F200250875
:1005BE00F1002408F0000030F7007A30F600123017
:1005CE00F5000030F4000A128A11A2247008FF3ED2
:1005DE008316031393009401871507160800F40081
:1005EE0074080F39F1007108F2007408F039F10047
:1005FE007108F3008312031306167308F10004301A
:10060E000310F10CFF3E031D072B71080A128A110D
:10061E0039210A128A118312031386161A30F10039
:10062E00F10B172B000083120313861272080A12A5
:10063E008A1139210A128A118312031386161A306F
:10064E00F100F10B282B0000831203138612080011
:10065E00F501F601700871040319662BF701F70A0C
:10066E00F11B452B01300310F00DF10DFF3E031D64
:10067E003A2B0130F4007408F707372B01300310C2
:10068E00F50DF60DFF3E031D462B71087302031D7B
:10069E00522B70087202031C5B2B7008F202710859
:1006AE00031CF303F302751401300310F10CF00C6C
:1006BE00FF3E031D5C2B0130F702031D452B760810
:1006CE00F1007508F0000800FA01FB017A087507C1
:1006DE00F8007608F7000318F70AFA1BF7037708F5
:1006EE00F900790883120313FF00780884000A12B8
:1006FE008A1103200A128A11003A031908007A0897
:10070E007507F8007608F7000318F70AFA1BF703C7
:10071E007708F900790883120313FF007808840024
:10072E000A128A1103200A128A110A128A11F6225B
:10073E000A128A110130FA070318FB0A0030FB0770
:10074E006D2BF7007703031DCD2B74087F3EF5004C
:10075E007508FA007A08F50004300310F50CFF3E18
:10076E00031DB42B7508F6007608F8007A080F39C9
:10077E00F5007508F90078080A128A1153210A1239
:10078E008A1179080A128A1153210800023077065D
:10079E00031D08007408BF3EF5007508FA007A08BC
:1007AE00F50004300310F50CFF3E031DD92B750820
:1007BE00F6007608F8007A080F39F5007508F9008A
:1007CE0078080A128A1153210A128A1179080A121C
:1007DE008A1153210800F200232C8F308316031345
:1007EE008F05452C831603130F088F3910381C2CD8
:1007FE00831603130F088F3920381C2C831603130E
:10080E000F088F3930381C2C831603130F088F39BD
:10081E0040381C2C831603130F088F3950381C2CAC
:10082E00831603130F088F3960388F00452C7030F4
:10083E00831603138F04452C7208F000F101710822
:10084E00003A03192B2C1E2C7008003A0319F42BB6
:10085E00013A0319F92B033A0319FF2B013A031935
:10086E00052C073A03190B2C013A0319112C033AE4
:10087E000319172C013A03191E2C1E2C0F140800F5
:10088E0000300A128A1139210A128A113430F50009
:10089E00F130F400F40B512CF50B512C562C033087
:1008AE000A128A1153210A128A110D30F500FB30FB
:1008BE00F400F40B602CF50B602C652C03300A123F
:1008CE008A1153210A128A111D30F5009130F4005D
:1008DE00F40B6F2CF50B6F2C03300A128A11532177
:1008EE000A128A1102300A128A1153210A128A112F
:1008FE0002300A128A1153210A128A1108300A1282
:10090E008A1153210A128A1100300A128A115321B8
:10091E000A128A110C300A128A1153210A128A11F4
:10092E0000300A128A1153210A128A1106300A1255
:10093E008A11532108000030FC000030FB0000300B
:10094E00FA000030F9007308720471047004031980
:10095E00F72CFD01FD0AF31BC22C0130F800031029
:10096E00F00DF10DF20DF30DF80BB62C0130F80071
:10097E007808FD07B22C0130F8000310F90DFA0DBE
:10098E00FB0DFC0DF80BC42C73087702031DD92C3C
:10099E0072087602031DD92C71087502031DD92C1D
:1009AE0070087402031CEA2C7008F4027108031C10
:1009BE00710FF5027208031C720FF6027308031C06
:1009CE00730FF702791401300310F30CF20CF10CD3
:1009DE00F00CFF3E031DEB2C0130FD02031DC22C5B
:1009EE007C08F3007B08F2007A08F1007908F00029
:1009FE0008000A128A11F7200A128A11D030F0006C
:100A0E000030F1000A128A110C210A128A110130EB
:100A1E00F0000030F1000A128A110C210A128A111C
:100A2E000A128A1105210A128A11D130F000003003
:100A3E00F1000A128A110C210A128A110130F000FB
:100A4E000030F1000A128A1162220A128A1170080D
:100A5E00F600760883120313A7000030F000F100B1
:100A6E000A128A1162220A128A117008F60076089A
:100A7E0083120313A6000A128A11FE200A128A118B
:100A8E00831203132608F60004300310F60CFF3E03
:100A9E00031D4C2D7608303EF7007708A00026087F
:100AAE000F39303EF6007608A1003A30F60076088F
:100ABE00A2002708F60004300310F60CFF3E031DBB
:100ACE00632D7608303EF7007708A30027080F390C
:100ADE00303EF6007608A400A501203008000A1268
:100AEE008A11F7200A128A11D030F0000030F1007E
:100AFE000A128A110C210A128A111130F0000030EC
:100B0E00F1000A128A110C210A128A110A128A1194
:100B1E0005210A128A11D130F0000030F1000A12BC
:100B2E008A110C210A128A110130F0000030F100F6
:100B3E000A128A1162220A128A1170088312031392
:100B4E00AD002D08B9000030F000F1000A128A1134
:100B5E0062220A128A11700883120313AD002D0847
:100B6E00BA000A128A11FE200A128A118312031386
:100B7E003908FC3EAD002D08B9001930AD002D0826
:100B8E00F0003A08AE0006300310AE0CFF3E031D17
:100B9E00CB2D2E080A128A1128210A128A118312CD
:100BAE000313AF002F08BA005130AD002D08A0007E
:100BBE003908AE00AF012E08A1002F08A200303078
:100BCE000A128A1113260A128A11831203133A0883
:100BDE00031DF32D4B30F42D5030AD002D08A00029
:100BEE003A08AE00AF012E08A1002F08A200363041
:100BFE000A128A1113260A128A113630831203132F
:100C0E00AD002D08F00030300A128A11EB2183124C
:100C1E000313B5013030080083120313AB002130EB
:100C2E00A3002308A6000130A007FF302007840090
:100C3E000A128A110D200A128A11A3002308AC0091
:100C4E002C080319E62E25302C0603193A2E2C08F3
:100C5E00A3002B0884002308831380000130A30017
:100C6E002308AB071A2EA7010130A007FF3020077B
:100C7E0084000A128A110D200A128A11AC00A300F8
:100C8E00A4012408003A03194D2E1A2E2308003A07
:100C9E000319E62E643A0319582E0D3A0319582EED
:100CAE001A2E2608840083130008A900840A00085F
:100CBE00AA000230A3002308A607AA1F6F2E033036
:100CCE00A3002308A704A909AA09A90A0319AA0AB5
:100CDE00AC01AC0A2C08A3002307013E84000A12C3
:100CEE008A110D200A128A11A4000A128A110D20EF
:100CFE000A128A11A50025082A02031D882E24082F
:100D0E002902031C922E0130A3002308AC070530E4
:100D1E002C06031D712E270803390319A12E2D3021
:100D2E00A3002B0884002308831380000130A30046
:100D3E002308AB072C08A3002308A800FF30A3004C
:100D4E002308A807280A03191A2E0A30F8000030C3
:100D5E00F9002808A3002307013E84000A128A1115
:100D6E000D200A128A11F0000A128A110D200A12A1
:100D7E008A11F1002A08F3002908F2000A128A11DA
:100D8E002F230A128A117108FB007008FA000A124A
:100D9E008A118E220A128A117808303E83120313AA
:100DAE00A4002408AC002C08A3002B088400230800
:100DBE00831380000130A3002308AB07A52E2B0858
:100DCE0084008313800108000A128A110F220A126E
:100DDE008A1183120313BC010A128A111D210A12F1
:100DEE008A11831203133C08031DA22F0A128A11C3
:100DFE0000250A128A1183120313BB003B08C2009E
:100E0E00F401F40A01300A128A11A8230A128A1177
:100E1E00831203134208F5000030F6000A128A11FD
:100E2E006B230A128A110A128A1176250A128A1166
:100E3E0083120313BB003B08C100F401F40A023015
:100E4E000A128A11A8230A128A1183120313410867
:100E5E00F5000030F6000A128A116B230A128A116D
:100E6E00DF300A128A11F6220A128A1143300A1250
:100E7E008A11F6220A128A110A128A118C210A127A
:100E8E008A1183120313BB003B08C0000730BB005E
:100E9E003B08F40001300A128A11A8230A128A11A3
:100EAE00831203134003031D5E2F0B305F2F173089
:100EBE00F5008030F6000A128A116B230A128A118D
:100ECE00453083120313BB003B08F00041080A12A1
:100EDE008A1138220A128A117108803AFF00803076
:100EEE007F02031D7C2F01307002031C822F8312A0
:100EFE0003130514852F8312031305100A128A118A
:100F0E00AB210A128A1183120313BB003B08BF00E8
:100F1E000930BB003B08F40002300A128A11A823E4
:100F2E000A128A11831203133F03031DA02F2330CD
:100F3E00DE2F2C30DE2F0A128A116D210A128A1131
:100F4E0083120313BB003B08BE00F401F40A013008
:100F5E000A128A11A8230A128A11831203133E035E
:100F6E00031DBB2F3530BC2F3D30F5008030F60011
:100F7E000A128A116B230A128A110A128A11CA21C5
:100F8E000A128A1183120313BB003B08BD00F40141
:100F9E00F40A02300A128A11A8230A128A11831245
:100FAE0003133D03031DDD2F3630DE2F3E30F500DB
:100FBE008030F6000A128A116B230A128A118312EC
:100FCE0003130718EE2FBC0105178513F82EBC016D
:100FDE00BC0A85170513F82E83120313BC01BD013D
:100FEE00BE01BF01C001C101C20183010A128A11F3
:020FFE00EB2ED8
:04400E00F4E0FFFFDC
:00000001FF
