:020000040000FA
:100000000A128A11F32FFF1B0D2883137F18831701
:100010000008840A0319FF0A080000308A00040857
:10002000840A82070034013400340A340034643412
:100030000034E83403341034273444346F346F34DC
:10004000723420344F34503445344E34203420340C
:10005000003444346F346F347234203443344C34BD
:100060004F3453344534003454347234693470346A
:1000700020344F344E3420340034543472346934D4
:10008000703420344F3446344634003450344934CC
:10009000523420344F344E342034003450344934F8
:1000A000523420344F3446344634003432343334FE
:1000B0002E343534303400342E3425346434303426
:0A00C00000342E342534643400347B
:1001CA000A128A11022183160313111408000A1253
:1001DA008A11022183160313111508000A128A11C3
:1001EA00022183160313911408000A128A110221AC
:1001FA00700883120313930008008316031314195B
:10020A00022911081F3903190800022900300A12AD
:10021A008A1141210A128A1101300A128A114121D6
:10022A000800F300F201731C1E297008F10071081E
:10023A00F2070310F00D0310F30C7308031D1829BD
:10024A0072080800F000701C2E298312031306148A
:10025A003129831203130610F01C35298614362916
:10026A008610701D3A2906153B290611F01D3F29F3
:10027A008615080086110800F3008312031306127C
:10028A0073080A128A1127210A128A118312031388
:10029A0086160B30F2006230F100F10B5229F20B94
:1002AA005229000083120313861208000A128A11C7
:1002BA00E5200A128A113130F0000030F1000A12EA
:1002CA008A11FA200A128A110030F000F1000A128B
:1002DA008A114E220A128A117008F6007608F7006F
:1002EA000A128A11EC20770808000A128A11E520FE
:1002FA000A128A114130F0000030F1000A128A1104
:10030A00FA200A128A110030F000F1000A128A114A
:10031A004E220A128A117008F6007608F7000A12AD
:10032A008A11EC20770808000A128A11E5200A12BD
:10033A008A111130F0000030F1000A128A11FA20F5
:10034A000A128A110030F000F1000A128A114E22B4
:10035A000A128A117008F6007608F7000A128A1142
:10036A00EC20770808000A128A11E5200A128A117D
:10037A002130F0000030F1000A128A11FA200A1224
:10038A008A110030F000F1000A128A114E220A1274
:10039A008A117008F6007608F7000A128A11EC2012
:1003AA0077080800F2007208F1007108F300730878
:1003BA008400831300080319EF290130F100710842
:1003CA00F307DC290130F1007108F3070130F1006D
:1003DA007108F007700884000008F10073088400AF
:1003EA0071088000000803190800E72907300A127B
:1003FA008A11DE230A128A118316031789018801DA
:10040A00831603138601850183120313860185016E
:10041A0003308316031387000A128A1133240A123F
:10042A008A11003083120313A3000130A200863020
:10043A00A100A030A0000A128A11AC220800F6001E
:10044A00332A7608840000080319482A0130F2008A
:10045A007208F6070130F2007208F007700884008B
:10046A000A128A110D200A128A11F20076088400F3
:10047A0083130008F30072087302F4007408F5008D
:10048A0075080319262A7508F000F101F01BF1031B
:10049A0008000A128A1102210A128A11831603130A
:1004AA0091150A128A1102210A128A118312031360
:1004BA001308F200F3017208F4007308F5000A1237
:1004CA008A1102210A128A1170037104031D712A0A
:1004DA00831603139112742A8316031391161116A5
:1004EA007508F1007408F000080078087904031907
:1004FA00A72AFD01FD0AF91B8E2A01300310F80D07
:10050A00F90DFF3E031D832A0130FC007C08FD071C
:10051A00802A79087B02031D942A78087A02031C30
:10052A009C2A7808FA027908031CFB03FB020130B3
:10053A000310F90CF80CFF3E031D9D2A0130FD0241
:10054A00031D8E2A7B08F9007A08F8000800283073
:10055A008312031394008316031391018312031366
:10056A002008A4002108A5002208A6002308A70045
:10057A0002300310A40DA50DA60DA70DFF3E031D05
:10058A00BE2A2708F3002608F2002508F1002408ED
:10059A00F0000030F7007A30F6001230F500003033
:1005AA00F4000A128A118E247008FF3E8316031380
:1005BA0093009401871507160800F40074080F3990
:1005CA00F1007108F2007408F039F1007108F300C3
:1005DA008312031306167308F10004300310F10C9A
:1005EA00FF3E031DF32A71080A128A1127210A12F3
:1005FA008A118312031386161A30F100F10B032BAA
:10060A00000083120313861272080A128A11272124
:10061A000A128A118312031386161A30F100F10B9B
:10062A00142B00008312031386120800F501F60149
:10063A00700871040319522BF701F70AF11B312BC9
:10064A0001300310F00DF10DFF3E031D262B013082
:10065A00F4007408F707232B01300310F50DF60D8B
:10066A00FF3E031D322B71087302031D3E2B7008D7
:10067A007202031C472B7008F2027108031CF30371
:10068A00F302751401300310F10CF00CFF3E031D48
:10069A00482B0130F702031D312B7608F10075084B
:1006AA00F0000800FA01FB017A087507F8007608DD
:1006BA00F7000318F70AFA1BF7037708F900790815
:1006CA0083120313FF00780884000A128A11032098
:1006DA000A128A11003A031908007A087507F80005
:1006EA007608F7000318F70AFA1BF7037708F900E8
:1006FA00790883120313FF00780884000A128A110A
:10070A0003200A128A110A128A11E2220A128A1193
:10071A000130FA070318FB0A0030FB07592BF700D0
:10072A007703031DB92B74087F3EF5007508FA009C
:10073A007A08F50004300310F50CFF3E031DA02BC8
:10074A007508F6007608F8007A080F39F50075087A
:10075A00F90078080A128A1141210A128A117908C5
:10076A000A128A114121080002307706031D080087
:10077A007408BF3EF5007508FA007A08F5000430DF
:10078A000310F50CFF3E031DC52B7508F60076080D
:10079A00F8007A080F39F5007508F90078080A1286
:1007AA008A1141210A128A1179080A128A114121F1
:1007BA000800F2000F2C8F30831603138F05312C9B
:1007CA00831603130F088F391038082C8316031366
:1007DA000F088F392038082C831603130F088F3916
:1007EA003038082C831603130F088F394038082C29
:1007FA00831603130F088F395038082C83160313F6
:10080A000F088F3960388F00312C7030831603132C
:10081A008F04312C7208F000F1017108003A0319B3
:10082A00172C0A2C7008003A0319E02B013A031915
:10083A00E52B033A0319EB2B013A0319F12B073A7B
:10084A000319F72B013A0319FD2B033A0319032C59
:10085A00013A03190A2C0A2C0F14080000300A1254
:10086A008A1127210A128A113430F500F130F40076
:10087A00F40B3D2CF50B3D2C422C03300A128A1145
:10088A0041210A128A110D30F500FB30F400F40BF5
:10089A004C2CF50B4C2C512C03300A128A11412195
:1008AA000A128A111D30F5009130F400F40B5B2C0A
:1008BA00F50B5B2C03300A128A1141210A128A11A4
:1008CA0002300A128A1141210A128A1102300A12CE
:1008DA008A1141210A128A1108300A128A11412109
:1008EA000A128A1100300A128A1141210A128A1147
:1008FA000C300A128A1141210A128A1100300A1296
:10090A008A1141210A128A1106300A128A114121DA
:10091A0008000030FC000030FB000030FA00003014
:10092A00F90073087204710470040319E32CFD01C1
:10093A00FD0AF31BAE2C0130F8000310F00DF10D87
:10094A00F20DF30DF80BA22C0130F8007808FD0720
:10095A009E2C0130F8000310F90DFA0DFB0DFC0D69
:10096A00F80BB02C73087702031DC52C72087602A7
:10097A00031DC52C71087502031DC52C700874026D
:10098A00031CD62C7008F4027108031C710FF502BF
:10099A007208031C720FF6027308031C730FF70226
:1009AA00791401300310F30CF20CF10CF00CFF3E39
:1009BA00031DD72C0130FD02031DAE2C7C08F30069
:1009CA007B08F2007A08F1007908F00008000A12A0
:1009DA008A11E5200A128A11D030F0000030F100A5
:1009EA000A128A11FA200A128A110130F000003024
:1009FA00F1000A128A11FA200A128A110A128A11BD
:100A0A00F3200A128A11D130F0000030F1000A12E4
:100A1A008A11FA200A128A110130F0000030F1001E
:100A2A000A128A114E220A128A117008F6007608F2
:100A3A0083120313A7000030F000F1000A128A1192
:100A4A004E220A128A117008F600760883120313DE
:100A5A00A6000A128A11EC200A128A1183120313C1
:100A6A002608F60004300310F60CFF3E031D382D4D
:100A7A007608303EF7007708A00026080F39303E86
:100A8A00F6007608A1003A30F6007608A200270898
:100A9A00F60004300310F60CFF3E031D4F2D7608B6
:100AAA00303EF7007708A30027080F39303EF600DA
:100ABA007608A400A501203008000A128A11E52050
:100ACA000A128A11D030F0000030F1000A128A119D
:100ADA00FA200A128A111130F0000030F1000A12CD
:100AEA008A11FA200A128A110A128A11F3200A12AA
:100AFA008A11D130F0000030F1000A128A11FA206E
:100B0A000A128A110130F0000030F1000A128A112B
:100B1A004E220A128A11700883120313AD002D089F
:100B2A00B9000030F000F1000A128A114E220A12AE
:100B3A008A11700883120313AD002D08BA000A1235
:100B4A008A11EC200A128A11831203133908FC3E17
:100B5A00AD002D08B9001930AD002D08F0003A0893
:100B6A00AE0006300310AE0CFF3E031DB72D2E0853
:100B7A000A128A1116210A128A1183120313AF006C
:100B8A002F08BA005030AD002D08A0003908AE0079
:100B9A00AF012E08A1002F08A20030300A128A11D4
:100BAA00FF250A128A11831203133A08031DDF2D47
:100BBA004A30E02D4F30AD002D08A0003A08AE00B3
:100BCA00AF012E08A1002F08A20036300A128A119E
:100BDA00FF250A128A11363083120313AD002D083D
:100BEA00F00030300A128A11D72183120313B5019B
:100BFA003030080083120313AB002130A30023080E
:100C0A00A6000130A007FF30200784000A128A11CB
:100C1A000D200A128A11A3002308AC002C0803191C
:100C2A00D22E25302C060319262E2C08A3002B08B9
:100C3A0084002308831380000130A3002308AB0734
:100C4A00062EA7010130A007FF30200784000A12F0
:100C5A008A110D200A128A11AC00A300A4012408EB
:100C6A00003A0319392E062E2308003A0319D22E08
:100C7A00643A0319442E0D3A0319442E062E260807
:100C8A00840083130008A900840A0008AA0002301D
:100C9A00A3002308A607AA1F5B2E0330A30023087C
:100CAA00A704A909AA09A90A0319AA0AAC01AC0A44
:100CBA002C08A3002307013E84000A128A110D2082
:100CCA000A128A11A4000A128A110D200A128A1124
:100CDA00A50025082A02031D742E24082902031CD4
:100CEA007E2E0130A3002308AC0705302C06031D15
:100CFA005D2E2708033903198D2E2D30A3002B08EA
:100D0A0084002308831380000130A3002308AB0763
:100D1A002C08A3002308A800FF30A3002308A80773
:100D2A00280A0319062E0A30F8000030F9002808AC
:100D3A00A3002307013E84000A128A110D200A1219
:100D4A008A11F0000A128A110D200A128A11F10082
:100D5A002A08F3002908F2000A128A111B230A1230
:100D6A008A117108FB007008FA000A128A117A22A5
:100D7A000A128A117808303E83120313A400240849
:100D8A00AC002C08A3002B088400230883138000DE
:100D9A000130A3002308AB07912E2B08840083138C
:100DAA00800108000A128A11FB210A128A11831291
:100DBA000313BC010A128A110B210A128A11831227
:100DCA0003133C08031D8E2F0A128A11EC240A12FF
:100DDA008A1183120313BB003B08C200F401F40A10
:100DEA0001300A128A1194230A128A1183120313F8
:100DFA004208F5000030F6000A128A1157230A1237
:100E0A008A110A128A1162250A128A11831203139D
:100E1A00BB003B08C100F401F40A02300A128A112D
:100E2A0094230A128A11831203134108F500003031
:100E3A00F6000A128A1157230A128A11DF300A129F
:100E4A008A11E2220A128A1143300A128A11E22214
:100E5A000A128A110A128A1199210A128A11831214
:100E6A000313BB003B08C0000730BB003B08F4007B
:100E7A0001300A128A1194230A128A118312031367
:100E8A004003031D4A2F0B304B2F1730F5008030DB
:100E9A00F6000A128A1157230A128A114430831261
:100EAA000313BB003B08F00041080A128A112422EE
:100EBA000A128A117108803AFF0080307F02031DEE
:100ECA00682F01307002031C6E2F8312031305145E
:100EDA00712F8312031305100A128A11B8210A12FC
:100EEA008A1183120313BB003B08BF000930BB0001
:100EFA003B08F40002300A128A1194230A128A115A
:100F0A00831203133F03031D8C2F2230CA2F2B3069
:100F1A00CA2F0A128A117A210A128A11831203131A
:100F2A00BB003B08BE00F401F40A01300A128A1120
:100F3A0094230A128A11831203133E03031DA72F57
:100F4A003430A82F3C30F5008030F6000A128A119E
:100F5A0057230A128A110A128A115B210A128A116C
:100F6A0083120313BB003B08BD00F401F40A0230EC
:100F7A000A128A1194230A128A11831203133D0357
:100F8A00031DC92F3530CA2F3D30F5008030F600D9
:100F9A000A128A1157230A128A1183120313071895
:100FAA00E42F3C03031DDE2F0A128A110B210A12B9
:100FBA008A1183120313BC0105178513E42E3C081A
:100FCA00031DEC2F0A128A110B210A128A118312AD
:100FDA000313BC01BC0A85170513E42E83120313FD
:100FEA00BC01BD01BE01BF01C001C101C201830133
:060FFA000A128A11D72E35
:04400E00F4E0FFFFDC
:00000001FF
