:020000040000FA
:060000000A128A110C280F
:10000800FE00030EF1000A08F2000A128A157A2A85
:100018000A128A110F28F801F901FA0183134530F1
:10002800840065300A128A15E42183010A128A11B4
:100038001D280A128A15B6250A128A11F9010A1210
:100048008A11F2270A128A11831203138513593071
:100058000A128A11C0260A128A110A128A15DF2288
:100068000A128A1183120313BF003F08FA000A120A
:100078008A1502230A128A1183120313BF003F084C
:10008800D7000A128A15BC220A128A118312031396
:10009800BF003F08D6000A128A1599220A128A114F
:1000A80083120313BF003F08D5005F300A128A1578
:1000B80077270A128A110A128A151A240A128A1133
:1000C80083120313BF003F08D400881FA0284C03E5
:1000D800031D87285008031DA228CC01CD010A1250
:1000E8008A155F220A128A1183120313D201323051
:1000F8005202031884280130BF003F08D2077B282A
:10010800D001D00AA2284C08031DA2285008031DBC
:10011800A228CC01CC0A0A128A1544220A128A1192
:1001280083120313D201323052020318842801309B
:10013800BF003F08D2079728881FD00157085604E8
:100148005504BF003F08CD00941298170A128A156B
:10015800C1210A128A11003A0319B2298312031322
:1001680059080A128A15F5210A128A1103308312D6
:100178000313C0009730BF00BF0BC028C00BC028B6
:10018800831203135A080A128A15F5210A128A11D2
:10019800033083120313C0009730BF00BF0BD2286F
:1001A800C00BD228831203135B080A128A15F521A3
:1001B8000A128A11033083120313C0009730BF005C
:1001C800BF0BE428C00BE428831203135C080A124F
:1001D8008A15F5210A128A11033083120313C0000D
:1001E8009730BF00BF0BF628C00BF6288312031305
:1001F8005D080A128A15F5210A128A110330831242
:100208000313C0009730BF00BF0B0829C00B082993
:10021800831203135F080A128A15F5210A128A113C
:10022800033083120313C0009730BF00BF0B1A2995
:10023800C00B1A298312031360080A128A15F521C4
:100248000A128A11033083120313C0009730BF00CB
:10025800BF0B2C29C00B2C298312031361080A1227
:100268008A15F5210A128A11033083120313C0007C
:100278009730BF00BF0B3E29C00B3E2983120313E2
:1002880062080A128A15F5210A128A1103308312AC
:100298000313C0009730BF00BF0B5029C00B502973
:1002A8008312031363080A128A15F5210A128A11A8
:1002B800033083120313C0009730BF00BF0B6229BD
:1002C800C00B62297A080A128A15F5210A128A11C6
:1002D800033083120313C0009730BF00BF0B72298D
:1002E800C00B72298312031357080A128A15F521C5
:1002F8000A128A11033083120313C0009730BF001B
:10030800BF0B8429C00B84298312031356080A12D1
:100318008A15F5210A128A11033083120313C000CB
:100328009730BF00BF0B9629C00B96298312031381
:1003380055080A128A15F5210A128A110330831208
:100348000313C0009730BF00BF0BA829C00BA82912
:1003580041300A128A15F5210A128A1183120313F1
:10036800981394167A03031DBB290830BF297A080D
:10037800031DD6291130BF003F08CA00D6292D30E9
:10038800D2294130D2296930D2294B30D2295F3065
:10039800D2293730D2295530D2292330BF003F081F
:1003A800D800F5295408BF00C0014008003A0319D5
:1003B800DE29D1293F08013A0319C329033A031951
:1003C800C529013A0319C729073A0319C929013A66
:1003D8000319CB29033A0319CD29013A0319CF2967
:1003E800D129A230BF003F08F30059300A128A15FC
:1003F80049230A128A117408803AFF0080307F026C
:10040800031D082A01307302031C0E2A83120313EA
:100418000514112A831203130510071C322A5108E8
:10042800031D332A0130BF003F08F9070A128A1159
:10043800F2270A128A11043079020318F90183128B
:100448000313D2013230520203182F2A0130BF00A1
:100458003F08D207262AD101D10A332AD1017908C7
:10046800031D822AF701F70A01300A128A15662548
:100478000A128A115F3083120313A0000030A10012
:100488000A128A1592240A128A110730831203135A
:10049800BF003F08F70001300A128A1566250A12C4
:1004A8008A11831203135808A0000030031D8030FE
:1004B800A1000A128A1592240A128A11F701F70A72
:1004C80002300A128A1566250A128A1159308312D7
:1004D8000313A0000030A1000A128A1592240A1200
:1004E8008A11DF300A128A15E1230A128A11433071
:1004F8000A128A15E1230A128A112B287903031D8F
:10050800BE2AF701F70A01300A128A1566250A126F
:100518008A117A03031D922A0B30932A173083120B
:100528000313A0008030A1000A128A1592240A122F
:100538008A11F701F70A02300A128A1566250A128B
:100548008A11831203135703031DB42A7330A000C2
:100558008030A1000A128A1592240A128A112B28C7
:100568007C30A0008030A1000A128A1592240A1259
:100578008A112B2802307906031DFB2AF701F70A96
:1005880001300A128A1566250A128A11831203138A
:100598005603031DD12A8530D22A8D30A000803021
:1005A800A1000A128A1592240A128A11F701F70A81
:1005B80002300A128A1566250A128A118312031359
:1005C8005503031DF12A8630A0008030A1000A12CD
:1005D8008A1592240A128A112B288E30A0008030A6
:1005E800A1000A128A1592240A128A112B280330B4
:1005F8007906031D2B28F701F70A01300A128A151C
:1006080066250A128A11953083120313A0008030E0
:10061800A1000A128A1592240A128A115F308312E5
:100628000313A0000030A1000A128A1592240A12AE
:100638008A11F701F70A02300A128A1566250A128A
:100648008A119C3083120313A0008030A1000A1283
:100658008A1592240A128A11831203135808A000DB
:100668000030031D8030A1000A128A1592240A1254
:100678008A110A3083120313BF003F08F3005F0892
:100688000A128A15FF210A128A11831203136007BE
:10069800F03EC0004008F8000A30BF003F08F300F1
:1006A80062080A128A15FF210A128A11831203139B
:1006B8006307F03EC0004008C700081E6D2B0130DC
:1006C800BF003F08F80718307802031C9D2BF8017B
:1006D8009D2B881D792B0130F802780A031D9D2B6C
:1006E8001730BF003F08F8009D2B081D852B0130EF
:1006F800BF003F08C7073C304702031C9D2BC701BA
:100708009D2B881C912B0130C702470A031D9D2B86
:100718003B30BF003F08C7009D2B081CAC2B0130A5
:10072800BF003F08D40708305402031C9D2BD40196
:10073800D40A023083120313C1000430C000B93058
:10074800BF00BF0BA52BC00BA52BC10BA52BAC2B3A
:100758000A30F3000030F400780883120313BF0056
:10076800C0013F08F5004008F6000A128A155C2609
:100778000A128A11730883120313C100043003108C
:10078800C10DFF3E031DC32B0A30F3000030F400F7
:100798007808C200C3014208F5004308F6000A12AF
:1007A8008A1519250A128A1173088312031341073F
:1007B800C4004408C9000A30F3000030F4004708B8
:1007C800BF00C0013F08F5004008F6000A128A156C
:1007D8005C260A128A11730883120313C1000430BD
:1007E8000310C10DFF3E031DF42B0A30F300003047
:1007F800F4004708C200C3014208F5004308F600A8
:100808000A128A1519250A128A117308831203130A
:100818004107C4004408C8004808BF003F08F50065
:100828005408C0004008F60049080A128A15D32463
:100838000A128A112B2883120313B4002A30AC0041
:100848002C08AF000130A907FF30290784000A12DD
:100858008A110A260A128A11AC002C08B50035083C
:100868000319F42C253035060319462C3508AC003D
:10087800340884002C08831380000130AC002C0855
:10088800B407262CB0010130A907FF3029078400DE
:100898000A128A110A260A128A11B500AC00AD01A3
:1008A8002D08003A0319592C262C2C08003A031954
:1008B800F42C643A0319642C0D3A0319642C262C81
:1008C8002F08840083130008B200840A0008B300CC
:1008D8000230AC002C08AF07B31F7B2C0330AC00F0
:1008E8002C08B004B209B309B20A0319B30AB50156
:1008F800B50A3508AC002C07013E84000A128A119B
:100908000A260A128A11AD000A128A110A260A1248
:100918008A11AE002E083302031D942C2D083202D2
:10092800031C9E2C0130AC002C08B5070530350699
:10093800031D7D2C300803390319AD2C2D30AC0074
:10094800340884002C08831380000130AC002C0884
:10095800B4073508AC002C08B100FF30AC002C08F7
:10096800B107310A0319262C0A30A3000030A4006D
:100978003108AC002C07013E84000A128A110A26AD
:100988000A128A11F3000A128A110A260A128A1117
:10099800F4003308F6003208F5000A128A155424C8
:1009A8000A128A11740883120313A6007308A5009B
:1009B8000A128A1575230A128A118312031323084F
:1009C800303EAD002D08B5003508AC003408840071
:1009D8002C08831380000130AC002C08B407B12C1C
:1009E80034088400831380010800831203132E083F
:1009F800B2002F08B3003008B4003108B500063043
:100A08000310B20DB30DB40DB50DFF3E031D042D3B
:100A18003508A3003408A2003308A1003208A0005A
:100A28002E08B6002F08B7003008B8003108B90002
:100A380006300310B60DB70DB80DB90DFF3E031DF6
:100A48001D2D0030BA001230BB007A30BC000030D7
:100A5800BD003608BA023708031C370F342D352D70
:100A6800BB023808031C380F3A2D3B2DBC0239084D
:100A7800031C390F402D412DBD023D08A7003C083D
:100A8800A6003B08A5003A08A4000A128A116327A9
:100A98000A128A11831203132108F5002008F400B2
:100AA80001307502003003197402031CB72D2E089B
:100AB800B2002F08B3003008B4003108B500043084
:100AC8000310B20DB30DB40DB50DFF3E031D642D1B
:100AD8003508A3003408A2003308A1003208A0009A
:100AE8002E08B6002F08B7003008B8003108B90042
:100AF80004300310B60DB70DB80DB90DFF3E031D38
:100B08007D2D0030BA001230BB007A30BC000030B6
:100B1800BD003608BA023708031C370F942D952DEF
:100B2800BB023808031C380F9A2D9B2DBC023908CC
:100B3800031C390FA02DA12DBD023D08A7003C08BC
:100B4800A6003B08A5003A08A4000A128A116327E8
:100B58000A128A11831203132108F5002008F400F1
:100B68008316031318150130750200300319740237
:100B780003180800740883160313990018128312C7
:100B88000313981783160313871707178312031382
:100B9800181683160313981608000A128A15EC21F2
:100BA8000A128A118316031391150A128A15EC2169
:100BB8000A128A11831203131308F500F601750847
:100BC800A0007608A1000A128A15EC210A128A11DF
:100BD80073037404031DF42D831603139112F72D68
:100BE8008316031391161116831203132108F400B8
:060BF8002008F3000800D4
:100C0000FF1B0A2E83137F1883170008840A031919
:100C1000FF0A080006308A000408840A82070034AC
:100C2000013400340A34003464340034E8340334CA
:100C30001034273444346F346F34723420344F34DA
:100C4000503445344E3420342034003444346F342E
:100C50006F347234203443344C344F34533445347D
:100C600044340034203420342034203420342034E0
:100C700020342034203400344C3455344E34453440
:100C8000533420342034203420340034533441345D
:100C90004234413444344F3420342034203400343E
:100CA0004D34413452345434453453342034203498
:100CB000203400344A3455344534563445345334A2
:100CC000203420342034003444344F344D344934FB
:100CD0004E3447344F3420342034003456344934B1
:100CE000453452344E3445345334203420340034A7
:100CF0004D3449344534523443344F344C34453404
:100D000053340034543472346934703420344F34E2
:100D10004E34203400345434723469347034203406
:100D20004F3446344634003450344934523420343D
:100D30004F344E342034003450344934523420344B
:100D40004F3446344634003448344F3452344134FE
:100D50003A34203400344434493441343A34203471
:100D60000034323433342E343534303400342E34BD
:100D700025346434303400342E3425346434003463
:100D800083120313BD000A128A15C7210A128A11A1
:100D9000D030F3000030F4000A128A15DC210A1268
:100DA0008A111130F3000030F4000A128A15DC2198
:100DB0000A128A110A128A15D5210A128A11D13013
:100DC000F3000030F4000A128A15DC210A128A119D
:100DD0000130F3000030F4000A128A11D1250A1202
:100DE0008A11730883120313B6003608BC00003062
:100DF000F300F4000A128A11D1250A128A1173082D
:100E000083120313B6003608BE000A128A15CE21DB
:100E10000A128A11831203133C08FC3EB6003608FE
:100E2000BC001930B6003608F3003E08B7000630A3
:100E30000310B70CFF3E031D182F37080A128A153E
:100E4000FF210A128A1183120313B8003808BE006A
:100E5000AE30B6003608A9003C08B700B801370824
:100E6000AA003808AB003D080A128A111F240A1292
:100E70008A11831203133E08031D402FA830412F0F
:100E8000AD30B6003608A9003E08B700B8013708F3
:100E9000AA003808AB0039300A128A111F240A123E
:100EA0008A11393083120313B6003608F3003D0867
:100EB0000A128A152523831203133D08053E840078
:100EC00083138001080083120313A901A31F752F48
:100ED000A009A109A209A309A00A0319A10A0319DB
:100EE000A20A0319A30AA901A90AA71F862FA40908
:100EF000A509A609A709A40A0319A50A0319A60AA0
:100F00000319A70A0130F3007308A9060030AD00E9
:100F10000030AC000030AB000030AA0023082204EF
:100F2000210420040319DB2FA801A80AA31BA62F64
:100F30000130F3000310A00DA10DA20DA30DF30BC2
:100F40009A2F0130F3007308A807962F0130F300A1
:100F50000310AA0DAB0DAC0DAD0DF30BA82F23089C
:100F60002702031DBD2F22082602031DBD2F2108C5
:100F70002502031DBD2F20082402031CCE2F2008AC
:100F8000A4022108031C210FA5022208031C220F22
:100F9000A6022308031C230FA7022A140130031002
:100FA000A30CA20CA10CA00CFF3E031DCF2F0130FF
:100FB000A802031DA62F29080319E92FAA09AB09C6
:100FC000AC09AD09AA0A0319AB0A0319AC0A031943
:100FD000AD0A2D08A3002C08A2002B08A1002A08A6
:100FE000A000080000300A128A152A220A128A116B
:0A0FF00001300A128A152A220800B7
:101382000030831603139818013008000A128A15D8
:10139200EC2183160313111408000A128A15EC219A
:1013A20083160313111508000A128A15EC218316FD
:1013B2000313911408000A128A15EC217308831290
:1013C20003139300080064008001840A04060319D1
:1013D20000340406E529831603131419EC291108B5
:1013E2001F3903190800EC29F30083160313981C14
:1013F200F62973088312031399000800F600F50119
:10140200761C072A7308F4007408F5070310F30D1D
:101412000310F60C7608031D012A75080800F30074
:10142200731C172A8312031306141A2A8312031336
:101432000610F31C1E2A86141F2A8610731D232AE7
:101442000615242A0611F31D282A8615080086117E
:101452000800F60083120313061276080A128A1590
:1014620010220A128A158312031386160B30F50016
:101472006230F400F40B3B2AF50B3B2A0000831286
:101482000313861208000A128A15C7210A128A1546
:101492002030F3000030F4000A128A15DC210A120F
:1014A2008A15F030F3000030F4000A128A15DC21AC
:1014B2000A128A150A128A15CE2108000A128A1502
:1014C200C7210A128A152030F3000030F4000A12F4
:1014D2008A15DC210A128A15FF30F3000030F4006D
:1014E2000A128A15DC210A128A150A128A15CE21DD
:1014F20008000B1D922A0130F000700883120313BA
:10150200CB07C8304B0203188E2A4A084B02031835
:101512008C2A85148F2A85108F2ACB0138308100BE
:101522000B1172088A00710E8300FE0E7E0E0900F6
:101532000A128A15C7210A128A153130F3000030C7
:10154200F4000A128A15DC210A128A150030F3000F
:10155200F4000A128A11D1250A128A157308F700BB
:10156200770883120313A2000A128A15CE2183126E
:101572000313220808000A128A15C7210A128A15C3
:101582004130F3000030F4000A128A15DC210A12FD
:101592008A150030F300F4000A128A11D1250A12CA
:1015A2008A157308F700770883120313A2000A1240
:1015B2008A15CE2183120313220808000A128A1503
:1015C200C7210A128A151130F3000030F4000A1202
:1015D2008A15DC210A128A150030F300F4000A127F
:1015E2008A11D1250A128A157308F7007708831227
:1015F2000313A2000A128A15CE21831203132208B2
:1016020008000A128A15C7210A128A152130F3002E
:101612000030F4000A128A15DC210A128A15003001
:10162200F300F4000A128A11D1250A128A157308EE
:10163200F700770883120313A2000A128A15CE213B
:101642008312031322080800F5007508F4007408D9
:10165200F600760884008313000803193D2B01303D
:10166200F4007408F6072A2B0130F4007408F60718
:101672000130F4007408F307730884000008F400D2
:101682007608840074088000000803190800352BCE
:1016920083120313A1005A2B2108840000080319A6
:1016A2006F2B0130F5007508A1070130F5007508B0
:1016B200F307730884000A128A110A260A128A158D
:1016C200F5002108840083130008F60075087602ED
:1016D200F7007708A000200803194D2B2008F3001B
:1016E200F401F31BF40308008312031323082404F8
:1016F2000319A42BA801A80AA41B8B2B01300310E9
:10170200A30DA40DFF3E031D802B0130A700270867
:10171200A8077D2B24082602031D912B23082502EE
:10172200031C992B2308A5022408031CA603A60266
:1017320001300310A40CA30CFF3E031D9A2B0130B1
:10174200A802031D8B2B2608A4002508A30008006D
:10175200283083120313940083160313910183121A
:1017620003132D08F4002E08F5002F08F6003008A8
:10177200F70002300310F40DF50DF60DF70DFF3EE4
:10178200031DBB2B7708A3007608A2007508A100F1
:101792007408A0000030A7007A30A6001230A5001D
:1017A2000030A4000A128A15B726831203132008F8
:1017B200FF3E831603139300940187150716080052
:1017C200F70077080F39F4007408F5007708F0394C
:1017D200F4007408F6008312031306167608F40068
:1017E20004300310F40CFF3E031DF22B74080A129E
:1017F2008A1510220A128A158312031386161A30CA
:10180200F400F40B022C00008312031386127508F5
:101812000A128A1510220A128A15831203138616D7
:101822001A30F400F40B132C0000831203138612F7
:1018320008000A128A15C7210A128A15D030F3004D
:101842000030F4000A128A15DC210A128A150330CC
:10185200F3000030F4000A128A15DC210A128A15FC
:101862000A128A15D5210A128A15D130F3000030E6
:10187200F4000A128A15DC210A128A150030F300DC
:10188200F4000A128A11D1250A128A157308F70088
:10189200770883120313A2000A128A15CE2183123B
:1018A20003132208080083120313A101A201730883
:1018B200740403198D2CA001A00AF41B6C2C0130B6
:1018C2000310F30DF40DFF3E031D612C0130F700F0
:1018D2007708A0075E2C01300310A10DA20DFF3E78
:1018E200031D6D2C74087602031D792C7308750292
:1018F200031C822C7308F5027408031CF603F6021B
:10190200211401300310F40CF30CFF3E031D832C51
:101912000130A002031D6C2C2208F4002108F30000
:10192200080083120313A501A60125082007A300BE
:101932002108A2000318A20AA51BA2038312031303
:101942002208A4002408FF00230884000A128A1136
:1019520000260A128A15003A0319080025082007F2
:10196200A3002108A2000318A20AA51BA203831246
:1019720003132208A4002408FF00230884000A128B
:101982008A1100260A128A150A128A15E1230A12FE
:101992008A15013083120313A5070318A60A003023
:1019A200A607962CF7000A128A15C7210A128A1571
:1019B200D030F3000030F4000A128A15DC210A123A
:1019C2008A150130F3000030F4000A128A15DC2176
:1019D2000A128A15750883120313A000A1012008B8
:1019E200F3002108F4000A128A15DC210A128A1572
:1019F200770883120313A000A1012008F300210835
:101A0200F4000A128A15DC210A128A15760883125A
:101A12000313A000A1012008F3002108F4000A1218
:101A22008A15DC210A128A150A128A15CE210800AB
:101A320083120313A101F61F252DF509F609F50AF4
:101A42000319F60AA101A10AF41F2C2DF309F409C6
:101A5200F30A0319F40A730874040319592DA00137
:101A6200A00AF41B402D01300310F30DF40DFF3ECC
:101A7200031D352D0130F7007708A007322D7408B9
:101A82007602031D462D73087502031C4E2D730842
:101A9200F5027408031CF603F60201300310F40C7D
:101AA200F30CFF3E031D4F2D0130A002031D402DFC
:101AB20021080319612DF509F609F50A0319F60A39
:101AC2007608F4007508F300080083120313A200DD
:101AD2002203031D8F2D77087F3EA0002008A5005A
:101AE2002508A00004300310A00CFF3E031D742D36
:101AF2002008A1002108A30025080F39A000200812
:101B0200A40023080A128A152A220A128A158312AD
:101B1200031324080A128A152A2208000230220618
:101B2200031D08007708BF3EA0002008A500250875
:101B3200A00004300310A00CFF3E031D9B2D2008C3
:101B4200A1002108A30025080F39A0002008A40045
:101B520023080A128A152A220A128A1583120313EB
:101B620024080A128A152A22080007300A128A1546
:101B720007260A128A15831603178901880183161C
:101B8200031386018501FF30880083120313860147
:101B92008501013083160313870083120313870123
:101BA200D301FA01D701D501D6018316031381129D
:101BB20001128115011181100110383083120313B3
:101BC20081000B118B168B170A128A1517270A121E
:101BD2008A15003083120313B1000030B0002530A3
:101BE200AF008030AE000A128A11F9240A128A1557
:101BF200003083120313B0000130AF008630AE0014
:101C0200A030AD000A128A15A9230800F500382E6B
:101C12008F30831603138F055A2E831603130F0872
:101C22008F391038312E831603130F088F3920385D
:101C3200312E831603130F088F393038312E831655
:101C420003130F088F394038312E831603130F0800
:101C52008F395038312E831603130F088F396038AD
:101C62008F005A2E7030831603138F045A2E750874
:101C7200F300F4017408003A0319402E332E73085E
:101C8200003A0319092E013A03190E2E033A0319D9
:101C9200142E013A03191A2E073A0319202E013A7B
:101CA2000319262E033A03192C2E013A0319332E57
:101CB200332E0F14080083120313A101F41F682EA0
:101CC200F309F409F30A0319F40AA101A10AF61FA0
:101CD200732EF509F609F50A0319F60A0130F70021
:101CE2007708A106A201A301730874040319AA2E9E
:101CF200A001A00AF41B892E01300310F30DF40D8C
:101D0200FF3E031D7E2E0130F7007708A0077B2ED1
:101D120001300310A20DA30DFF3E031D8A2E74088D
:101D22007602031D962E73087502031C9F2E7308FC
:101D3200F5027408031CF603F602221401300310A4
:101D4200F40CF30CFF3E031DA02E0130A002031D74
:101D5200892E21080319B22EA209A309A20A031986
:101D6200A30A2308F4002208F300080000308312BB
:101D72000313AB000030AA000030A9000030A80015
:101D8200230822042104200403190E2FAC01AC0AFB
:101D9200A31BD92E0130F3000310A00DA10DA20D3B
:101DA200A30DF30BCD2E0130F3007308AC07C92E3F
:101DB2000130F3000310A80DA90DAA0DAB0DF30B12
:101DC200DB2E23082702031DF02E22082602031D04
:101DD200F02E21082502031DF02E20082402031CE8
:101DE200012F2008A4022108031C210FA5022208AA
:101DF200031C220FA6022308031C230FA702281488
:101E020001300310A30CA20CA10CA00CFF3E031D79
:101E1200022F0130AC02031DD92E2B08A3002A0881
:101E2200A2002908A1002808A000080000300A1218
:101E32008A1510220A128A15343083120313A10064
:101E4200F130A000A00B232FA10B232F03300A1285
:101E52008A152A220A128A150D3083120313A10051
:101E6200FB30A000A00B332FA10B332F03300A123B
:101E72008A152A220A128A151D3083120313A10021
:101E82009030A000A00B432FA10B432F0000033082
:101E92000A128A152A220A128A1502300A128A1591
:101EA2002A220A128A1502300A128A152A220A12D4
:101EB2008A1508300A128A152A220A128A15003057
:101EC2000A128A152A220A128A150C300A128A1557
:101ED2002A220A128A1500300A128A152A220A12A6
:101EE2008A1506300A128A152A2208008312031361
:101EF200A6000A128A15C7210A128A15D030F300E9
:101F02000030F4000A128A15DC210A128A15013007
:101F1200F3000030F4000A128A15DC210A128A1535
:101F22000A128A15D5210A128A15D130F30000301F
:101F3200F4000A128A15DC210A128A150130F30014
:101F42000030F4000A128A11D1250A128A15730888
:101F520083120313A2002208A5000030F300F4004C
:101F62000A128A11D1250A128A15730883120313E1
:101F7200A2002208A4000A128A15CE210A128A158A
:101F8200831203132408A20004300310A20CFF3EA4
:101F9200031DC62F2208303EA30026088400230812
:101FA2008313800024080F39303EA200260A8400E1
:101FB200220880003A30A2002608023E840022084D
:101FC20080002508A20004300310A20CFF3E031D6E
:101FD200E52F2208303EA3002608033E8400230892
:101FE200800025080F39303EA2002608043E8400F6
:0E1FF200220880002608053E840080010800B9
:04400E00F4E0FFFFDC
:00000001FF
