:020000040000FA
:060000000A128A110C280F
:10000800FE00030EF1000A08F2000A168A11CF2E2C
:100018000A128A110F280A168A11FB250A128A1158
:10002800E8000A168A11FC250A128A11E9000A1644
:100038008A11FD250A128A11EA000A168A11FE257C
:100048000A128A11EB000A168A11FF250A128A1170
:10005800EC0083132030840047300A168A112326C7
:10006800F801F901FA0183010A128A113B280A12E0
:100078008A1550240A128A11FA0183120313A9015E
:10008800A90A0A168A113E260A128A118312031334
:100098008513F701F70A01300A128A1550230A124C
:1000A8008A111C3083120313C7008830C8000A1253
:1000B8008A157C220A128A11F8010A168A11492621
:1000C8000A128A11043083160313A2000C30A1000F
:1000D8003330A000A00B6E28A10B6E28A20B6E284F
:1000E800013083160313A0002008F80710307802A7
:1000F800031C6128F8010A128A11F2270A128A11D0
:10010800043083160313A2000C30A1003330A00082
:10011800A00B8C28A10B8C28A20B8C2801308316ED
:100128000313A0002008F80710307802031C7F286A
:100138000A168A113E260A128A11F701F70A0130B7
:100148000A128A1550230A128A11353083120313B2
:10015800C7008930C8000A128A157C220A128A113F
:10016800F701F70A02300A128A1550230A128A1177
:10017800BB3083120313C7008830C8000A128A15DF
:100188007C220A128A11293083160313A2009630A2
:10019800A1007E30A000A00BCF28A10BCF28A20B76
:1001A800CF2800000A168A113E260A128A113B300F
:1001B8000A128A1583260A128A110A168A11342706
:1001C8000A128A1183160313A0002008831203134E
:1001D800BA000A168A1157270A128A1183160313BE
:1001E800A000200883120313B9000A168A111127E8
:1001F8000A128A1183160313A0002008831203131E
:10020800B8000A168A11EE260A128A1183160313F9
:10021800A000200883120313B70041300A128A1580
:100228006B250A128A110A128A1504220A128A11E7
:1002380083160313A0002008F9000A168A1157270D
:100248000A128A1183160313A000200883120313CD
:10025800AE00881F6A2902302E06031D4E29330876
:10026800031D6C290A168A11B4260A128A118312F0
:100278000313B5013230350203184B2901308316B8
:100288000313A000200883120313B5073E29B30106
:10029800B30A6C2903302E06031D6C293308031D8D
:1002A8006C290A168A1199260A128A1183120313D5
:1002B800B5013230350203184B2901308316031378
:1002C800A000200883120313B5075D29881FB30116
:1002D8002F08031D7C292903031D7C2939083804AC
:1002E800370483160313A000200883120313AF00FA
:1002F8002F03031D8D293208031D8F29B201B20A6D
:100308000A168A1199260A128A11831203130517ED
:100318008F290513B2012903031DA229081FA1294A
:100328003108031DA2292F08031D9D29AF01AF0A1B
:100338009E29AF01B101B10AA229B10194129817FF
:100348000A168A1100260A128A11003A03195E2A2F
:10035800831203133B080A168A1134260A128A11DB
:10036800033083160313A1009730A000A00BBA290D
:10037800A10BBA29831203133C080A168A113426E2
:100388000A128A11033083160313A1009730A000C4
:10039800A00BCC29A10BCC29831203133D080A1604
:1003A8008A1134260A128A11033083160313A10016
:1003B8009730A000A00BDE29A10BDE2983120313BE
:1003C8003E080A168A1134260A128A110330831647
:1003D8000313A1009730A000A00BF029A10BF0296E
:1003E800831203133F080A168A1134260A128A1147
:1003F800033083160313A1009730A000A00B022A34
:10040800A10B022A831203133A080A168A1134260A
:100418000A128A11033083160313A1009730A00033
:10042800A00B142AA10B142A831203132F080A16EF
:100438008A1134260A128A11033083160313A10085
:100448009730A000A00B262AA10B262A831203139B
:100458002E080A168A1134260A128A1103308316C6
:100468000313A1009730A000A00B382AA10B382A4B
:100478008312031329080A168A1134260A128A11CC
:10048800033083160313A1009730A000A00B4A2A5B
:10049800A10B4A2A41300A168A1134260A128A11F7
:1004A800033083160313A1009730A000A00B5A2A2B
:1004B800A10B5A2A83120313981394163A03031DA7
:1004C800672A08306B2A3A08031DA42A10308316BD
:1004D8000313A000200883120313AC00A42AC6301B
:1004E80083120313A5008830A22ADA30831203137B
:1004F800A5008830A22A023083120313A500893090
:10050800A22AE43083120313A5008830A22AF83007
:1005180083120313A5008830A22AD0308312031354
:10052800A5008830A22AEE3083120313A500883074
:10053800A22A4F3083120313A5008830A600C52ACB
:10054800790883160313A000A1012108003A0319B2
:10055800AE2A9D2A2008013A0319732A033A03197F
:10056800792A013A03197F2A073A0319852A013A99
:1005780003198B2A033A0319912A013A0319972A76
:100588009D2A4E30F3008930F4003B300A128A1558
:1005980063210A128A117408803AFF0080307F02B2
:1005A800031DD82A01307302031CDE2A83120313A9
:1005B8000514E12A8312031305104830F30089302B
:1005C800F40041300A128A1563210A128A1173084D
:1005D8007404031DF72A06307906031D0D2B073016
:1005E8007906031D0D2B4230F3008930F4004130A9
:1005F8000A128A1563210A128A1173087404031DEA
:10060800122B0630790603190D2B07307906031DC6
:10061800122B0A168A1199260A128A1183120313B9
:10062800071C3F2B3408031D402B0130831603138E
:10063800A0002008FA0704307A060319F8010A1600
:100648008A113E260A128A1106307A020318FA0124
:1006580083120313B5013230350203183C2B0130E5
:1006680083160313A000200883120313B5072F2B4A
:10067800B401B40A402BB4017A08031D8D2BF7018D
:10068800F70A01300A128A1550230A128A114130DA
:1006980083120313C7000030C8000A128A157C228F
:1006A8000A128A11073083160313A0002008F700E6
:1006B80001300A128A1550230A128A118312031371
:1006C8002508C7002608C8000A128A157C220A12C3
:1006D8008A11F701F70A02300A128A1550230A1202
:1006E8008A113B3083120313C7000030C8000A1276
:1006F8008A157C220A128A11DF300A128A15CB2148
:100708000A128A1143300A128A15CB210A128A1159
:10071800DB287A03031DCB2BF701F70A01300A12F5
:100728008A1550230A128A11831203133A03031DF0
:10073800A12B7F30C7008830A42B9730C7008830A2
:10074800C8000A128A157C220A128A11F701F70AD0
:1007580002300A128A1550230A128A1183120313CF
:100768003903031DC12B0C30C7008930C8000A1299
:100778008A157C220A128A11DB281530C7008930B5
:10078800C8000A128A157C220A128A11DB28023054
:100798007A06031D0A2CF701F70A01300A128A1596
:1007A80050230A128A11831203133803031DE02B06
:1007B8001E30C7008930E32B2630C7008930C800B7
:1007C8000A128A157C220A128A11F701F70A0230E6
:1007D8000A128A1550230A128A1183120313370347
:1007E800031D002C1F30C7008930C8000A128A1563
:1007F8007C220A128A11DB282730C7008930C800FA
:100808000A128A157C220A128A11DB2803307A061A
:10081800031D602DF701F70A01300A128A155023CB
:100828000A128A112E3083120313C7008930C800B8
:100838000A128A157C220A128A1141308312031384
:10084800C7000030C8000A128A157C220A128A11D1
:10085800F701F70A02300A128A1550230A128A1180
:100868003C3083120313C7008930C8000A128A1566
:100878007C220A128A11831203132508C70026084E
:10088800C8000A128A157C220A128A110A308316B5
:100898000313A0002008F3008312031341080A166B
:1008A8008A1154260A128A11831203134207F03E52
:1008B80083160313A100210883120313A8000A302A
:1008C80083160313A0002008F300831203134408BF
:1008D8000A168A1154260A128A118312031345072D
:1008E800F03E83160313A100210883120313A70007
:1008F800081E8C2C013083160313A00020088312D5
:100908000313A80718302802031CCA2CA801CA2CF4
:10091800881D9C2C0130A802280A031DCA2C1730F8
:1009280083160313A000200883120313A800CA2CFF
:10093800081DAC2C013083160313A0002008831275
:100948000313A7073C302702031CCA2CA701CA2C93
:10095800881CBC2C0130A702270A031DCA2C3B3077
:1009680083160313A000200883120313A700CA2CC0
:10097800081CD92C013083160313A0002008F9079E
:1009880008307902031CCA2CF901F90A02308316CF
:100998000313A2000430A100B930A000A00BD22C90
:1009A800A10BD22CA20BD22CD92C0A30F300003088
:1009B800F40083120313280883160313A000A1016F
:1009C8002008F5002108F6000A128A15F5230A12F4
:1009D8008A11730883160313A20004300310A20DB2
:1009E800FF3E031DF22C0A30F3000030F40083129E
:1009F8000313280883160313A300A4012308F50092
:100A08002408F6000A128A1503230A128A117308A9
:100A1800831603132207A500250883120313AB00CE
:100A28000A30F3000030F400270883160313A000EF
:100A3800A1012008F5002108F6000A128A15F523FD
:100A48000A128A11730883160313A20004300310D4
:100A5800A20DFF3E031D2B2D0A30F3000030F400D9
:100A680083120313270883160313A300A401230882
:100A7800F5002408F6000A128A1503230A128A11BF
:100A88007308831603132207A5002508831203138E
:100A9800AA002A0883160313A0002008F500790885
:100AA800A1002108F600831203132B080A128A15E5
:100AB800BD220A128A11DB2804307A06031DC42ECF
:100AC800F701F70A01300A128A1550230A128A110F
:100AD8003B3083120313C7008830C8000A128A15F6
:100AE8007C220A128A117808013E83160313A0009B
:100AF8002008F70002300A128A1550230A128A11B8
:100B08000530780203183D2E83120313081CA52D07
:100B18003008031D3D2E7808203E84008313800191
:100B2800013083160313A0002008F807831203136B
:100B3800B001B00A2A300A128A15CB210A128A118A
:100B48003D2E881CC12D3008031D3D2E7808203EFF
:100B5800840083138001800A013083160313A000E8
:100B68002008F80783120313B001B00A2A300A12CA
:100B78008A15CB210A128A113D2E081DDF2D300857
:100B8800031D3D2E023083160313A0007808203E73
:100B980084002008831380000130A0002008F80793
:100BA80083120313B001B00A2A300A128A15CB2126
:100BB8000A128A113D2E881DFD2D3008031D3D2E79
:100BC800033083160313A0007808203E8400200811
:100BD800831380000130A0002008F8078312031354
:100BE800B001B00A2A300A128A15CB210A128A11DA
:100BF8003D2E081E1B2E3008031D3D2E0430831683
:100C08000313A0007808203E840020088313800086
:100C18000130A0002008F80783120313B001B00ABE
:100C28002A300A128A15CB210A128A113D2E881EF3
:100C3800392E3008031D3D2E053083160313A000FE
:100C48007808203E84002008831380000130A0002B
:100C58002008F80783120313B001B00A2A300A12D9
:100C68008A15CB210A128A113D2E0808031D3D2E34
:100C7800B00183120313091CAD2E20086806031D5A
:100C8800992E21086906031D992E22086A06031D5C
:100C9800992E23086B06031D992E24086C06031D44
:100CA800992E2908031D832EA901A90AF8010A16FD
:100CB8008A113E260A128A11F701F70A01300A1230
:100CC8008A1550230A128A11AF3083120313C70002
:100CD8008830C8000A128A157C220A128A11153037
:100CE80083160313A2004B30A100BD30A000A00B57
:100CF8007B2EA10B7B2EA20B7B2E822EDB28A9013B
:100D0800F801AF010A168A113E260A128A11F70164
:100D1800F70A01300A128A1550230A128A1166301E
:100D280083120313C70088306D2E0A168A113E26D7
:100D38000A128A11F801F701F70A01300A128A1516
:100D480050230A128A11543083120313C7008930C2
:100D58006D2E891CDB28F701F70A02300A128A1562
:100D680050230A128A114C3083120313C7008830AB
:100D7800C8000A128A157C220A128A11F801DB2897
:100D880005307A06031DDB28F701F70A01300A123D
:100D98008A1550230A128A110330831203132E0670
:100DA800031DDA2E7330C7008830DD2E8B30C70064
:100DB8008830C8000A128A157C220A128A11F701A3
:100DC800F70A02300A128A1550230A128A1183126E
:100DD80003132903031DFA2EA330C7008830C80067
:100DE8000A128A157C220A128A11DB285930C70098
:100DF8008830C8000A128A157C220A128A11DB2858
:100E080083120313DD005230D4005408D80051086F
:100E1800D5005008D400D00A0319D10A5508FF009C
:100E2800540884000A128A1500200A128A11D60072
:100E38005608DE005E080319ED2F25305E060319FB
:100E4800312F5E08D4005D088400540883138000A5
:100E58000130D4005408DD070B2FD9015108D50003
:100E68005008D400D00A0319D10A5508FF005408C5
:100E780084000A128A1500200A128A11DE00D600A0
:100E8800D7015708003A03194A2F0B2F5608003A82
:100E98000319ED2F643A0319552F0D3A0319552FED
:100EA8000B2F5808840083130008DB00840A00080D
:100EB800DC000230D4005408D807DC1F6C2F033044
:100EC800D4005408D904DB09DC09DB0A0319DC0A5D
:100ED800DE01DE0A5E08D4005407123E8400883022
:100EE8000318013EFF000A128A1500200A128A110F
:100EF800D5000A128A1500200A128A11D60056084F
:100F08005C02031D892F55085B02031C932F0130D7
:100F1800D4005408DE0705305E06031D6E2F5908FD
:100F280003390319A22F2D30D4005D08840054081A
:100F3800831380000130D4005408DD075E08D40014
:100F48005408DA00FF30D4005408DA075A0A0319A3
:100F58000B2F0A30CA000030CB005A08D4005407BF
:100F6800123E840088300318013EFF000A128A15D9
:100F780000200A128A11F3000A128A1500200A12A8
:100F88008A11F4005C08F6005B08F5000A128A155D
:100F98003E220A128A11740883120313CD007308C3
:100FA800CC000A168A11CC270A128A11831203135D
:100FB8004A08303ED5005508DE005E08D4005D08BA
:100FC80084005408831380000130D4005408DD07DE
:100FD800A62F5D08840083138001080001300A16DB
:100FE8008A117F260A128A110C300A168A117F2666
:020FF8000800EF
:10100000FF1B0A2883137F1883170008840A03191B
:10101000FF0A08007F087F398A000408840A031940
:10102000FF0A8200013400340A340034643400348E
:10103000E83403341034273449346E34693463346B
:10104000693461346E3464346F3420345334693419
:101050007334743465346D346134203464346534ED
:1010600020345334653467347534723469346434ED
:10107000613464340034503441345334533457347D
:101080004F34523444343A34203420342034203421
:1010900020342034203400342034203420342034D0
:1010A00020342034203420342034203420342034A0
:1010B0000034533445344334553452344934543471
:1010C000593420344F344634463400345334653474
:1010D00063347534723469347434793420344F3461
:1010E000463446340034423441344E344B34203498
:1010F0004F34503445344E34453444340034443451
:101100004F344F34523420344F34503445344E34FD
:10111000453444340034423441344E344B3420346A
:1011200043344C344F345334453444340034443421
:101130004F344F345234203443344C344F345334CE
:1011400045344434003453344534433455345234F4
:1011500049345434593420344F344E3400345334E9
:1011600065346334753472346934743479342034BA
:101170004F344E34003475346E3420344D346F3473
:101180006D3465346E3474346F3400344C345534FB
:101190004E34453453342034203420342034003449
:1011A000533441344234413444344F3420342034B5
:1011B000203400344D3441345234543445345334A3
:1011C00020342034203400344A34553445345634E5
:1011D00045345334203420342034003444344F34E4
:1011E0004D3449344E3447344F34203420340034A5
:1011F00056344934453452344E3445345334203413
:10120000203400344D3449344534523443344F345F
:101210004C3445345334003454345234493450340B
:1012200020344F344E342034003454345234493452
:10123000503420344F34463446340034503449342A
:10124000523420344F344E34203400345034493436
:10125000523420344F344634463400345434493404
:101260004D3445343A3420340034453473347034CA
:1012700065347234653400344434413459343A347A
:1012800020340034323431343A34303430340034A1
:10129000323432343A34303430340034323433344B
:1012A0002E34353430340034573452344F344E34C5
:1012B000473400342E3425346434303400342E3432
:1012C00025346434003483120313C8007629480897
:1012D0008400000803198D290130F5007508C8073E
:1012E0000130F3070318F40A0030F4077408FF0014
:1012F000730884000A128A1500200A128A15F50064
:101300004808840083130008F60075087602F70089
:101310007708C7004708031967294708F300F40155
:10132000F31BF40308002830831203139400831680
:1013300003139101831203135408F4005508F500B8
:101340005608F6005708F70002300310F40DF50DAB
:10135000F60DF70DFF3E031DA5297708CA00760894
:10136000C9007508C8007408C7000030CE007A3084
:10137000CD001230CC000030CB000A128A15AB240D
:10138000831203134708FF3E83160313930094014F
:10139000871507160800F70077080F39F40074085E
:1013A000F5007708F039F4007408F600831203138F
:1013B00006167608F40004300310F40CFF3E031DFB
:1013C000DC2974080A168A1165260A128A15831206
:1013D000031386161A30F400F40BEC290000831274
:1013E0000313861275080A168A1165260A128A15D1
:1013F0008312031386161A30F400F40BFD29000043
:1014000083120313861208000A168A1106260A128E
:101410008A15D030F3000030F4000A168A111B261A
:101420000A128A150330F3000030F4000A168A11FC
:101430001B260A128A150A168A1114260A128A1500
:10144000D130F3000030F4000A168A111B260A126C
:101450008A150030F300F4000A168A119E270A123A
:101460008A157308F700770883120313C9000A1658
:101470008A110D26831203134908080083120313EF
:10148000C801C901730874040319772AC701C70A80
:10149000F41B562A01300310F30DF40DFF3E031D1B
:1014A0004B2A0130F7007708C707482A013003109C
:1014B000C80DC90DFF3E031D572A74087602031D8F
:1014C000632A73087502031C6C2A7308F5027408FA
:1014D000031CF603F602481401300310F40CF30C5D
:1014E000FF3E031D6D2A0130C702031D562A49081D
:1014F000F4004808F300080083120313CC01CD0167
:101500004C084707CA004808C9000318C90ACC1B81
:10151000C903831203134908CB004B08FF004A0894
:1015200084000A128A1500200A128A15003A03194B
:1015300008004C084707CA004808C9000318C90A30
:10154000CC1BC903831203134908CB004B08FF00CF
:101550004A0884000A128A1500200A128A150A1203
:101560008A15CB210A128A15013083120313CC0786
:101570000318CD0A0030CD07802AF7000A168A1119
:1015800006260A128A15D030F3000030F4000A163D
:101590008A111B260A128A150130F3000030F4006C
:1015A0000A168A111B260A128A157508831203135C
:1015B000C700C8014708F3004808F4000A168A115A
:1015C0001B260A128A15770883120313C700C80165
:1015D0004708F3004808F4000A168A111B260A126D
:1015E0008A15760883120313C700C8014708F30061
:1015F0004808F4000A168A111B260A128A150A16D0
:101600008A110D26080083120313C801F61F0F2B41
:10161000F509F609F50A0319F60AC801C80AF41F04
:10162000162BF309F409F30A0319F40A7308740476
:101630000319432BC701C70AF41B2A2B01300310DF
:10164000F30DF40DFF3E031D1F2B0130F70077084B
:10165000C7071C2B74087602031D302B7308750214
:10166000031C382B7308F5027408031CF603F602FA
:1016700001300310F40CF30CFF3E031D392B013035
:10168000C702031D2A2B480803194B2BF509F6093D
:10169000F50A0319F60A7608F4007508F300080045
:1016A00083120313C9004903031D792B77087F3E7A
:1016B000C7004708CC004C08C70004300310C70C13
:1016C000FF3E031D5E2B4708C8004808CA004C08AF
:1016D0000F39C7004708CB004A080A168A117F262F
:1016E0000A128A15831203134B080A168A117F26E1
:1016F000080002304906031D08007708BF3EC700F6
:101700004708CC004C08C70004300310C70CFF3E4C
:10171000031D852B4708C8004808CA004C080F392C
:10172000C7004708CB004A080A168A117F260A120A
:101730008A15831203134B080A168A117F260800A4
:10174000F500D12B8F30831603138F05F32B8316EF
:1017500003130F088F391038CA2B831603130F0891
:101760008F392038CA2B831603130F088F3930386E
:10177000CA2B831603130F088F394038CA2B8316E0
:1017800003130F088F395038CA2B831603130F0821
:101790008F3960388F00F32B7030831603138F045A
:1017A000F32B7508F300F4017408003A0319D92BE0
:1017B000CC2B7308003A0319A22B013A0319A72B6B
:1017C000033A0319AD2B013A0319B32B073A031956
:1017D000B92B013A0319BF2B033A0319C52B013A60
:1017E0000319CC2BCC2B0F14080083120313C80150
:1017F000F41F012CF309F409F30A0319F40AC801D0
:10180000C80AF61F0C2CF509F609F50A0319F60AA1
:101810000130F7007708C806C901CA0173087404CB
:101820000319432CC701C70AF41B222C01300310F3
:10183000F30DF40DFF3E031D172C0130F700770860
:10184000C707142C01300310C90DCA0DFF3E031D3C
:10185000232C74087602031D2F2C73087502031CB9
:10186000382C7308F5027408031CF603F6024914B9
:1018700001300310F40CF30CFF3E031D392C013032
:10188000C702031D222C480803194B2CC909CA0999
:10189000C90A0319CA0A4A08F4004908F3000800F3
:1018A00007300A128A15A0230A128A158316031715
:1018B000890188018316031386018501FF308800A2
:1018C00083120313860185010130831603138700F9
:1018D0008312031387018901FF30831603138900E4
:1018E00083120313B601BA01B901AF01B201B1010C
:1018F000B701B8018316031381120112811501117A
:101900008110011038308312031381000B118B16E4
:101910008B170A128A150B250A128A1500308312BA
:101920000313D8000030D7002530D6008030D50012
:101930000A128A1528270A128A1500308312031307
:10194000D7000130D6008630D500A030D4000A126E
:101950008A1593210800003083120313D20000304F
:10196000D1000030D0000030CF004A0849044804BC
:1019700047040319022DD301D30ACA1BCD2C013011
:10198000F3000310C70DC80DC90DCA0DF30BC12C10
:101990000130F3007308D307BD2C0130F3000310AE
:1019A000CF0DD00DD10DD20DF30BCF2C4A084E0226
:1019B000031DE42C49084D02031DE42C48084C0289
:1019C000031DE42C47084B02031CF52C4708CB02EF
:1019D0004808031C480FCC024908031C490FCD02DC
:1019E0004A08031C4A0FCE024F1401300310CA0CE0
:1019F000C90CC80CC70CFF3E031DF62C0130D302E6
:101A0000031DCD2C5208CA005108C9005008C80057
:101A10004F08C700080000300A168A1165260A120E
:101A20008A15343083120313C800F130C700C70B86
:101A3000172DC80B172D03300A168A117F260A129C
:101A40008A150D3083120313C800FB30C700C70B83
:101A5000272DC80B272D03300A168A117F260A125C
:101A60008A151D3083120313C8009030C700C70BBE
:101A7000372DC80B372D000003300A168A117F2638
:101A80000A128A1502300A168A117F260A128A154E
:101A900002300A168A117F260A128A1508300A16A1
:101AA0008A117F260A128A1500300A168A117F26AB
:101AB0000A128A150C300A168A117F260A128A1514
:101AC00000300A168A117F260A128A1506300A1675
:101AD0008A117F26080083120313CD000A168A118B
:101AE00006260A128A15D030F3000030F4000A16D8
:101AF0008A111B260A128A150130F3000030F40007
:101B00000A168A111B260A128A150A168A11142629
:101B10000A128A15D130F3000030F4000A168A1137
:101B20001B260A128A150130F3000030F4000A1651
:101B30008A119E270A128A15730883120313C9009B
:101B40004908CC000030F300F4000A168A119E27E1
:101B50000A128A15730883120313C9004908CB00BF
:101B60000A168A110D260A128A15831203134B08CE
:101B7000C90004300310C90CFF3E031DBA2D4908EB
:101B8000303ECA004D0884004A08831380004B0889
:101B90000F39303EC9004D0A8400490880003A30B0
:101BA000C9004D08023E8400490880004C08C90065
:101BB00004300310C90CFF3E031DD92D4908303EE7
:101BC000CA004D08033E84004A0880004C080F39C3
:101BD000303EC9004D08043E8400490880004D088D
:101BE000053E84008001080083120313D001CA1F40
:101BF000062EC709C809C909CA09C70A0319C80AAC
:101C00000319C90A0319CA0AD001D00ACE1F172E18
:101C1000CB09CC09CD09CE09CB0A0319CC0A03198B
:101C2000CD0A0319CE0A0130F3007308D006003044
:101C3000D4000030D3000030D2000030D1004A0878
:101C400049044804470403196C2ECF01CF0ACA1B6C
:101C5000372E0130F3000310C70DC80DC90DCA0D92
:101C6000F30B2B2E0130F3007308CF07272E013022
:101C7000F3000310D10DD20DD30DD40DF30B392E7B
:101C80004A084E02031D4E2E49084D02031D4E2EDA
:101C900048084C02031D4E2E47084B02031C5F2EC2
:101CA0004708CB024808031C480FCC024908031C14
:101CB000490FCD024A08031C4A0FCE0251140130CD
:101CC0000310CA0CC90CC80CC70CFF3E031D602EC4
:101CD0000130CF02031D372E500803197A2ED10987
:101CE000D209D309D409D10A0319D20A0319D30A94
:101CF0000319D40A5408CA005308C9005208C8007E
:101D00005108C700080083120313E6000A168A115F
:101D100006260A128A15D030F3000030F4000A16A5
:101D20008A111B260A128A151130F3000030F400C4
:101D30000A168A111B260A128A150A168A111426F7
:101D40000A128A15D130F3000030F4000A168A1105
:101D50001B260A128A150130F3000030F4000A161F
:101D60008A119E270A128A15730883120313DF0053
:101D70005F08E5000030F300F4000A168A119E2780
:101D80000A128A15730883120313DF005F08E70045
:101D90000A168A110D260A128A1583120313650882
:101DA000FC3EDF005F08E5001930DF005F08F3004C
:101DB0006708E00006300310E00CFF3E031DDB2E39
:101DC00060080A168A1154260A128A158312031310
:101DD000E1006108E7006030D0008930D10065087B
:101DE000DF00E0015F08D2006008D30066080A1235
:101DF0008A1104270A128A15831203136708031D28
:101E0000052F5A30D0008930082F5F30D00089303C
:101E1000D1006708DF00E0015F08D2006008D3004E
:101E200062300A128A1104270A128A15623083125C
:101E30000313DF005F08F30066080A168A117A2789
:101E4000831203136608053E840083138001080093
:101E5000831203135508D9005608DA005708DB002F
:101E60005808DC0006300310D90DDA0DDB0DDC0D4F
:101E7000FF3E031D332F5C08CA005B08C9005A08E7
:101E8000C8005908C7005508DD005608DE0057088D
:101E9000DF005808E00006300310DD0DDE0DDF0D19
:101EA000E00DFF3E031D4C2F0030E1001230E20038
:101EB0007A30E3000030E4005D08E1025E08031CB4
:101EC0005E0F632F642FE2025F08031C5F0F692F10
:101ED0006A2FE3026008031C600F6F2F702FE4026B
:101EE0006408CE006308CD006208CC006108CB0016
:101EF0000A128A15F4250A128A1583120313480858
:101F0000F5004708F400013075020030031974022F
:101F1000031CE62F5508D9005608DA005708DB00E5
:101F20005808DC0004300310D90DDA0DDB0DDC0D90
:101F3000FF3E031D932F5C08CA005B08C9005A08C6
:101F4000C8005908C7005508DD005608DE005708CC
:101F5000DF005808E00004300310DD0DDE0DDF0D5A
:101F6000E00DFF3E031DAC2F0030E1001230E20017
:101F70007A30E3000030E4005D08E1025E08031CF3
:101F80005E0FC32FC42FE2025F08031C5F0FC92F2F
:101F9000CA2FE3026008031C600FCF2FD02FE4028A
:101FA0006408CE006308CD006208CC006108CB0055
:101FB0000A128A15F4250A128A1583120313480897
:101FC000F5004708F4008316031318150130750255
:101FD00000300319740203180800740883160313F1
:101FE0009900181283120313981783160313871787
:101FF0000717831203131816831603139816080085
:102BF60001340534013400340334003083160313E2
:102C06009818013008000A168A112B26831603131A
:102C1600111408000A168A112B26831603131115A0
:102C260008000A168A112B2683160313911408002E
:102C36000A168A112B2673088312031393000800C1
:102C460064008001840A0406031900340406242E55
:102C56008316031314192B2E11081F3903190800A4
:102C66002B2EF30083160313981C352E730883123C
:102C760003139900080000300A168A117F260A16E7
:102C86008A1101300A168A117F26080001300A16B9
:102C96008A117F260A168A1108300A168A117F269B
:102CA6000800F600F501761C5C2E7308F400740823
:102CB600F5070310F30D0310F60C7608031D562EC8
:102CC60075080800F300731C6C2E83120313061498
:102CD6006F2E831203130610F31C732E8614742EA4
:102CE6008610731D782E0615792E0611F31D7D2E7E
:102CF6008615080086110800F600831203130612D3
:102D060076080A168A1165260A168A118312031393
:102D160086160B30F5006230F400F40B902EF50B9E
:102D2600902E000083120313861208000A168A11D9
:102D360006260A168A112030F3000030F4000A161F
:102D46008A111B260A168A11F030F3000030F400AF
:102D56000A168A111B260A168A110A168A110D26C8
:102D660008000A168A1106260A168A112030F30070
:102D76000030F4000A168A111B260A168A11FF3043
:102D8600F3000030F4000A168A111B260A168A116F
:102D96000A168A110D2608000B1DE72E0130F000D9
:102DA600700883120313AD07C8302D020318E32EF3
:102DB6002C082D020318E12E8514E42E8510E42E2E
:102DC600AD01383081000B1172088A00710E830044
:102DD600FE0E7E0E09000A168A1106260A168A11AA
:102DE6003130F3000030F4000A168A111B260A1649
:102DF6008A110030F300F4000A168A119E270A167B
:102E06008A117308F700770883120313C9000A169C
:102E16008A110D2683120313490808000A168A111F
:102E260006260A168A114130F3000030F4000A160D
:102E36008A111B260A168A110030F300F4000A16BE
:102E46008A119E270A168A117308F70077088312DB
:102E56000313C9000A168A110D26831203134908A3
:102E660008000A168A1106260A168A111130F3007E
:102E76000030F4000A168A111B260A168A11003041
:102E8600F300F4000A168A119E270A168A1173089F
:102E9600F700770883120313C9000A168A110D2654
:102EA60083120313490808000A168A1106260A1611
:102EB6008A112130F3000030F4000A168A111B260D
:102EC6000A168A110030F300F4000A168A119E27AA
:102ED6000A168A117308F700770883120313C900CC
:102EE6000A168A110D268312031349080800F500F5
:102EF6007508F4007408F600760884008313000849
:102F06000319922F0130F4007408F6077F2F013061
:102F1600F4007408F6070130F4007408F307730828
:102F260084000008F4007608840074088000000815
:102F3600031908008A2F0A168A112B260A168A11E7
:102F46008316031391150A168A112B260A168A115F
:102F5600831203131308F500F6017508C7007608F7
:102F6600C8000A168A112B260A168A1173037404DE
:102F7600031DC12F831603139112C42F8316031347
:102F860091161116831203134808F4004708F3003C
:102F96000800831203134A084B040319FB2FCF01C1
:102FA600CF0ACB1BE22F01300310CA0DCB0DFF3E1B
:102FB600031DD72F0130CE004E08CF07D42F4B0864
:102FC6004D02031DE82F4A084C02031CF02F4A0845
:102FD600CC024B08031CCD03CD0201300310CB0CF1
:102FE600CA0CFF3E031DF12F0130CF02031DE22F55
:0A2FF6004D08CB004C08CA0008008B
:04400E00F4E0FFFFDC
:00000001FF
