:020000040000FA
:100000000A128A11F52FFF1B0D2883137F188317FF
:100010000008840A0319FF0A080000308A00040857
:10002000840A82070034013400340A340034643412
:100030000034E83403341034273444346F346F34DC
:10004000723420344F34503445344E34203420340C
:10005000003444346F346F347234203443344C34BD
:100060004F34533445344434003454347234693496
:10007000703420344F344E342034003454347234CD
:100080006934703420344F344634463400345034AC
:100090004934523420344F344E34203400345034F8
:1000A0004934523420344F344634463400343234E8
:1000B00033342E343534303400342E342534643423
:0C00C000303400342E3425346434003415
:1000D8000A128A15B5260A128A1183160313911576
:1000E8000A128A15B5260A128A11831203131308F5
:1000F800F200F3017208F4007308F5000A128A1579
:10010800B5260A128A1170037104031D8F288316FD
:10011800031391129228831603139116111675086A
:10012800F1007408F0000800780879040319C5285C
:10013800FD01FD0AF91BAC2801300310F80DF90D7B
:10014800FF3E031DA1280130FC007C08FD079E2806
:1001580079087B02031DB22878087A02031CBA28A2
:100168007808FA027908031CFB03FB02013003102C
:10017800F90CF80CFF3E031DBB280130FD02031DDE
:10018800AC287B08F9007A08F800080028308312A8
:100198000313940083160313910183120313200899
:1001A800A4002108A5002208A6002308A700023001
:1001B8000310A40DA50DA60DA70DFF3E031DDC28F9
:1001C8002708F3002608F2002508F1002408F000AB
:1001D8000030F7007A30F6001230F5000030F400F5
:1001E8000A128A11E7227008FF3E83160313930050
:1001F8009401871507160800F40074080F39F100F8
:100208007108F2007408F039F1007108F3008312E4
:10021800031306167308F10004300310F10CFF3EB7
:10022800031D112971080A128A15E4260A128A1177
:100238008312031386161A30F100F10B21290000EE
:1002480083120313861272080A128A15E4260A1208
:100258008A118312031386161A30F100F10B322922
:100268000000831203138612080007300A128A114D
:1002780037220A128A118316031789018801831607
:10028800031386018501831203138601850101305A
:100298008316031387008312031387010A128A1136
:1002A8008C220A128A11003083120313A90000302D
:1002B800A8002530A7008030A6000A128A11F82469
:1002C8000A128A11003083120313A3000130A2001E
:1002D8008630A100A030A0000A128A11CA200800A6
:1002E800F501F601700871040319AB29F701F70A43
:1002F800F11B8A2901300310F00DF10DFF3E031D9B
:100308007F290130F4007408F7077C2901300310B5
:10031800F50DF60DFF3E031D8B2971087302031DB1
:10032800972970087202031CA0297008F20271084C
:10033800031CF303F302751401300310F10CF00CE5
:10034800FF3E031DA1290130F702031D8A29760803
:10035800F1007508F0000800FA01FB017A0875073A
:10036800F8007608F7000318F70AFA1BF70377086E
:10037800F900790883120313FF00780884000A1231
:100388008A1103200A128A11003A031908007A0810
:100398007507F8007608F7000318F70AFA1BF70341
:1003A8007708F900790883120313FF00780884009E
:1003B8000A128A1103200A128A110A128A110021CC
:1003C8000A128A110130FA070318FB0A0030FB07EA
:1003D800B229F7007703031D122A74087F3EF5003F
:1003E8007508FA007A08F50004300310F50CFF3E92
:1003F800031DF9297508F6007608F8007A080F3900
:10040800F5007508F90078080A128A15FE260A12FE
:100418008A1179080A128A15FE2608000230770622
:10042800031D08007408BF3EF5007508FA007A0835
:10043800F50004300310F50CFF3E031D1E2A750855
:10044800F6007608F8007A080F39F5007508F90003
:1004580078080A128A15FE260A128A1179080A12E1
:100468008A15FE260800F200682A8F3083160313C7
:100478008F058A2A831603130F088F391038612ACB
:10048800831603130F088F392038612A8316031344
:100498000F088F393038612A831603130F088F39F4
:1004A8004038612A831603130F088F395038612AA0
:1004B800831603130F088F3960388F008A2A70302B
:1004C800831603138F048A2A7208F000F101710859
:1004D800003A0319702A632A7008003A0319392A66
:1004E800013A03193E2A033A0319442A013A031927
:1004F8004A2A073A0319502A013A0319562A033A95
:1005080003195C2A013A0319632A632A0F140800A5
:1005180000300A128A15E4260A128A113430F500CE
:10052800F130F400F40B962AF50B962A9B2A033037
:100538000A128A15FE260A128A110D30F500FB30C0
:10054800F400F40BA52AF50BA52AAA2A03300A12EF
:100558008A15FE260A128A111D30F5009130F40022
:10056800F40BB42AF50BB42A03300A128A15FE26B6
:100578000A128A1102300A128A15FE260A128A11F4
:1005880002300A128A15FE260A128A1108300A1247
:100598008A15FE260A128A1100300A128A15FE26CA
:1005A8000A128A110C300A128A15FE260A128A11BA
:1005B80000300A128A15FE260A128A1106300A121B
:1005C8008A15FE2608000030FC000030FB000030D1
:1005D800FA000030F90073087204710470040319FA
:1005E8003C2BFD01FD0AF31B072B0130F80003101B
:1005F800F00DF10DF20DF30DF80BFB2A0130F800A8
:100608007808FD07F72A0130F8000310F90DFA0DF4
:10061800FB0DFC0DF80B092B73087702031D1E2B2D
:1006280072087602031D1E2B71087502031D1E2B0E
:1006380070087402031C2F2B7008F4027108031C45
:10064800710FF5027208031C720FF6027308031C7F
:10065800730FF702791401300310F30CF20CF10C4C
:10066800F00CFF3E031D302B0130FD02031D072B4C
:100678007C08F3007B08F2007A08F1007908F000A2
:100688000800FA000A128A1590260A128A11D03038
:10069800F0000030F1000A128A15A5260A128A1104
:1006A8000130F0000030F1000A128A15A5260A125E
:1006B8008A110A128A159E260A128A11D130F00070
:1006C8000030F1000A128A15A5260A128A11013093
:1006D800F0000030F1000A128A116C200A128A1107
:1006E8007008F6007608F9000030F000F1000A12F0
:1006F8008A116C200A128A117008F6007608F80030
:100708000A128A1597260A128A117808F600043008
:100718000310F60CFF3E031D8C2B7608303EF700C5
:100728007A08840077088313800078080F39303EF0
:10073800F6007A0A8400760880003A30F6007A08D3
:10074800023E8400760880007908F6000430031021
:10075800F60CFF3E031DAB2B7608303EF7007A08F7
:10076800033E84007708800079080F39303EF60090
:100778007A08043E8400760880007A08053E8400E2
:100788008001080083120313A101F31FD82BF0097D
:10079800F109F209F309F00A0319F10A0319F20A37
:1007A8000319F30AA101A10AF71FE92BF409F509B6
:1007B800F609F709F40A0319F50A0319F60A0319E1
:1007C800F70A0130F8007808A1060030A5000030CB
:1007D800A4000030A3000030A20073087204710462
:1007E800700403193E2CA001A00AF31B092C013048
:1007F800F8000310F00DF10DF20DF30DF80BFD2BC1
:100808000130F8007808A007F92B0130F800031030
:10081800A20DA30DA40DA50DF80B0B2C73087702E0
:10082800031D202C72087602031D202C7108750206
:10083800031D202C70087402031C312C7008F4026C
:100848007108031C710FF5027208031C720FF6027F
:100858007308031C730FF702221401300310F30C02
:10086800F20CF10CF00CFF3E031D322C0130A002FB
:10087800031D092C210803194C2CA209A309A4095A
:10088800A509A20A0319A30A0319A40A0319A50AA8
:100898002508F3002408F2002308F1002208F000DC
:1008A800080083120313B4000A128A1590260A124C
:1008B8008A11D030F0000030F1000A128A15A526FE
:1008C8000A128A111130F0000030F1000A128A155C
:1008D800A5260A128A110A128A159E260A128A1158
:1008E800D130F0000030F1000A128A15A5260A124C
:1008F8008A110130F0000030F1000A128A116C20D0
:100908000A128A11700883120313AD002D08B30070
:100918000030F000F1000A128A116C200A128A11C4
:10092800700883120313AD002D08B5000A128A154A
:1009380097260A128A11831203133308FC3EAD006E
:100948002D08B3001930AD002D08F0003508AE00B1
:1009580006300310AE0CFF3E031DAD2C2E080A1204
:100968008A15D3260A128A1183120313AF002F089F
:10097800B5005130AD002D08A0003308AE00AF011E
:100988002E08A1002F08A20034080A128A11CE25C9
:100998000A128A11831203133508031DD52C4B3014
:1009A800D62C5030AD002D08A0003508AE00AF01A0
:1009B8002E08A1002F08A20030300A128A11CE2575
:1009C8000A128A11303083120313AD002D08F0008B
:1009D80034080A128A15B227831203133408053E15
:1009E8008400831380010800831203132608AA00D9
:1009F8002708AB002808AC002908AD000630031012
:100A0800AA0DAB0DAC0DAD0DFF3E031D032D2D083A
:100A1800F3002C08F2002B08F1002A08F000260841
:100A2800AE002708AF002808B0002908B10006303A
:100A38000310AE0DAF0DB00DB10DFF3E031D1C2D03
:100A48000030B2001230B3007A30B4000030B50084
:100A58002E08B2022F08031C2F0F332D342DB3029A
:100A68003008031C300F392D3A2DB4023108031C0D
:100A7800310F3F2D402DB5023508F7003408F60038
:100A88003308F5003208F4000A128A11C6230A1244
:100A98008A117108FA007008F90001307A020030F2
:100AA80003197902031CB42D831203132608AA0024
:100AB8002708AB002808AC002908AD000430031053
:100AC800AA0DAB0DAC0DAD0DFF3E031D632D2D081A
:100AD800F3002C08F2002B08F1002A08F000260881
:100AE800AE002708AF002808B0002908B10004307C
:100AF8000310AE0DAF0DB00DB10DFF3E031D7C2DE3
:100B08000030B2001230B3007A30B4000030B500C3
:100B18002E08B2022F08031C2F0F932D942DB30219
:100B28003008031C300F992D9A2DB4023108031C8C
:100B3800310F9F2DA02DB5023508F7003408F600B7
:100B48003308F5003208F4000A128A11C6230A1283
:100B58008A117108FA007008F90083160313181532
:100B680001307A0200300319790203180800790865
:100B78008316031399001812831203139817831608
:100B88000313871707178312031318168316031303
:100B98009816080083120313AB002130A300230822
:100BA800A6000130A007FF30200784000A128A112E
:100BB8000D200A128A11A3002308AC002C0803197F
:100BC800A12E25302C060319F52D2C08A3002B087F
:100BD80084002308831380000130A3002308AB0797
:100BE800D52DA7010130A007FF30200784000A1285
:100BF8008A110D200A128A11AC00A300A40124084E
:100C0800003A0319082ED52D2308003A0319A12EFE
:100C1800643A0319132E0D3A0319132ED52D2608FD
:100C2800840083130008A900840A0008AA0002307F
:100C3800A3002308A607AA1F2A2E0330A30023080F
:100C4800A704A909AA09A90A0319AA0AAC01AC0AA6
:100C58002C08A3002307013E84000A128A110D20E4
:100C68000A128A11A4000A128A110D200A128A1186
:100C7800A50025082A02031D432E24082902031C67
:100C88004D2E0130A3002308AC0705302C06031DA8
:100C98002C2E2708033903195C2E2D30A3002B08AE
:100CA80084002308831380000130A3002308AB07C6
:100CB8002C08A3002308A800FF30A3002308A807D6
:100CC800280A0319D52D0A30F8000030F900280841
:100CD800A3002307013E84000A128A110D200A127C
:100CE8008A11F0000A128A110D200A128A11F100E5
:100CF8002A08F3002908F2000A128A1174210A123C
:100D08008A117108FB007008FA000A128A119820EB
:100D18000A128A117808303E83120313A4002408AB
:100D2800AC002C08A3002B08840023088313800040
:100D38000130A3002308AB07602E2B08840083131F
:100D4800800108000A128A1139210A128A118312B5
:100D58000313B7010A128A15C8260A128A113C30F1
:100D68000A128A1155240A128A110A128A1574273E
:100D78000A128A1183120313B6003608BB000A123E
:100D88008A1593270A128A1183120313B6003608AC
:100D9800BA000A128A1555270A128A1183120313F8
:100DA800B6003608B9000A128A1536270A128A11BF
:100DB80083120313B6003608B80042300A128A11AB
:100DC80045230A128A113C300A128A1518270A127A
:100DD8008A1142300A128A1518270A128A118312B8
:100DE80003133B080A128A15BE260A128A118312B7
:100DF80003133A080A128A15BE260A128A118312A8
:100E0800031339080A128A15BE260A128A11831298
:100E1800031338080A128A15BE260A128A114130AD
:100E28000A128A15BE260A128A1145308312031344
:100E3800B6003608F0003C300A128A15D6270A1286
:100E48008A117108803AFF0080307F02031D2E2F1F
:100E580001307002031C342F831203130514372F3B
:100E6800831203130510071C4A2F0130B6003608F9
:100E7800B707033037020318B7010A128A15C826C4
:100E88000A128A11831203130718462F3708031D05
:100E98007C2FF401F40A01300A128A11ED210A129A
:100EA8008A114230F5000030F6000A128A11B0218A
:100EB8000A128A11F401F40A02300A128A11ED2189
:100EC8000A128A113C30F5000030F6000A128A1125
:100ED800B0210A128A11DF300A128A1100210A127F
:100EE8008A1143300A128A1100210A128A11B32E7C
:100EF8003703031DB82FF401F40A01300A128A11CE
:100F0800ED210A128A11831203133B03031D8E2F4E
:100F18000B308F2F1730F5008030F6000A128A1137
:100F2800B0210A128A11F401F40A02300A128A1155
:100F3800ED210A128A11831203133A03031DAE2FFF
:100F48002330F5008030F6000A128A11B0210A1207
:100F58008A11B32E2C30F5008030F6000A128A115F
:100F6800B0210A128A11B32E02303706031DB32EA0
:100F7800F401F40A01300A128A11ED210A128A11C9
:100F8800831203133903031DCB2F3530CC2F3D308B
:100F9800F5008030F6000A128A11B0210A128A116F
:100FA800F401F40A02300A128A11ED210A128A1198
:100FB800831203133803031DEB2F3630F5008030FE
:100FC800F6000A128A11B0210A128A11B32E3E3095
:100FD800F5008030F6000A128A11B0210A128A112F
:100FE800B32E83133730840048300A128A15AD2691
:080FF80083010A128A11A62EE2
:101D20000A128A15B52683160313111408000A1225
:101D30008A15B52683160313111508000A128A1591
:101D4000B52683160313911408000A128A15B526C6
:101D50007008831203139300080064008001840A52
:101D60000406031900340406AE2E83160313141957
:101D7000B52E11081F3903190800B52EF00083167F
:101D80000313981CBF2E70088312031399000800D8
:101D900000300A128A15FE260A128A1501300A122C
:101DA0008A15FE260800F300F201731CDB2E700872
:101DB000F1007108F2070310F00D0310F30C730823
:101DC000031DD52E72080800F000701CEB2E831244
:101DD00003130614EE2E831203130610F01CF22ECA
:101DE0008614F32E8610701DF72E0615F82E061198
:101DF000F01DFC2E8615080086110800F3008312E2
:101E00000313061273080A128A15E4260A128A15A9
:101E10008312031386160B30F2006230F100F10BCF
:101E20000F2FF20B0F2F00008312031386120800EE
:101E3000F400F201F30172087407F10071088400E4
:101E4000831300080319080072087407F100710871
:101E5000840000080A128A15BE260A128A1501306B
:101E6000F2070318F30A0030F3071B2F0A128A1532
:101E700090260A128A153130F0000030F1000A1263
:101E80008A15A5260A128A150030F000F1000A1200
:101E90008A116C200A128A157008F6007608F7007D
:101EA0000A128A159726770808000A128A159026C2
:101EB0000A128A154130F0000030F1000A128A152A
:101EC000A5260A128A150030F000F1000A128A11C4
:101ED0006C200A128A157008F6007608F7000A12BC
:101EE0008A159726770808000A128A1590260A1282
:101EF0008A151130F0000030F1000A128A15A5266B
:101F00000A128A150030F000F1000A128A116C20C2
:101F10000A128A157008F6007608F7000A128A1568
:101F20009726770808000A128A1590260A128A1541
:101F30002130F0000030F1000A128A15A5260A129D
:101F40008A150030F000F1000A128A116C200A1282
:101F50008A157008F6007608F7000A128A15972687
:101F600077080800F2007208F1007108F3007308A6
:101F70008400831300080319CA2F0130F10071088F
:101F8000F307B72F0130F1007108F3070130F100BA
:101F90007108F007700884000008F10073088400DD
:101FA00071088000000803190800C22FF600E52F11
:101FB0007608840000080319FA2F0130F200720835
:101FC000F6070130F2007208F007700884000A1268
:101FD0008A110D200A128A15F200760884008313F4
:101FE0000008F30072087302F4007408F500750825
:101FF0000319D82F7508F000F101F01BF103080058
:04400E00F4E0FFFFDC
:00000001FF
