:020000040000FA
:100000000A128A11F52FFF1B0D2883137F188317FF
:100010000008840A0319FF0A080000308A00040857
:10002000840A82070034013400340A340034643412
:100030000034E83403341034273444346F346F34DC
:10004000723420344F34503445344E34203420340C
:10005000003444346F346F347234203443344C34BD
:100060004F34533445344434003420342034203465
:1000700020342034203420342034203400344C34D4
:1000800055344E3445345334203420342034203415
:100090000034533441344234413444344F342034F6
:1000A0002034203400344D344134523454344534F7
:1000B000533420342034203400344A345534453409
:1000C00056344534533420342034203400344434FE
:1000D0004F344D3449344E3447344F342034203477
:1000E000003456344934453452344E344534533454
:1000F0002034203400344D344934453452344334B0
:100100004F344C34453453340034543472346934ED
:10011000703420344F344E3420340034543472342C
:100120006934703420344F3446344634003450340B
:100130004934523420344F344E3420340034503457
:100140004934523420344F34463446340034323447
:1001500033342E343534303400342E342534643482
:0C016000303400342E3425346434003474
:10016E00FA01FB017A087507F8007608F700031804
:10017E00F70AFA1BF7037708F900790883120313BD
:10018E00FF00780884000A128A1103200A128A11CD
:10019E00003A031908007A087507F8007608F70088
:1001AE000318F70AFA1BF7037708F9007908831288
:1001BE000313FF00780884000A128A1103200A1222
:1001CE008A110A128A1501270A128A110130FA07BA
:1001DE000318FB0A0030FB07B928F20025298F30DF
:1001EE00831603138F054729831603130F088F39C0
:1001FE0010381E29831603130F088F3920381E2935
:10020E00831603130F088F3930381E2983160313F4
:10021E000F088F3940381E29831603130F088F39A4
:10022E0050381E29831603130F088F3960388F003C
:10023E0047297030831603138F0447297208F00084
:10024E00F1017108003A03192D2920297008003A8E
:10025E000319F628013A0319FB28033A0319012959
:10026E00013A03190729073A03190D29013A03190F
:10027E001329033A03191929013A031920292029B0
:10028E000F14080000300A128A1539250A128A1135
:10029E003430F500F130F400F40B5329F50B5329EB
:1002AE00582903300A128A1553250A128A110D3065
:1002BE00F500FB30F400F40B6229F50B6229672977
:1002CE0003300A128A1553250A128A111D30F500C1
:1002DE009130F400F40B7129F50B712903300A12D9
:1002EE008A1553250A128A1102300A128A155325CD
:1002FE000A128A1102300A128A1553250A128A111D
:10030E0008300A128A1553250A128A1100300A1271
:10031E008A1553250A128A110C300A128A15532592
:10032E000A128A1100300A128A1553250A128A11EE
:10033E0006300A128A15532508000030FC000030E2
:10034E00FB000030FA000030F900730872047104EB
:10035E0070040319F929FD01FD0AF31BC4290130AC
:10036E00F8000310F00DF10DF20DF30DF80BB82996
:10037E000130F8007808FD07B4290130F8000310A9
:10038E00F90DFA0DFB0DFC0DF80BC629730877025B
:10039E00031DDB2972087602031DDB297108750225
:1003AE00031DDB2970087402031CEC297008F4028B
:1003BE007108031C710FF5027208031C720FF6020E
:1003CE007308031C730FF702791401300310F30C3A
:1003DE00F20CF10CF00CFF3E031DED290130FD0275
:1003EE00031DC4297C08F3007B08F2007A08F10093
:1003FE007908F0000800FA000A128A15E5240A129C
:10040E008A11D030F0000030F1000A128A15FA2459
:10041E000A128A110130F0000030F1000A128A151A
:10042E00FA240A128A110A128A15F3240A128A1160
:10043E00D130F0000030F1000A128A15FA240A12A7
:10044E008A110130F0000030F1000A128A153726A9
:10045E000A128A117008F6007608F9000030F000D2
:10046E00F1000A128A1537260A128A117008F60050
:10047E007608F8000A128A15EC240A128A117808F6
:10048E00F60004300310F60CFF3E031D492A7608D1
:10049E00303EF7007A0884007708831380007808CE
:1004AE000F39303EF6007A0A8400760880003A3022
:1004BE00F6007A08023E8400760880007908F6007D
:1004CE0004300310F60CFF3E031D682A7608303EFA
:1004DE00F7007A08033E84007708800079080F3908
:1004EE00303EF6007A08043E8400760880007A08D2
:1004FE00053E84008001080083120313A101F31F3F
:10050E00952AF009F109F209F309F00A0319F10A23
:10051E000319F20A0319F30AA101A10AF71FA62A69
:10052E00F409F509F609F709F40A0319F50A03198E
:10053E00F60A0319F70A0130F8007808A106003010
:10054E00A5000030A4000030A3000030A200730804
:10055E007204710470040319FB2AA001A00AF31B94
:10056E00C62A0130F8000310F00DF10DF20DF30D57
:10057E00F80BBA2A0130F8007808A007B62A013025
:10058E00F8000310A20DA30DA40DA50DF80BC82A9B
:10059E0073087702031DDD2A72087602031DDD2A19
:1005AE0071087502031DDD2A70087402031CEE2A01
:1005BE007008F4027108031C710FF5027208031C17
:1005CE00720FF6027308031C730FF7022214013028
:1005DE000310F30CF20CF10CF00CFF3E031DEF2A8E
:1005EE000130A002031DC62A21080319092BA209F6
:1005FE00A309A409A509A20A0319A30A0319A40AA7
:10060E000319A50A2508F3002408F2002308F100B7
:10061E002208F000080083120313B4000A128A1590
:10062E00E5240A128A11D030F0000030F1000A12CF
:10063E008A15FA240A128A111130F0000030F100E6
:10064E000A128A15FA240A128A110A128A15F3243A
:10065E000A128A11D130F0000030F1000A128A1508
:10066E00FA240A128A110130F0000030F1000A1249
:10067E008A1537260A128A11700883120313AD00E9
:10068E002D08B3000030F000F1000A128A1537264B
:10069E000A128A11700883120313AD002D08B500DB
:1006AE000A128A15EC240A128A11831203133308D4
:1006BE00FC3EAD002D08B3001930AD002D08F00042
:1006CE003508AE0006300310AE0CFF3E031D6A2B3C
:1006DE002E080A128A1528250A128A11831203136C
:1006EE00AF002F08B500A130AD002D08A0003308D3
:1006FE00AE00AF012E08A1002F08A20034080A1286
:10070E008A118B240A128A11831203133508031DD2
:10071E00922B9B30932BA030AD002D08A0003508F6
:10072E00AE00AF012E08A1002F08A20030300A1231
:10073E008A118B240A128A11303083120313AD00F2
:10074E002D08F00034080A128A15E92583120313C6
:10075E003408053E840083138001080083120313BE
:10076E002608AA002708AB002808AC002908AD000F
:10077E0006300310AA0DAB0DAC0DAD0DFF3E031DE3
:10078E00C02B2D08F3002C08F2002B08F1002A08CC
:10079E00F0002608AE002708AF002808B000290890
:1007AE00B10006300310AE0DAF0DB00DB10DFF3E12
:1007BE00031DD92B0030B2001230B3007A30B400D2
:1007CE000030B5002E08B2022F08031C2F0FF02B9D
:1007DE00F12BB3023008031C300FF62BF72BB402AB
:1007EE003108031C310FFC2BFD2BB5023508F70029
:1007FE003408F6003308F5003208F4000A128A11A4
:10080E0083220A128A117108FA007008F900013069
:10081E007A02003003197902031C712C8312031320
:10082E002608AA002708AB002808AC002908AD004E
:10083E0004300310AA0DAB0DAC0DAD0DFF3E031D24
:10084E00202C2D08F3002C08F2002B08F1002A08AA
:10085E00F0002608AE002708AF002808B0002908CF
:10086E00B10004300310AE0DAF0DB00DB10DFF3E53
:10087E00031D392C0030B2001230B3007A30B400B0
:10088E000030B5002E08B2022F08031C2F0F502C7B
:10089E00512CB3023008031C300F562C572CB402C7
:1008AE003108031C310F5C2C5D2CB5023508F700A6
:1008BE003408F6003308F5003208F4000A128A11E3
:1008CE0083220A128A117108FA007008F900831641
:1008DE000313181501307A02003003197902031838
:1008EE000800790883160313990018128312031354
:1008FE0098178316031387170717831203131816F7
:10090E00831603139816080083120313AB002130CD
:10091E00A3002308A6000130A007FF3020078400A3
:10092E000A128A110D200A128A11A3002308AC00A4
:10093E002C0803195E2D25302C060319B22C2C0819
:10094E00A3002B0884002308831380000130A3002A
:10095E002308AB07922CA7010130A007FF30200718
:10096E0084000A128A110D200A128A11AC00A3000B
:10097E00A4012408003A0319C52C922C2308003A2E
:10098E0003195E2D643A0319D02C0D3A0319D02C9D
:10099E00922C2608840083130008A900840A0008FC
:1009AE00AA000230A3002308A607AA1FE72C0330D3
:1009BE00A3002308A704A909AA09A90A0319AA0AC8
:1009CE00AC01AC0A2C08A3002307013E84000A12D6
:1009DE008A110D200A128A11A4000A128A110D2002
:1009EE000A128A11A50025082A02031D002D2408CB
:1009FE002902031C0A2D0130A3002308AC07053081
:100A0E002C06031DE92C270803390319192D2D3047
:100A1E00A3002B0884002308831380000130A30059
:100A2E002308AB072C08A3002308A800FF30A3005F
:100A3E002308A807280A0319922C0A30F800003060
:100A4E00F9002808A3002307013E84000A128A1128
:100A5E000D200A128A11F0000A128A110D200A12B4
:100A6E008A11F1002A08F3002908F2000A128A15E9
:100A7E003A270A128A117108FB007008FA000A124E
:100A8E008A1563260A128A117808303E83120313E0
:100A9E00A4002408AC002C08A3002B088400230813
:100AAE00831380000130A3002308AB071D2D2B08F4
:100ABE0084008313800108000A128A1576270A1211
:100ACE008A1183120313BD010A128A151D250A12FB
:100ADE008A11831203139813941642300A128A1144
:100AEE0012230A128A110A128A15AB250A128A11CA
:100AFE0083120313B6003608C1000A128A15CA25DE
:100B0E000A128A1183120313B6003608C0000A12A5
:100B1E008A158C250A128A1183120313B600360821
:100B2E00BF000A128A156D250A128A118312031349
:100B3E00B6003608BE0048300A128A1102220A1286
:100B4E008A110A128A1595260A128A118312031324
:100B5E00B6003608BB00941298170A128A15DF24C5
:100B6E000A128A11003A0319D22E83120313420875
:100B7E000A128A1513250A128A11033083120313DF
:100B8E00B7009730B600B60BCA2DB70BCA2D83121D
:100B9E00031343080A128A1513250A128A11033009
:100BAE0083120313B7009730B600B60BDC2DB70BCC
:100BBE00DC2D8312031344080A128A1513250A1218
:100BCE008A11033083120313B7009730B600B60BA9
:100BDE00EE2DB70BEE2D8312031345080A128A155C
:100BEE0013250A128A11033083120313B7009730AC
:100BFE00B600B60B002EB70B002E83120313460859
:100C0E000A128A1513250A128A110330831203134E
:100C1E00B7009730B600B60B122EB70B122E8312FA
:100C2E00031348080A128A1513250A128A11033073
:100C3E0083120313B7009730B600B60B242EB70BF2
:100C4E00242E8312031349080A128A1513250A1239
:100C5E008A11033083120313B7009730B600B60B18
:100C6E00362EB70B362E831203134A080A128A1534
:100C7E0013250A128A11033083120313B70097301B
:100C8E00B600B60B482EB70B482E831203134B0833
:100C9E000A128A1513250A128A11033083120313BE
:100CAE00B7009730B600B60B5A2EB70B5A2E8312DA
:100CBE0003134C080A128A1513250A128A110330DF
:100CCE0083120313B7009730B600B60B6C2EB70B1A
:100CDE006C2E8312031341080A128A1513250A1269
:100CEE008A11033083120313B7009730B600B60B88
:100CFE007E2EB70B7E2E8312031340080A128A151E
:100D0E0013250A128A11033083120313B70097308A
:100D1E00B600B60B902EB70B902E831203133F081E
:100D2E000A128A1513250A128A110330831203132D
:100D3E00B7009730B600B60BA22EB70BA22E8312B9
:100D4E0003133E080A128A1513250A128A1103305C
:100D5E0083120313B7009730B600B60BB42EB70B41
:100D6E00B42E41300A128A1513250A128A11D22E78
:100D7E002D30CE2E4130CE2E6930CE2E4B30CE2E93
:100D8E005F30CE2E3730CE2E5530CE2E2330B600DD
:100D9E003608BA00F32E831203133B08B600B701D0
:100DAE003708003A0319DC2ECD2E3608013A031906
:100DBE00BF2E033A0319C12E013A0319C32E073A67
:100DCE000319C52E013A0319C72E033A0319C92E6A
:100DDE00013A0319CB2ECD2E9530B6003608F00011
:100DEE0042300A128A150D260A128A117108803AAB
:100DFE00FF0080307F02031D062F01307002031C9E
:100E0E000C2F8312031305140F2F831203130510D7
:100E1E00071C302F3808031D312F0130B60036085D
:100E2E00BD070A128A151D250A128A110330831274
:100E3E0003133D020318BD013230390203182C2F63
:100E4E000130B6003608B907232FB901B801B80A28
:100E5E00312FB8013D08031D7C2FF401F40A013037
:100E6E000A128A15B6270A128A114830F500003088
:100E7E00F6000A128A11B7200A128A11073083125D
:100E8E000313B6003608F40001300A128A15B6278D
:100E9E000A128A11831203133A08F5000030031D5B
:100EAE008030F6000A128A11B7200A128A11F40154
:100EBE00F40A02300A128A15B6270A128A11423033
:100ECE00F5000030F6000A128A11B7200A128A11B4
:100EDE00DF300A128A1501270A128A1143300A12CC
:100EEE008A1501270A128A11702D3D03031DB82F92
:100EFE00F401F40A01300A128A15B6270A128A1171
:100F0E00831203134103031D8E2F0B308F2F1730C7
:100F1E00F5008030F6000A128A11B7200A128A11E3
:100F2E00F401F40A02300A128A15B6270A128A113F
:100F3E00831203134003031DAE2F7330F500803070
:100F4E00F6000A128A11B7200A128A11702D7C300F
:100F5E00F5008030F6000A128A11B7200A128A11A3
:100F6E00702D02303D06031D702DF401F40A013080
:100F7E000A128A15B6270A128A11831203133F0327
:100F8E00031DCB2F8530CC2F8D30F5008030F60031
:100F9E000A128A11B7200A128A11F401F40A0230D9
:100FAE000A128A15B6270A128A11831203133E03F8
:100FBE00031DEB2F8630F5008030F6000A128A11E1
:100FCE00B7200A128A11702D8E30F5008030F6008F
:100FDE000A128A11B7200A128A11702D8313383023
:100FEE0084004E300A128A15022583010A128A11D4
:020FFE00632D61
:1019BE000030831603139818013008000A128A1596
:1019CE000A2583160313111408000A128A150A2514
:1019DE0083160313111508000A128A150A25831699
:1019EE000313911408000A128A150A25700883122F
:1019FE0003139300080064008001840A040603198F
:101A0E0000340406032D8316031314190A2D11082E
:101A1E001F39031908000A2DF00083160313981CB2
:101A2E00142D7008831203139900080000300A1257
:101A3E008A1553250A128A1501300A128A15532562
:101A4E000800F300F201731C302D7008F1007108CC
:101A5E00F2070310F00D0310F30C7308031D2A2D6B
:101A6E0072080800F000701C402D83120313061438
:101A7E00432D831203130610F01C472D8614482D98
:101A8E008610701D4C2D06154D2D0611F01D512D75
:101A9E008615080086110800F30083120313061240
:101AAE0073080A128A1539250A128A15831203132E
:101ABE0086160B30F2006230F100F10B642DF20B42
:101ACE00642D000083120313861208000A128A1571
:101ADE00E5240A128A153130F0000030F1000A12A6
:101AEE008A15FA240A128A150030F000F1000A1243
:101AFE008A1537260A128A157008F6007608F7003E
:101B0E000A128A15EC24770808000A128A15E524B1
:101B1E000A128A154130F0000030F1000A128A15BF
:101B2E00FA240A128A150030F000F1000A128A1502
:101B3E0037260A128A157008F6007608F7000A1280
:101B4E008A15EC24770808000A128A15E5240A1271
:101B5E008A151130F0000030F1000A128A15FA24AD
:101B6E000A128A150030F000F1000A128A15372683
:101B7E000A128A157008F6007608F7000A128A15FE
:101B8E00EC24770808000A128A15E5240A128A1531
:101B9E002130F0000030F1000A128A15FA240A12E0
:101BAE008A150030F000F1000A128A1537260A1243
:101BBE008A157008F6007608F7000A128A15EC24CA
:101BCE0077080800F2007208F1007108F30073083C
:101BDE008400831300080319012E0130F1007108EF
:101BEE00F307EE2D0130F1007108F3070130F1001B
:101BFE007108F007700884000008F1007308840073
:101C0E0071088000000803190800F92DF6001C2E3B
:101C1E007608840000080319312E0130F200720894
:101C2E00F6070130F2007208F007700884000A12FD
:101C3E008A110D200A128A15F20076088400831389
:101C4E000008F30072087302F4007408F5007508BA
:101C5E0003190F2E7508F000F101F01BF1030800B7
:101C6E000A128A150A250A128A158316031391156C
:101C7E000A128A150A250A128A15831203131308EB
:101C8E00F200F3017208F4007308F5000A128A15C7
:101C9E000A250A128A1570037104031D5A2E831623
:101CAE00031391125D2E83160313911611167508E8
:101CBE00F1007408F0000800780879040319902EDA
:101CCE00FD01FD0AF91B772E01300310F80DF90DF9
:101CDE00FF3E031D6C2E0130FC007C08FD07692EB3
:101CEE0079087B02031D7D2E78087A02031C852E4F
:101CFE007808FA027908031CFB03FB02013003107B
:101D0E00F90CF80CFF3E031D862E0130FD02031D5B
:101D1E00772E7B08F9007A08F80008000A128A1557
:101D2E00E5240A128A15D030F0000030F1000A12B4
:101D3E008A15FA240A128A150330F0000030F100D9
:101D4E000A128A15FA240A128A150A128A15F3241F
:101D5E000A128A15D130F0000030F1000A128A15ED
:101D6E00FA240A128A150030F000F1000A128A15C0
:101D7E0037260A128A157008F6007608F7000A123E
:101D8E008A15EC2477080800283083120313940078
:101D9E00831603139101831203132008A400210854
:101DAE00A5002208A6002308A70002300310A40DE8
:101DBE00A50DA60DA70DFF3E031DDD2E2708F30072
:101DCE002608F2002508F1002408F0000030F70084
:101DDE007A30F6001230F5000030F4000A128A1143
:101DEE00A4217008FF3E83160313930094018715F8
:101DFE0007160800F40074080F39F1007108F2009C
:101E0E007408F039F1007108F300831203130616FB
:101E1E007308F10004300310F10CFF3E031D122F66
:101E2E0071080A128A1539250A128A1583120313AC
:101E3E0086161A30F100F10B222F000083120313C5
:101E4E00861272080A128A1539250A128A15831209
:101E5E00031386161A30F100F10B332F0000831294
:101E6E00031386120800F501F601700871040319B8
:101E7E00712FF701F70AF11B502F01300310F00DEF
:101E8E00F10DFF3E031D452F0130F4007408F707D6
:101E9E00422F01300310F50DF60DFF3E031D512F9D
:101EAE0071087302031D5D2F70087202031C662FEA
:101EBE007008F2027108031CF303F302751401306B
:101ECE000310F10CF00CFF3E031D672F0130F702DB
:101EDE00031D502F7608F1007508F000080007303A
:101EEE000A128A11F4200A128A1583160317890121
:101EFE00880183160313860185018801831203135B
:101F0E0086018501013083160313870083120313A4
:101F1E008701C101C001BE01BF010A128A11492108
:101F2E000A128A15003083120313A9000030A8008C
:101F3E002530A7008030A6000A128A11B5230A1296
:101F4E008A15003083120313A3000130A2008630DD
:101F5E00A100A030A0000A128A15CB260800F700B7
:101F6E007703031DDB2F74087F3EF5007508FA001A
:101F7E007A08F50004300310F50CFF3E031DC22F46
:101F8E007508F6007608F8007A080F39F50075081E
:101F9E00F90078080A128A1553250A128A1579084B
:101FAE000A128A155325080002307706031D080011
:101FBE007408BF3EF5007508FA007A08F500043083
:101FCE000310F50CFF3E031DE72F7508F60076088B
:101FDE00F8007A080F39F5007508F90078080A122A
:101FEE008A1553250A128A1579080A128A1553255D
:021FFE000800D9
:04400E00F4E0FFFFDC
:00000001FF
