:020000040000FA
:060000000A128A110C280F
:10000800FE00030EF1000A08F2000A168A11F72E04
:100018000A128A110F280A168A113C260A128A1116
:10002800E8000A168A113D260A128A11E9000A1602
:100038008A113E260A128A11EA000A168A113F26F8
:100048000A128A11EB000A168A1140260A128A112E
:10005800EC0083132030840047300A168A11642686
:10006800F801F901FA0183010A128A113B280A12E0
:100078008A1562230A128A11FA0183120313A9014D
:10008800A90A0A168A1176260A128A1183120313FC
:100098008513F701F70A01300A128A1562220A123B
:1000A8008A111C3083120313C7008730C8000A1254
:1000B8008A158E210A128A11F8010A168A118126D8
:1000C8000A128A11043083160313A2000C30A1000F
:1000D8003330A000A00B6E28A10B6E28A20B6E284F
:1000E800013083160313A0002008F80710307802A7
:1000F800031C6128F8010A168A118C260A128A1133
:10010800043083160313A2000C30A1003330A00082
:10011800A00B8C28A10B8C28A20B8C2801308316ED
:100128000313A0002008F80710307802031C7F286A
:100138000A168A1176260A128A11F701F70A01307F
:100148000A128A1562220A128A11163083120313C0
:10015800C7008830C8000A128A158E210A128A112F
:10016800F701F70A02300A128A1562220A128A1166
:100178008A3083120313C7008730C8000A128A1511
:100188008E210A128A11293083160313A200963091
:10019800A1007E30A000A00BCF28A10BCF28A20B76
:1001A800CF2800000A168A1176260A128A113B30D7
:1001B8000A128A1595250A128A110A168A115C27CD
:1001C8000A128A1183160313A0002008831203134E
:1001D800BA000A168A117F270A128A118316031396
:1001E800A000200883120313B9000A168A113927C0
:1001F8000A128A1183160313A0002008831203131E
:10020800B8000A168A1116270A128A1183160313D0
:10021800A000200883120313B70041300A128A1580
:100228007D240A128A110A128A1516210A128A11C5
:1002380083160313A0002008F9000A168A117F27E5
:100248000A128A1183160313A000200883120313CD
:10025800AE00881F6A2902302E06031D4E29330876
:10026800031D6C290A128A11E3260A128A118312C5
:100278000313B5013230350203184B2901308316B8
:100288000313A000200883120313B5073E29B30106
:10029800B30A6C2903302E06031D6C293308031D8D
:1002A8006C290A168A11DC260A128A118312031392
:1002B800B5013230350203184B2901308316031378
:1002C800A000200883120313B5075D29881FB30116
:1002D8002F08031D7C292903031D7C2939083804AC
:1002E800370483160313A000200883120313AF00FA
:1002F8002F03031D8D293208031D8F29B201B20A6D
:100308000A168A11DC260A128A11831203130517AA
:100318008F290513B2012903031DA229081FA1294A
:100328003108031DA2292F08031D9D29AF01AF0A1B
:100338009E29AF01B101B10AA229B10194129817FF
:100348000A168A1141260A128A11003A03195E2AEE
:10035800831203133B080A168A116C260A128A11A3
:10036800033083160313A1009730A000A00BBA290D
:10037800A10BBA29831203133C080A168A116C26AA
:100388000A128A11033083160313A1009730A000C4
:10039800A00BCC29A10BCC29831203133D080A1604
:1003A8008A116C260A128A11033083160313A100DE
:1003B8009730A000A00BDE29A10BDE2983120313BE
:1003C8003E080A168A116C260A128A11033083160F
:1003D8000313A1009730A000A00BF029A10BF0296E
:1003E800831203133F080A168A116C260A128A110F
:1003F800033083160313A1009730A000A00B022A34
:10040800A10B022A831203133A080A168A116C26D2
:100418000A128A11033083160313A1009730A00033
:10042800A00B142AA10B142A831203132F080A16EF
:100438008A116C260A128A11033083160313A1004D
:100448009730A000A00B262AA10B262A831203139B
:100458002E080A168A116C260A128A11033083168E
:100468000313A1009730A000A00B382AA10B382A4B
:100478008312031329080A168A116C260A128A1194
:10048800033083160313A1009730A000A00B4A2A5B
:10049800A10B4A2A41300A168A116C260A128A11BF
:1004A800033083160313A1009730A000A00B5A2A2B
:1004B800A10B5A2A83120313981394163A03031DA7
:1004C800672A08306B2A3A08031DA42A10308316BD
:1004D8000313A000200883120313AC00A42A95304C
:1004E80083120313A5008730A22AA93083120313AD
:1004F800A5008730A22AD13083120313A5008730C4
:10050800A22AB33083120313A5008730A22AC7306A
:1005180083120313A5008730A22A9F308312031386
:10052800A5008730A22ABD3083120313A5008730A7
:10053800A22A4F3083120313A5008730A600C52ACC
:10054800790883160313A000A1012108003A0319B2
:10055800AE2A9D2A2008013A0319732A033A03197F
:10056800792A013A03197F2A073A0319852A013A99
:1005780003198B2A033A0319912A013A0319972A76
:100588009D2A2F30F3008830F4003B300A168A1178
:10059800D0270A128A117408803AFF0080307F023F
:1005A800031DD82A01307302031CDE2A83120313A9
:1005B8000514E12A8312031305102930F30088304B
:1005C800F40041300A168A11D0270A128A117308DA
:1005D8007404031DF72A06307906031D0D2B073016
:1005E8007906031D0D2B2330F3008830F4004130C9
:1005F8000A168A11D0270A128A1173087404031D77
:10060800122B0630790603190D2B07307906031DC6
:10061800122B0A168A11DC260A128A118312031376
:10062800071C3F2B3408031D402B0130831603138E
:10063800A0002008FA0704307A060319F8010A1600
:100648008A1176260A128A1105307A020318FA01ED
:1006580083120313B5013230350203183C2B0130E5
:1006680083160313A000200883120313B5072F2B4A
:10067800B401B40A402BB4017A08031D8D2BF7018D
:10068800F70A01300A128A1562220A128A114130C9
:1006980083120313C7000030C8000A128A158E217E
:1006A8000A128A11073083160313A0002008F700E6
:1006B80001300A128A1562220A128A118312031360
:1006C8002508C7002608C8000A128A158E210A12B2
:1006D8008A11F701F70A02300A128A1562220A12F1
:1006E8008A113B3083120313C7000030C8000A1276
:1006F8008A158E210A128A11DF300A128A15DD2026
:100708000A128A1143300A128A15DD200A128A1148
:10071800DB287A03031DEA2BF701F70A01300A12D6
:100728008A1562220A128A11831203133A03031DDF
:10073800A12B6630C7008730A42B7230C7008730E2
:10074800C8000A128A158E210A128A11F701F70ABF
:1007580002300A128A1562220A128A1183120313BE
:100768003903031DBB2BE430C7008730BE2BF6309E
:10077800C7008730C8000A128A158E210A128A110A
:10078800093083160313A0002008F70002300A126C
:100798008A1562220A128A110330831203132E0665
:1007A800031DE02BDB30C7008730C8000A128A150A
:1007B8008E210A128A11DB28ED30C7008730C80065
:1007C8000A128A158E210A128A11DB2802307A064B
:1007D800031D292CF701F70A01300A128A15622233
:1007E8000A128A11831203133803031DFF2BFF30EB
:1007F800C7008730022C0730C7008830C8000A12AB
:100808008A158E210A128A11F701F70A02300A1294
:100818008A1562220A128A11831203133703031DF1
:100828001F2C0030C7008830C8000A128A158E2194
:100838000A128A11DB280830C7008830C8000A125B
:100848008A158E210A128A11DB2803307A06031DC5
:100858007F2DF701F70A01300A128A1562220A125F
:100868008A110F3083120313C7008830C8000A1298
:100878008A158E210A128A11413083120313C70088
:100888000030C8000A128A158E210A128A11F7014F
:10089800F70A02300A128A1562220A128A111D30DA
:1008A80083120313C7008830C8000A128A158E21E4
:1008B8000A128A11831203132508C7002608C800E4
:1008C8000A128A158E210A128A110A308316031316
:1008D800A0002008F3008312031341080A168A11A6
:1008E80097260A128A11831203134207F03E8316D1
:1008F8000313A100210883120313A8000A308316EA
:100908000313A0002008F3008312031344080A16F7
:100918008A1197260A128A11831203134507F03E9B
:1009280083160313A100210883120313A700081ECE
:10093800AB2C013083160313A00020088312031385
:10094800A80718302802031CE92CA801E92C881DE7
:10095800BB2C0130A802280A031DE92C1730831686
:100968000313A000200883120313A800E92C081D14
:10097800CB2C013083160313A00020088312031325
:10098800A7073C302702031CE92CA701E92C881C87
:10099800DB2C0130A702270A031DE92C3B30831604
:1009A8000313A000200883120313A700E92C081CD6
:1009B800F82C013083160313A0002008F90708302B
:1009C8007902031CE92CF901F90A02308316031392
:1009D800A2000430A100B930A000A00BF12CA10B9B
:1009E800F12CA20BF12CF82C0A30F3000030F400A3
:1009F80083120313280883160313A000A1012008FB
:100A0800F5002108F6000A128A1507230A128A112E
:100A1800730883160313A20004300310A20DFF3ECF
:100A2800031D112D0A30F3000030F4008312031364
:100A3800280883160313A300A4012308F50024083B
:100A4800F6000A128A1515220A128A1173088316EB
:100A580003132207A500250883120313AB000A30ED
:100A6800F3000030F400270883160313A000A10147
:100A78002008F5002108F6000A128A1507230A1231
:100A88008A11730883160313A20004300310A20D01
:100A9800FF3E031D4A2D0A30F3000030F400831294
:100AA8000313270883160313A300A4012308F500E2
:100AB8002408F6000A128A1515220A128A117308E8
:100AC800831603132207A500250883120313AA001F
:100AD8002A0883160313A0002008F5007908A1004E
:100AE8002108F600831203132B080A128A15CF2156
:100AF8000A128A11DB2804307A06031DDB28F70165
:100B0800F70A01300A128A1562220A128A113B304A
:100B180083120313C7008730C8000A128A158E2172
:100B28000A128A117808013E83160313A0002008D0
:100B3800F70002300A128A1562220A128A11053059
:100B4800780203185C2E83120313081CC42D300886
:100B5800031D5C2E7808203E840083138001013039
:100B680083160313A0002008F80783120313B001AB
:100B7800B00A2A300A128A15DD200A128A115C2E60
:100B8800881CE02D3008031D5C2E7808203E840068
:100B980083138001800A013083160313A000200804
:100BA800F80783120313B001B00A2A300A128A1513
:100BB800DD200A128A115C2E081DFE2D3008031D47
:100BC8005C2E023083160313A0007808203E8400B0
:100BD8002008831380000130A0002008F807831242
:100BE8000313B001B00A2A300A128A15DD200A124E
:100BF8008A115C2E881D1C2E3008031D5C2E0330C4
:100C080083160313A0007808203E8400200883136D
:100C180080000130A0002008F80783120313B001F8
:100C2800B00A2A300A128A15DD200A128A115C2EAF
:100C3800081E3A2E3008031D5C2E04308316031359
:100C4800A0007808203E840020088313800001302B
:100C5800A0002008F80783120313B001B00A2A3055
:100C68000A128A15DD200A128A115C2E881E582E57
:100C78003008031D5C2E053083160313A000780886
:100C8800203E84002008831380000130A000200843
:100C9800F80783120313B001B00A2A300A128A1522
:100CA800DD200A128A115C2E0808031D5C2EB00193
:100CB80083120313091CCC2E20086806031DB82EC6
:100CC80021086906031DB82E22086A06031DB82EDE
:100CD80023086B06031DB82E24086C06031DB82EC6
:100CE8002908031DA22EA901A90AF8010A168A11CA
:100CF80076260A128A11F701F70A01300A128A15B4
:100D080062220A128A117E3083120313C7008730C9
:100D1800C8000A128A158E210A128A111530831604
:100D28000313A2004B30A100BD30A000A00B9A2EE7
:100D3800A10B9A2EA20B9A2EA12EDB28A901F8014D
:100D4800AF010A168A1176260A128A11F701F70AE4
:100D580001300A128A1562220A128A115930831246
:100D68000313C70087308C2E0A168A1176260A12BA
:100D78008A11F801F701F70A01300A128A1562226E
:100D88000A128A11353083120313C70088308C2E5B
:100D9800891CDB28F701F70A02300A128A15622239
:100DA8000A128A114C3083120313C7008730C80017
:100DB8000A128A158E210A128A11F801DB280A16EE
:100DC8008A1147260A128A112030F3000030F400F5
:100DD8000A168A115C260A128A11FF30F3000030C5
:100DE800F4000A168A115C260A128A110A168A1158
:040DF8004E2608007B
:100E0000FF1B0A2F83137F1883170008840A031916
:100E1000FF0A08007F087F398A000408840A031942
:100E2000FF0A8200013400340A3400346434003490
:100E3000E83403341034273449346E34693463346D
:100E4000693461346E3464346F342034533469341B
:100E50007334743465346D346134203464346534EF
:100E600020345334653467347534723469346434EF
:100E7000613464340034503441345334533457347F
:100E80004F34523444343A34203420342034203423
:100E900020342034203400342034203420342034D2
:100EA00020342034203420342034203420342034A2
:100EB00000345334653463347534723469347434B3
:100EC000793420344F3446344634003444344F347B
:100ED0004F34523420344F34503445344E3420345F
:100EE0002034003444344F344F34523420344334AB
:100EF0004C344F3453344534443400345334653423
:100F000063347534723469347434793420344F3432
:100F10004E34003475346E3420344D346F346D34B7
:100F200065346E3474346F3400344C3455344E347C
:100F300045345334203420342034203400345334A6
:100F400041344234413444344F342034203420344A
:100F500000344D3441345234543445345334203405
:100F60002034203400344A34553445345634453422
:100F70005334203420342034003444344F344D343E
:100F800049344E3447344F342034203400345634FE
:100F90004934453452344E344534533420342034AB
:100FA00000344D3449344534523443344F344C3496
:100FB000453453340034423441344E344B342034BD
:100FC0004F344E3420340034543452344934503485
:100FD00020344F344E3420340034423441344E34C3
:100FE0004B3420344F344634463400345434523475
:100FF0004934503420344F3446344634003450346D
:101000004934523420344F344E3420340034503478
:101010004934523420344F34463446340034543446
:1010200049344D3445343A34203400344534733433
:101030007034653472346534003444344134593486
:101040003A3420340034323431343A3430343034A9
:101050000034323432343A343034303400343234C0
:1010600033342E34353430340034573452344F3422
:101070004E34473400342E34253464343034003454
:101080002E34253464340034831603131419442891
:1010900011081F39031908004428F5007508F400E9
:1010A0007408F60076088400831300080319652885
:1010B0000130F4007408F60752280130F400740877
:1010C000F6070130F4007408F30773088400000881
:1010D000F4007608840074088000000803190800F2
:1010E0005D28831203134A084B040319A028CF017B
:1010F000CF0ACB1B872801300310CA0DCB0DFF3E52
:10110000031D7C280130CE004E08CF0779284B08FC
:101110004D02031D8D284A084C02031C95284A08DD
:10112000CC024B08031CCD03CD0201300310CB0CC5
:10113000CA0CFF3E031D96280130CF02031D8728ED
:101140004D08CB004C08CA00080028308312031356
:101150009400831603139101831203135408F400BF
:101160005508F5005608F6005708F700023003103E
:10117000F40DF50DF60DF70DFF3E031DB7287708AA
:10118000CA007608C9007508C8007408C700003096
:10119000CE007A30CD001230CC000030CB000A12E5
:1011A0008A15BD23831203134708FF3E83160313DA
:1011B00093009401871507160800F70077080F3988
:1011C000F4007408F5007708F039F4007408F600AC
:1011D0008312031306167608F40004300310F40C8F
:1011E000FF3E031DEE2874080A168A11A8260A126B
:1011F0008A158312031386161A30F400F40BFE28A6
:10120000000083120313861275080A168A11A82695
:101210000A128A158312031386161A30F400F40B8F
:101220000F29000083120313861208000A168A1180
:1012300047260A128A15D030F3000030F4000A164F
:101240008A115C260A128A150330F3000030F4007C
:101250000A168A115C260A128A150A168A11552660
:101260000A128A15D130F3000030F4000A168A11F0
:101270005C260A128A150030F300F4000A168A115F
:10128000A2270A128A157308F7007708831203133E
:10129000C9000A168A114E26831203134908080052
:1012A00083120313C801C90173087404031989293F
:1012B000C701C70AF41B682901300310F30DF40DB0
:1012C000FF3E031D5D290130F7007708C7075A2943
:1012D00001300310C80DC90DFF3E031D69297408B4
:1012E0007602031D752973087502031C7E29730895
:1012F000F5027408031CF603F602481401300310CB
:10130000F40CF30CFF3E031D7F290130C702031DBF
:1013100068294908F4004808F30008008312031301
:10132000CC01CD014C084707CA004808C900031882
:10133000C90ACC1BC903831203134908CB004B080D
:10134000FF004A0884000A128A1100270A128A152F
:10135000003A031908004C084707CA004808C900AA
:101360000318C90ACC1BC903831203134908CB0015
:101370004B08FF004A0884000A128A1100270A124B
:101380008A150A128A15DD200A128A150130831285
:101390000313CC070318CD0A0030CD079229F700BC
:1013A0000A168A1147260A128A15D030F300003037
:1013B000F4000A168A115C260A128A150130F3001D
:1013C0000030F4000A168A115C260A128A15750884
:1013D00083120313C700C8014708F3004808F4004C
:1013E0000A168A115C260A128A15770883120313DB
:1013F000C700C8014708F3004808F4000A168A111C
:101400005C260A128A15760883120313C700C801E6
:101410004708F3004808F4000A168A115C260A12ED
:101420008A150A168A114E26080083120313C80172
:10143000F61F212AF509F609F50A0319F60AC8016B
:10144000C80AF41F282AF309F409F30A0319F40A55
:10145000730874040319552AC701C70AF41B3C2AF0
:1014600001300310F30DF40DFF3E031D312A01304E
:10147000F7007708C7072E2A74087602031D422A50
:1014800073087502031C4A2A7308F5027408031CCA
:10149000F603F60201300310F40CF30CFF3E031DBB
:1014A0004B2A0130C702031D3C2A480803195D2A54
:1014B000F509F609F50A0319F60A7608F400750825
:1014C000F300080083120313C9004903031D8B2A8C
:1014D00077087F3EC7004708CC004C08C70004309F
:1014E0000310C70CFF3E031D702A4708C8004808B8
:1014F000CA004C080F39C7004708CB004A080A1633
:101500008A11C2260A128A15831203134B080A167F
:101510008A11C226080002304906031D0800770818
:10152000BF3EC7004708CC004C08C700043003107A
:10153000C70CFF3E031D972A4708C8004808CA0089
:101540004C080F39C7004708CB004A080A168A1111
:10155000C2260A128A15831203134B080A168A112F
:10156000C2260800F500E32A8F30831603138F0587
:10157000052B831603130F088F391038DC2A8316C6
:1015800003130F088F392038DC2A831603130F0842
:101590008F393038DC2A831603130F088F3940380F
:1015A000DC2A831603130F088F395038DC2A831680
:1015B00003130F088F3960388F00052B70308316A6
:1015C00003138F04052B7508F300F4017408003A27
:1015D0000319EB2ADE2A7308003A0319B42A013AE8
:1015E0000319B92A033A0319BF2A013A0319C52A74
:1015F000073A0319CB2A013A0319D12A033A0319EE
:10160000D72A013A0319DE2ADE2A0F1408008312B2
:101610000313C801F41F132BF309F409F30A031988
:10162000F40AC801C80AF61F1E2BF509F609F50AC7
:101630000319F60A0130F7007708C806C901CA0184
:10164000730874040319552BC701C70AF41B342B04
:1016500001300310F30DF40DFF3E031D292B013063
:10166000F7007708C707262B01300310C90DCA0DF4
:10167000FF3E031D352B74087602031D412B7308B2
:101680007502031C4A2B7308F5027408031CF60349
:10169000F602491401300310F40CF30CFF3E031D55
:1016A0004B2B0130C702031D342B480803195D2B57
:1016B000C909CA09C90A0319CA0A4A08F40049082B
:1016C000F300080007300A128A15B2220A128A159E
:1016D0008316031789018801831603138601850188
:1016E000FF308800831203138601850101308316C1
:1016F000031387008312031387018901FF308316C8
:101700000313890083120313B601BA01B901AF01B3
:10171000B201B101B701B80183160313811201129E
:1017200081150111811001103830831203138100DB
:101730000B118B168B170A128A151D240A128A1593
:10174000003083120313D8000030D7002530D600B4
:101750008030D5000A128A153A260A128A150030FE
:1017600083120313D7000130D6008630D500A03095
:10177000D4000A128A15A520080000308312031332
:10178000D2000030D1000030D0000030CF004A0835
:101790004904480447040319142CD301D30ACA1B73
:1017A000DF2B0130F3000310C70DC80DC90DCA0DA2
:1017B000F30BD32B0130F3007308D307CF2B013089
:1017C000F3000310CF0DD00DD10DD20DF30BE12B93
:1017D0004A084E02031DF62B49084D02031DF62B45
:1017E00048084C02031DF62B47084B02031C072C2C
:1017F0004708CB024808031C480FCC024908031CC9
:10180000490FCD024A08031C4A0FCE024F14013083
:101810000310CA0CC90CC80CC70CFF3E031D082CD2
:101820000130D302031DDF2B5208CA005108C90042
:101830005008C8004F08C700080000300A168A1177
:10184000A8260A128A15343083120313C800F13017
:10185000C700C70B292CC80B292C03300A168A1184
:10186000C2260A128A150D3083120313C800FB30FA
:10187000C700C70B392CC80B392C03300A168A1144
:10188000C2260A128A151D3083120313C800903035
:10189000C700C70B492CC80B492C000003300A169F
:1018A0008A11C2260A128A1502300A168A11C22625
:1018B0000A128A1502300A168A11C2260A128A15DD
:1018C00008300A168A11C2260A128A1500300A1632
:1018D0008A11C2260A128A150C300A168A11C226EB
:1018E0000A128A1500300A168A11C2260A128A15AF
:1018F00006300A168A11C226080083120313CD008F
:101900000A168A1147260A128A15D030F3000030D1
:10191000F4000A168A115C260A128A150130F300B7
:101920000030F4000A168A115C260A128A150A167B
:101930008A1155260A128A15D130F3000030F400BE
:101940000A168A115C260A128A150130F30000304B
:10195000F4000A168A11A2270A128A157308831244
:101960000313C9004908CC000030F300F4000A1644
:101970008A11A2270A128A15730883120313C90059
:101980004908CB000A168A114E260A128A158312BC
:1019900003134B08C90004300310C90CFF3E031D9C
:1019A000CC2C4908303ECA004D0884004A088313F5
:1019B00080004B080F39303EC9004D0A84004908A9
:1019C00080003A30C9004D08023E8400490880007A
:1019D0004C08C90004300310C90CFF3E031DEB2C5A
:1019E0004908303ECA004D08033E84004A08800082
:1019F0004C080F39303EC9004D08043E84004908A8
:101A000080004D08053E8400800108008312031306
:101A1000D001CA1F182DC709C809C909CA09C70AB0
:101A20000319C80A0319C90A0319CA0AD001D00A3E
:101A3000CE1F292DCB09CC09CD09CE09CB0A03191C
:101A4000CC0A0319CD0A0319CE0A0130F30073083A
:101A5000D0060030D4000030D3000030D200003077
:101A6000D1004A0849044804470403197E2DCF01D8
:101A7000CF0ACA1B492D0130F3000310C70DC80D52
:101A8000C90DCA0DF30B3D2D0130F3007308CF07CC
:101A9000392D0130F3000310D10DD20DD30DD40D2B
:101AA000F30B4B2D4A084E02031D602D49084D02D1
:101AB000031D602D48084C02031D602D47084B0292
:101AC000031C712D4708CB024808031C480FCC02A9
:101AD0004908031C490FCD024A08031C4A0FCE02D5
:101AE000511401300310CA0CC90CC80CC70CFF3EBE
:101AF000031D722D0130CF02031D492D500803191B
:101B00008C2DD109D209D309D409D10A0319D20ADB
:101B10000319D30A0319D40A5408CA005308C90088
:101B20005208C8005108C700080083120313E600DA
:101B30000A168A1147260A128A15D030F30000309F
:101B4000F4000A168A115C260A128A151130F30075
:101B50000030F4000A168A115C260A128A150A1649
:101B60008A1155260A128A15D130F3000030F4008C
:101B70000A168A115C260A128A150130F300003019
:101B8000F4000A168A11A2270A128A157308831212
:101B90000313DF005F08E5000030F300F4000A16CD
:101BA0008A11A2270A128A15730883120313DF0011
:101BB0005F08E7000A168A114E260A128A15831258
:101BC00003136508FC3EDF005F08E5001930DF0005
:101BD0005F08F3006708E00006300310E00CFF3EEA
:101BE000031DED2D60080A168A1197260A128A1520
:101BF00083120313E1006108E7004130D000883010
:101C0000D1006508DF00E0015F08D2006008D30062
:101C100066080A128A1512270A128A1583120313FC
:101C20006708031D172E3B30D00088301A2E403035
:101C3000D0008830D1006708DF00E0015F08D200E3
:101C40006008D30062300A128A1512270A128A1518
:101C5000623083120313DF005F08F30066080A1284
:101C60008A154D20831203136608053E84008313F2
:101C700080010800831203135508D9005608DA00C2
:101C80005708DB005808DC0006300310D90DDA0DC8
:101C9000DB0DDC0DFF3E031D452E5C08CA005B0812
:101CA000C9005A08C8005908C7005508DD00560881
:101CB000DE005708DF005808E00006300310DD0D95
:101CC000DE0DDF0DE00DFF3E031D5E2E0030E10056
:101CD0001230E2007A30E3000030E4005D08E102F7
:101CE0005E08031C5E0F752E762EE2025F08031C51
:101CF0005F0F7B2E7C2EE3026008031C600F812E99
:101D0000822EE4026408CE006308CD006208CC0095
:101D10006108CB000A128A1506250A128A15831259
:101D200003134808F5004708F4000130750200303D
:101D300003197402031CF82E5508D9005608DA005E
:101D40005708DB005808DC0004300310D90DDA0D09
:101D5000DB0DDC0DFF3E031DA52E5C08CA005B08F1
:101D6000C9005A08C8005908C7005508DD005608C0
:101D7000DE005708DF005808E00004300310DD0DD6
:101D8000DE0DDF0DE00DFF3E031DBE2E0030E10035
:101D90001230E2007A30E3000030E4005D08E10236
:101DA0005E08031C5E0FD52ED62EE2025F08031CD0
:101DB0005F0FDB2EDC2EE3026008031C600FE12EB8
:101DC000E22EE4026408CE006308CD006208CC0075
:101DD0006108CB000A128A1506250A128A15831299
:101DE00003134808F5004708F40083160313181579
:101DF00001307502003003197402031808007408DA
:101E0000831603139900181283120313981783166D
:101E10000313871707178312031318168316031368
:101E20009816080083120313DD005230D4005408C2
:101E3000D8005108D5005008D400D00A0319D10A9F
:101E40005508FF00540884000A128A1100270A125C
:101E50008A15D6005608DE005E080319FB2F2530D0
:101E60005E0603193F2F5E08D4005D088400540805
:101E7000831380000130D4005408DD07192FD901E5
:101E80005108D5005008D400D00A0319D10A5508CA
:101E9000FF00540884000A128A1100270A128A15CA
:101EA000DE00D600D7015708003A0319582F192F22
:101EB0005608003A0319FB2F643A0319632F0D3AB1
:101EC0000319632F192F5808840083130008DB00BF
:101ED000840A0008DC000230D4005408D807DC1F54
:101EE0007A2F0330D4005408D904DB09DC09DB0A5B
:101EF0000319DC0ADE01DE0A5E08D4005407123E34
:101F0000840087300318013EFF000A128A1100275F
:101F10000A128A15D5000A128A1100270A128A1598
:101F2000D60056085C02031D972F55085B02031C60
:101F3000A12F0130D4005408DE0705305E06031DD2
:101F40007C2F590803390319B02F2D30D4005D08B8
:101F500084005408831380000130D4005408DD0746
:101F60005E08D4005408DA00FF30D4005408DA07C1
:101F70005A0A0319192F0A30CA000030CB005A0838
:101F8000D4005407123E840087300318013EFF003E
:101F90000A128A1100270A128A15F3000A128A11FE
:101FA00000270A128A15F4005C08F6005B08F500A9
:101FB0000A128A1550210A128A1574088312031313
:101FC000CD007308CC000A128A1571200A128A15F6
:101FD000831203134A08303ED5005508DE005E0820
:101FE000D4005D0884005408831380000130D400BD
:101FF0005408DD07B42F5D088400831380010800B6
:102C7800013405340134003403340030831603135F
:102C88009818013008000A128A1544208316031385
:102C9800111408000A128A1544208316031311150B
:102CA80008000A128A154420831603139114080099
:102CB8000A128A154420730883120313930008002C
:102CC80064008001840A0406031900340406652E92
:102CD800F30083160313981C6D2E730883120313D5
:102CE8009900080000300A168A11C2260A168A11AD
:102CF80001300A168A11C226080001300A168A1104
:102D0800C2260A168A1108300A168A11C226080035
:102D180001300A168A11C2260A168A110C300A16C0
:102D28008A11C2260800F600F501761C9F2E73084A
:102D3800F4007408F5070310F30D0310F60C760879
:102D4800031D992E75080800F300731CAF2E83121B
:102D580003130614B22E831203130610F31CB62EA7
:102D68008614B72E8610731DBB2E0615BC2E0611B1
:102D7800F31DC02E8615080086110800F600831280
:102D88000313061276080A168A11A8260A168A114B
:102D98008312031386160B30F5006230F400F40B2F
:102DA800D32EF50BD32E00008312031386120800CE
:102DB8000A168A1147260A168A112030F3000030B5
:102DC800F4000A168A115C260A168A11F030F300FC
:102DD8000030F4000A168A115C260A168A110A16AF
:102DE8008A114E2608000B1D0F2F0130F0007008C5
:102DF80083120313AD07C8302D0203180B2F2C08BC
:102E08002D020318092F85140C2F85100C2FAD01E6
:102E1800383081000B1172088A00710E8300FE0E93
:102E28007E0E09000A168A1147260A168A113130C1
:102E3800F3000030F4000A168A115C260A168A117B
:102E48000030F300F4000A168A11A2270A168A1124
:102E58007308F700770883120313C9000A168A114A
:102E68004E2683120313490808000A168A114726BA
:102E78000A168A114130F3000030F4000A168A114C
:102E88005C260A168A110030F300F4000A168A112B
:102E9800A2270A168A117308F7007708831203130A
:102EA800C9000A168A114E2683120313490808001E
:102EB8000A168A1147260A168A111130F3000030C3
:102EC800F4000A168A115C260A168A110030F300EB
:102ED800F4000A168A11A2270A168A117308F70045
:102EE800770883120313C9000A168A114E26831223
:102EF8000313490808000A168A1147260A168A1178
:102F08002130F3000030F4000A168A115C260A16F4
:102F18008A110030F300F4000A168A11A2270A1653
:102F28008A117308F700770883120313C9000A1679
:102F38008A114E2683120313490808000A128A15BB
:102F480044200A168A118316031391150A128A154A
:102F580044200A168A11831203131308F500F60198
:102F68007508C7007608C8000A128A1544200A1690
:102F78008A1173037404031DC52F8316031391125A
:102F8800C82F8316031391161116831203134808CA
:102F9800F4004708F300080083120313C800E32F66
:102FA8004808840000080319FA2F0130F500750855
:102FB800C8070130F3070318F40A0030F40774084F
:102FC800FF00730884000A128A1100270A168A1162
:102FD800F5004808840083130008F6007508760297
:102FE800F7007708C70047080319D42F4708F300EC
:082FF800F401F31BF4030800CF
:04400E00F4E0FFFFDC
:00000001FF
