:020000040000FA
:100000000A128A11F72FFF1B0D2883137F188317FD
:100010000008840A0319FF0A080000308A00040857
:10002000840A82070034013400340A340034643412
:100030000034E8340334103427344B3465347934D5
:1000400020344F344E342034203400344B34653463
:10005000793420344F34463446342034003432343A
:1000600033342E343534303400342E342534643473
:0C007000303400342E3425346434003465
:1003A6000A128A11F02183160313111408000A1287
:1003B6008A11F02183160313111508000A128A11F7
:1003C600F02183160313911408000A128A11F021F2
:1003D600700883120313930008008316031314197D
:1003E600F02911081F3903190800F02900300A12F4
:1003F6008A112F220A128A1101300A128A112F221B
:100406000800F300F201731C0C2A7008F100710851
:10041600F2070310F00D0310F30C7308031D062AF0
:1004260072080800F000701C1C2A831203130614BD
:100436001F2A831203130610F01C232A8614242A6B
:100446008610701D282A0615292A0611F01D2D2A48
:100456008615080086110800F3008312031306129E
:1004660073080A128A1115220A128A1183120313BB
:1004760086160B30F2006230F100F10B402AF20BC7
:10048600402A000083120313861208000A128A11FA
:10049600D3210A128A111130F0000030F1000A123D
:1004A6008A11E8210A128A110030F000F1000A12BE
:1004B6008A11DB220A128A117008F6007608F70004
:1004C6000A128A11DA2177080800F2007208F10090
:1004D6007108F30073088400831300080319802A47
:1004E6000130F1007108F3076D2A0130F10071083F
:1004F600F3070130F1007108F00770088400000866
:10050600F1007308840071088000000803190800D0
:10051600782A07300A128A116B240A128A11831666
:100526000317890188018316031386018501831247
:100536000313860185010A128A11C0240A128A1140
:10054600003083120313A3000130A2008630A100FD
:10055600A030A0000A128A1139230800F600C02A2A
:100566007608840000080319D52A0130F2007208C3
:10057600F6070130F2007208F007700884000A12CC
:100586008A110D200A128A11F2007608840083135C
:100596000008F30072087302F4007408F500750889
:1005A6000319B32A7508F000F101F01BF1030800E6
:1005B6000A128A11F0210A128A1183160313911561
:1005C6000A128A11F0210A128A11831203131308E0
:1005D600F200F3017208F4007308F5000A128A119A
:1005E600F0210A128A1170037104031DFE2A831674
:1005F60003139112012B8316031391161116750816
:10060600F1007408F0000800780879040319342B07
:10061600FD01FD0AF91B1B2B01300310F80DF90D26
:10062600FF3E031D102B0130FC007C08FD070D2B3F
:1006360079087B02031D212B78087A02031C292BDB
:100646007808FA027908031CFB03FB020130031049
:10065600F90CF80CFF3E031D2A2B0130FD02031D89
:100666001B2B7B08F9007A08F80008002830831253
:1006760003139400831603139101831203132008B6
:10068600A4002108A5002208A6002308A70002301E
:100696000310A40DA50DA60DA70DFF3E031D4B2BA4
:1006A6002708F3002608F2002508F1002408F000C8
:1006B6000030F7007A30F6001230F5000030F40012
:1006C6000A128A111B257008FF3E83160313930036
:1006D6009401871507160800F40074080F39F10015
:1006E6007108F2007408F039F1007108F300831202
:1006F600031306167308F10004300310F10CFF3ED5
:10070600031D802B71080A128A1115220A128A11FA
:100716008312031386161A30F100F10B902B00009A
:1007260083120313861272080A128A1115220A12FC
:100736008A118312031386161A30F100F10BA12BCE
:1007460000008312031386120800F501F6017008F3
:1007560071040319DF2BF701F70AF11BBE2B0130D9
:100766000310F00DF10DFF3E031DB32B0130F40015
:100776007408F707B02B01300310F50DF60DFF3E98
:10078600031DBF2B71087302031DCB2B7008720269
:10079600031CD42B7008F2027108031CF303F30246
:1007A600751401300310F10CF00CFF3E031DD52B20
:1007B6000130F702031DBE2B7608F1007508F00024
:1007C6000800FA01FB017A087507F8007608F700B9
:1007D6000318F70AFA1BF7037708F900790883125A
:1007E6000313FF00780884000A128A1103200A12F4
:1007F6008A11003A031908007A087507F800760886
:10080600F7000318F70AFA1BF7037708F9007908C7
:1008160083120313FF00780884000A128A1103204A
:100826000A128A110A128A116F230A128A110130DA
:10083600FA070318FB0A0030FB07E62BF7007703DD
:10084600031D462C74087F3EF5007508FA007A08E9
:10085600F50004300310F50CFF3E031D2D2C750822
:10086600F6007608F8007A080F39F5007508F900E1
:1008760078080A128A112F220A128A1179080A1296
:100886008A112F22080002307706031D080074081B
:10089600BF3EF5007508FA007A08F500043003102B
:1008A600F50CFF3E031D522C7508F6007608F8007D
:1008B6007A080F39F5007508F90078080A128A11C6
:1008C6002F220A128A1179080A128A112F22080089
:1008D600F2009C2C8F30831603138F05BE2C8316D3
:1008E60003130F088F391038952C831603130F083E
:1008F6008F392038952C831603130F088F3930381B
:10090600952C831603130F088F394038952C8316C0
:1009160003130F088F395038952C831603130F08CD
:100926008F3960388F00BE2C7030831603138F0406
:10093600BE2C7208F000F1017108003A0319A42CCC
:10094600972C7008003A03196D2C013A0319722C82
:10095600033A0319782C013A03197E2C073A031936
:10096600842C013A03198A2C033A0319902C013A74
:100976000319972C972C0F14080000300A128A11BD
:1009860015220A128A113430F500F130F400F40B06
:10099600CA2CF50BCA2CCF2C03300A128A112F222F
:1009A6000A128A110D30F500FB30F400F40BD92C35
:1009B600F50BD92CDE2C03300A128A112F220A12CB
:1009C6008A111D30F5009130F400F40BE82CF50B7C
:1009D600E82C03300A128A112F220A128A110230D9
:1009E6000A128A112F220A128A1102300A128A1159
:1009F6002F220A128A1108300A128A112F220A128D
:100A06008A1100300A128A112F220A128A110C301A
:100A16000A128A112F220A128A1100300A128A112A
:100A26002F220A128A1106300A128A112F22080072
:100A36000030FC000030FB000030FA000030F90006
:100A460073087204710470040319702DFD01FD0A08
:100A5600F31B3B2D0130F8000310F00DF10DF20DE4
:100A6600F30DF80B2F2D0130F8007808FD072B2D1C
:100A76000130F8000310F90DFA0DFB0DFC0DF80B13
:100A86003D2D73087702031D522D72087602031D51
:100A9600522D71087502031D522D70087402031C35
:100AA600632D7008F4027108031C710FF5027208B9
:100AB600031C720FF6027308031C730FF7027914F6
:100AC60001300310F30CF20CF10CF00CFF3E031D89
:100AD600642D0130FD02031D3B2D7C08F3007B08CD
:100AE600F2007A08F1007908F00008000A128A116B
:100AF600D3210A128A11D030F0000030F1000A1218
:100B06008A11E8210A128A110130F0000030F10042
:100B16000A128A11E8210A128A110A128A11E1219F
:100B26000A128A11D130F0000030F1000A128A113F
:100B3600E8210A128A110130F0000030F1000A1291
:100B46008A11DB220A128A117008F60076088312CF
:100B56000313A7000030F000F1000A128A11DB220D
:100B66000A128A117008F600760883120313A6008B
:100B76000A128A11DA210A128A118312031326082D
:100B8600F60004300310F60CFF3E031DC52D760853
:100B9600303EF7007708A00026080F39303EF600F1
:100BA6007608A1003A30F6007608A2002708F6007B
:100BB60004300310F60CFF3E031DDC2D7608303E94
:100BC600F7007708A30027080F39303EF6007608AD
:100BD600A400A501203008000A128A118C220A12EC
:100BE6008A110A128A11F9210A128A110A128A1125
:100BF60079250A128A1183120313BB003B08BE0033
:100C0600F401F40A01300A128A1121240A128A1107
:100C1600831203133E08F5000030F6000A128A110B
:100C2600E4230A128A110A128A1182260A128A11EA
:100C360083120313BB003B08BD00F401F40A023023
:100C46000A128A1121240A128A11831203133D08FB
:100C5600F5000030F6000A128A11E4230A128A11FE
:100C6600DF300A128A116F230A128A1143300A12E0
:100C76008A116F230A128A110A128A1149220A124C
:100C86008A1183120313BB003B08BC000730BB006C
:100C96003B08F40001300A128A1121240A128A1133
:100CA600831203133C03031D5A2E0B305B2E1430A4
:100CB600F5008030F6000A128A11E4230A128A111E
:100CC6001D3083120313BB003B08F0003D080A12D7
:100CD6008A11B1220A128A117108803AFF00803007
:100CE6007F02031D782E01307002031C7E2E8312B4
:100CF60003130514F92D831203130510F92D0A1297
:100D06008A11D3210A128A11D030F0000030F10086
:100D16000A128A11E8210A128A111130F0000030F5
:100D2600F1000A128A11E8210A128A110A128A119E
:100D3600E1210A128A11D130F0000030F1000A12C6
:100D46008A11E8210A128A110130F0000030F10000
:100D56000A128A11DB220A128A11700883120313FF
:100D6600AD002D08B9000030F000F1000A128A111A
:100D7600DB220A128A11700883120313AD002D08B4
:100D8600BA000A128A11DA210A128A11831203138F
:100D96003908FC3EAD002D08B9001930AD002D080C
:100DA600F0003A08AE0006300310AE0CFF3E031DFD
:100DB600D72E2E080A128A1104220A128A118312C9
:100DC6000313AF002F08BA002930AD002D08A0008C
:100DD6003908AE00AF012E08A1002F08A20030305E
:100DE6000A128A111F270A128A11831203133A085C
:100DF600031DFF2E2330002F2830AD002D08A00044
:100E06003A08AE00AF012E08A1002F08A200363026
:100E16000A128A111F270A128A1136308312031307
:100E2600AD002D08F00030300A128A1168228312B4
:100E36000313B5013030080083120313AB002130D1
:100E4600A3002308A6000130A007FF302007840076
:100E56000A128A110D200A128A11A3002308AC0077
:100E66002C080319F22F25302C060319462F2C08BF
:100E7600A3002B0884002308831380000130A300FD
:100E86002308AB07262FA7010130A007FF30200754
:100E960084000A128A110D200A128A11AC00A300DE
:100EA600A4012408003A0319592F262F2308003AD3
:100EB6000319F22F643A0319642F0D3A0319642FAC
:100EC600262F2608840083130008A900840A000838
:100ED600AA000230A3002308A607AA1F7B2F03300F
:100EE600A3002308A704A909AA09A90A0319AA0A9B
:100EF600AC01AC0A2C08A3002307013E84000A12A9
:100F06008A110D200A128A11A4000A128A110D20D4
:100F16000A128A11A50025082A02031D942F240807
:100F26002902031C9E2F0130A3002308AC070530BD
:100F36002C06031D7D2F270803390319AD2F2D30ED
:100F4600A3002B0884002308831380000130A3002C
:100F56002308AB072C08A3002308A800FF30A30032
:100F66002308A807280A0319262F0A30F80000309C
:100F7600F9002808A3002307013E84000A128A11FB
:100F86000D200A128A11F0000A128A110D200A1287
:100F96008A11F1002A08F3002908F2000A128A11C0
:100FA600A8230A128A117108FB007008FA000A12B7
:100FB6008A1107230A128A117808303E8312031316
:100FC600A4002408AC002C08A3002B0884002308E6
:100FD600831380000130A3002308AB07B12F2B0831
:100FE600840083138001080083120313BC01BD0132
:0A0FF600BE0183010A128A11EF2DDB
:04400E00F4E0FFFFDC
:00000001FF
