:020000040000FA
:100000000A128A11F32FFF1B0D2883137F18831701
:100010000008840A0319FF0A080000308A00040857
:10002000840A82070034013400340A340034643412
:100030000034E83403341034273444346F346F34DC
:10004000723420344F34503445344E34203420340C
:10005000003444346F346F347234203443344C34BD
:100060004F34533445344434003454347234693496
:10007000703420344F344E342034003454347234CD
:100080006934703420344F344634463400345034AC
:100090004934523420344F344E34203400345034F8
:1000A0004934523420344F344634463400343234E8
:1000B00033342E343534303400342E342534643423
:0C00C000303400342E3425346434003415
:1000D00000300A128A15FE260A128A1101300A120D
:1000E0008A15FE2608000A128A15C0260A128A11ED
:1000F0008316031391150A128A15C0260A128A1153
:10010000831203131308F200F3017208F40073085A
:10011000F5000A128A15C0260A128A1170037104AA
:10012000031D96288316031391129928831603132F
:10013000911611167508F1007408F000080078088F
:1001400079040319CC28FD01FD0AF91BB3280130FD
:100150000310F80DF90DFF3E031DA8280130FC0027
:100160007C08FD07A52879087B02031DB9287808BB
:100170007A02031CC1287808FA027908031CFB03E1
:10018000FB0201300310F90CF80CFF3E031DC228DE
:100190000130FD02031DB3287B08F9007A08F8003E
:1001A000080028308312031394008316031391016F
:1001B000831203132008A4002108A5002208A6002A
:1001C0002308A70002300310A40DA50DA60DA70D4E
:1001D000FF3E031DE3282708F3002608F200250848
:1001E000F1002408F0000030F7007A30F6001230F9
:1001F000F5000030F4000A128A11EE227008FF3E6A
:100200008316031393009401871507160800F40062
:1002100074080F39F1007108F2007408F039F10028
:100220007108F3008312031306167308F1000430FB
:100230000310F10CFF3E031D182971080A128A15DC
:10024000E4260A128A118312031386161A30F1006B
:10025000F10B2829000083120313861272080A1278
:100260008A15E4260A128A118312031386161A309D
:10027000F100F10B392900008312031386120800E4
:1002800007300A128A113E220A128A1183160317B6
:1002900089018801831603138601850183120313E4
:1002A000860185010130831603138700831203132F
:1002B00087010A128A1193220A128A1100308312CE
:1002C0000313A9000030A8002530A7008030A60045
:1002D0000A128A11EE240A128A11003083120313C3
:1002E000A3000130A2008630A100A030A0000A12B5
:1002F0008A11D1200800F501F60170087104031974
:10030000B229F701F70AF11B912901300310F00D12
:10031000F10DFF3E031D86290130F4007408F70734
:10032000832901300310F50DF60DFF3E031D9229C0
:1003300071087302031D9E2970087202031CA7290D
:100340007008F2027108031CF303F3027514013004
:100350000310F10CF00CFF3E031DA8290130F70239
:10036000031D91297608F1007508F0000800FA01D4
:10037000FB017A087507F8007608F7000318F70AFA
:10038000FA1BF7037708F900790883120313FF00BB
:10039000780884000A128A1103200A128A11003A8E
:1003A000031908007A087507F8007608F7000318A3
:1003B000F70AFA1BF7037708F90079088312031389
:1003C000FF00780884000A128A1103200A128A1199
:1003D0000A128A1107210A128A110130FA0703183A
:1003E000FB0A0030FB07B929F7007703031D192A20
:1003F00074087F3EF5007508FA007A08F5000430AD
:100400000310F50CFF3E031D002A7508F600760860
:10041000F8007A080F39F5007508F90078080A1213
:100420008A15FE260A128A1179080A128A15FE26F2
:10043000080002307706031D08007408BF3EF5006F
:100440007508FA007A08F50004300310F50CFF3E39
:10045000031D252A7508F6007608F8007A080F397A
:10046000F5007508F90078080A128A15FE260A12A6
:100470008A1179080A128A15FE260800F2006F2AEE
:100480008F30831603138F05912A831603130F08E9
:100490008F391038682A831603130F088F392038D4
:1004A000682A831603130F088F393038682A831699
:1004B00003130F088F394038682A831603130F0877
:1004C0008F395038682A831603130F088F39603824
:1004D0008F00912A7030831603138F04912A7208BB
:1004E000F000F1017108003A0319772A6A2A7008AE
:1004F000003A0319402A013A0319452A033A03191D
:100500004B2A013A0319512A073A0319572A013A8B
:1005100003195D2A033A0319632A013A03196A2A67
:100520006A2A0F14080000300A128A15E4260A12FB
:100530008A113430F500F130F400F40B9D2AF50BEC
:100540009D2AA22A03300A128A15FE260A128A114F
:100550000D30F500FB30F400F40BAC2AF50BAC2A9F
:10056000B12A03300A128A15FE260A128A111D309A
:10057000F5009130F400F40BBB2AF50BBB2A0330D5
:100580000A128A15FE260A128A1102300A128A15E8
:10059000FE260A128A1102300A128A15FE260A1253
:1005A0008A1108300A128A15FE260A128A110030B2
:1005B0000A128A15FE260A128A110C300A128A15AE
:1005C000FE260A128A1100300A128A15FE260A1225
:1005D0008A1106300A128A15FE2608000030FC0037
:1005E0000030FB000030FA000030F900730872049C
:1005F000710470040319432BFD01FD0AF31B0E2B3C
:100600000130F8000310F00DF10DF20DF30DF80BB1
:10061000022B0130F8007808FD07FE2A0130F800AF
:100620000310F90DFA0DFB0DFC0DF80B102B7308E0
:100630007702031D252B72087602031D252B7108F6
:100640007502031D252B70087402031C362B7008DD
:10065000F4027108031C710FF5027208031C720F7B
:10066000F6027308031C730FF702791401300310AC
:10067000F30CF20CF10CF00CFF3E031D372B013094
:10068000FD02031D0E2B7C08F3007B08F2007A08A4
:10069000F1007908F00008000A128A15A3260A1250
:1006A0008A11D030F0000030F1000A128A15B82605
:1006B0000A128A110130F0000030F1000A128A1586
:1006C000B8260A128A110A128A15B1260A128A114C
:1006D000D130F0000030F1000A128A15B8260A1253
:1006E0008A110130F0000030F1000A128A117320E3
:1006F0000A128A117008F600760883120313A70005
:100700000030F000F1000A128A1173200A128A11D7
:100710007008F600760883120313A6000A128A15E1
:10072000AA260A128A11831203132608F60004303F
:100730000310F60CFF3E031D982B7608303EF700A1
:100740007708A00026080F39303EF6007608A10091
:100750003A30F6007608A2002708F60004300310AD
:10076000F60CFF3E031DAF2B7608303EF7007708EE
:10077000A30027080F39303EF6007608A400A50133
:100780002030080083120313A101F31FD42BF009BA
:10079000F109F209F309F00A0319F10A0319F20A3F
:1007A0000319F30AA101A10AF71FE52BF409F509C2
:1007B000F609F709F40A0319F50A0319F60A0319E9
:1007C000F70A0130F8007808A1060030A5000030D3
:1007D000A4000030A3000030A2007308720471046A
:1007E000700403193A2CA001A00AF31B052C013058
:1007F000F8000310F00DF10DF20DF30DF80BF92BCD
:100800000130F8007808A007F52B0130F80003103C
:10081000A20DA30DA40DA50DF80B072C73087702EC
:10082000031D1C2C72087602031D1C2C7108750216
:10083000031D1C2C70087402031C2D2C7008F4027C
:100840007108031C710FF5027208031C720FF60287
:100850007308031C730FF702221401300310F30C0A
:10086000F20CF10CF00CFF3E031D2E2C0130A00207
:10087000031D052C21080319482CA209A309A4096A
:10088000A509A20A0319A30A0319A40A0319A50AB0
:100890002508F3002408F2002308F1002208F000E4
:1008A00008000A128A15A3260A128A11D030F00015
:1008B0000030F1000A128A15B8260A128A11113086
:1008C000F0000030F1000A128A15B8260A128A11C7
:1008D0000A128A15B1260A128A11D130F0000030AE
:1008E000F1000A128A15B8260A128A110130F000A6
:1008F0000030F1000A128A1173200A128A1170085E
:1009000083120313AD002D08B9000030F000F10090
:100910000A128A1173200A128A11700883120313B3
:10092000AD002D08BA000A128A15AA260A128A11E9
:10093000831203133908FC3EAD002D08B9001930AD
:10094000AD002D08F0003A08AE0006300310AE0CE2
:10095000FF3E031DA62C2E080A128A15D3260A1262
:100960008A1183120313AF002F08BA005130AD0073
:100970002D08A0003908AE00AF012E08A1002F08F5
:10098000A20030300A128A11C4250A128A11831279
:1009900003133A08031DCE2C4B30CF2C5030AD0042
:1009A0002D08A0003A08AE00AF012E08A1002F08C4
:1009B000A20036300A128A11C4250A128A11363072
:1009C00083120313AD002D08F00030300A128A158F
:1009D000B22783120313B5013030080083120313CA
:1009E0002608AA002708AB002808AC002908AD009B
:1009F00006300310AA0DAB0DAC0DAD0DFF3E031D6F
:100A0000F92C2D08F3002C08F2002B08F1002A081D
:100A1000F0002608AE002708AF002808B00029081B
:100A2000B10006300310AE0DAF0DB00DB10DFF3E9D
:100A3000031D122D0030B2001230B3007A30B40022
:100A40000030B5002E08B2022F08031C2F0F292DED
:100A50002A2DB3023008031C300F2F2D302DB40285
:100A60003108031C310F352D362DB5023508F7003E
:100A70003408F6003308F5003208F4000A128A112F
:100A8000C2230A128A117108FA007008F9000130B5
:100A90007A02003003197902031CAA2D8312031372
:100AA0002608AA002708AB002808AC002908AD00DA
:100AB00004300310AA0DAB0DAC0DAD0DFF3E031DB0
:100AC000592D2D08F3002C08F2002B08F1002A08FC
:100AD000F0002608AE002708AF002808B00029085B
:100AE000B10004300310AE0DAF0DB00DB10DFF3EDF
:100AF000031D722D0030B2001230B3007A30B40002
:100B00000030B5002E08B2022F08031C2F0F892DCC
:100B10008A2DB3023008031C300F8F2D902DB402A4
:100B20003108031C310F952D962DB5023508F700BD
:100B30003408F6003308F5003208F4000A128A116E
:100B4000C2230A128A117108FA007008F90083168C
:100B50000313181501307A020030031979020318C3
:100B600008007908831603139900181283120313DF
:100B70009817831603138717071783120313181682
:100B8000831603139816080083120313AB00213059
:100B9000A3002308A6000130A007FF30200784002F
:100BA0000A128A110D200A128A11A3002308AC0030
:100BB0002C080319972E25302C060319EB2D2C0831
:100BC000A3002B0884002308831380000130A300B6
:100BD0002308AB07CB2DA7010130A007FF3020076A
:100BE00084000A128A110D200A128A11AC00A30097
:100BF000A4012408003A0319FE2DCB2D2308003A46
:100C00000319972E643A0319092E0D3A0319092E78
:100C1000CB2D2608840083130008A900840A00084D
:100C2000AA000230A3002308A607AA1F202E033023
:100C3000A3002308A704A909AA09A90A0319AA0A53
:100C4000AC01AC0A2C08A3002307013E84000A1261
:100C50008A110D200A128A11A4000A128A110D208D
:100C60000A128A11A50025082A02031D392E24081C
:100C70002902031C432E0130A3002308AC070530D2
:100C80002C06031D222E270803390319522E2D305E
:100C9000A3002B0884002308831380000130A300E5
:100CA0002308AB072C08A3002308A800FF30A300EB
:100CB0002308A807280A0319CB2D0A30F8000030B2
:100CC000F9002808A3002307013E84000A128A11B4
:100CD0000D200A128A11F0000A128A110D200A1240
:100CE0008A11F1002A08F3002908F2000A128A1179
:100CF0007B210A128A117108FB007008FA000A129F
:100D00008A119F200A128A117808303E8312031339
:100D1000A4002408AC002C08A3002B08840023089E
:100D2000831380000130A3002308AB07562E2B0845
:100D300084008313800108000A128A1140210A12DC
:100D40008A1183120313BC010A128A1168200A1245
:100D50008A110A128A1151240A128A11831203136A
:100D6000BB003B08C1000A128A1574270A128A11B7
:100D700083120313BB003B08C0000A128A15932795
:100D80000A128A1183120313BB003B08BF000A1228
:100D90008A1555270A128A1183120313BB003B08D8
:100DA000BE000A128A1536270A128A11831203130B
:100DB000BB003B08BD000A128A114C230A128A119B
:100DC00083120313BB003B08C20041080A128A15B4
:100DD00018270A128A118312031342080A128A156D
:100DE00018270A128A118312031340080A128A155F
:100DF000C9260A128A11831203133F080A128A15A0
:100E0000C9260A128A11831203133E080A128A1590
:100E1000C9260A128A11831203133D080A128A1581
:100E2000C9260A128A11453083120313BB003B08FE
:100E3000F00041080A128A15D6270A128A11710891
:100E4000803AFF0080307F02031D282F013070029E
:100E5000031C2E2F831203130514312F8312031347
:100E60000510071C442F0130BB003B08BC070330B2
:100E70003C020318BC010A128A1168200A128A1166
:100E8000831203130718402F3C08031D7A2FF40127
:100E9000F40A01300A128A11F4210A128A1183120B
:100EA00003134208F5000030F6000A128A11B72138
:100EB0000A128A11F401F40A02300A128A11F4218A
:100EC0000A128A11831203134108F5000030F6005C
:100ED0000A128A11B7210A128A11DF300A128A1106
:100EE00007210A128A1143300A128A1107210A12B5
:100EF0008A11A92E3C03031DB62FF401F40A013018
:100F00000A128A11F4210A128A1183120313400370
:100F1000031D8C2F0B308D2F1730F5008030F6001D
:100F20000A128A11B7210A128A11F401F40A023056
:100F30000A128A11F4210A128A11831203133F0341
:100F4000031DAC2F2330F5008030F6000A128A1101
:100F5000B7210A128A11A92E2C30F5008030F60034
:100F60000A128A11B7210A128A11A92E02303C06F0
:100F7000031DA92EF401F40A01300A128A11F4218A
:100F80000A128A11831203133E03031DC92F353041
:100F9000CA2F3D30F5008030F6000A128A11B721C1
:100FA0000A128A11F401F40A02300A128A11F42199
:100FB0000A128A11831203133D03031DE92F3630F1
:100FC000F5008030F6000A128A11B7210A128A1140
:100FD000A92E3E30F5008030F6000A128A11B721A2
:100FE0000A128A11A92E83120313BC01BD01BE018E
:100FF000BF01C001C101C20183010A128A119C2EE6
:101D46000A128A15C02683160313111408000A12F4
:101D56008A15C02683160313111508000A128A1560
:101D6600C02683160313911408000A128A15C0268A
:101D760070088312031393000800831603131419C3
:101D8600C02E11081F3903190800C02EF000831653
:101D96000313981CCA2E70088312031399000800B7
:101DA600F300F201731CDB2E7008F1007108F207D4
:101DB6000310F00D0310F30C7308031DD52E7208E3
:101DC6000800F000701CEB2E831203130614EE2E8F
:101DD600831203130610F01CF22E8614F32E8610BF
:101DE600701DF72E0615F82E0611F01DFC2E861511
:101DF600080086110800F300831203130612730805
:101E06000A128A15E4260A128A1583120313861605
:101E16000B30F2006230F100F10B0F2FF20B0F2F97
:101E260000008312031386120800F400F201F30186
:101E360072087407F10071088400831300080319FF
:101E4600080072087407F1007108840000080A127D
:101E56008A15C9260A128A150130F2070318F30AF1
:101E66000030F3071B2F0A128A15A3260A128A15B9
:101E76003130F0000030F1000A128A15B8260A1235
:101E86008A150030F000F1000A128A1173200A1236
:101E96008A157008F6007608F7000A128A15AA262F
:101EA600770808000A128A15A3260A128A154130F5
:101EB600F0000030F1000A128A15B8260A128A15B7
:101EC6000030F000F1000A128A1173200A128A15F6
:101ED6007008F6007608F7000A128A15AA2677080F
:101EE60008000A128A15A3260A128A151130F00074
:101EF6000030F1000A128A15B8260A128A15003037
:101F0600F000F1000A128A1173200A128A1570086D
:101F1600F6007608F7000A128A15AA26770808003E
:101F26000A128A15A3260A128A152130F0000030FB
:101F3600F1000A128A15B8260A128A150030F00036
:101F4600F1000A128A1173200A128A157008F60027
:101F56007608F7000A128A15AA2677080800F20002
:101F66007208F1007108F3007308840083130008F7
:101F76000319CA2F0130F1007108F307B72F01309A
:101F8600F1007108F3070130F1007108F0077008DD
:101F960084000008F10073088400710880000008BE
:101FA60003190800C22FF600E52F76088400000802
:101FB6000319FA2F0130F2007208F6070130F20019
:101FC6007208F007700884000A128A110D200A129E
:101FD6008A15F2007608840083130008F30072085D
:101FE6007302F4007408F50075080319D82F7508F4
:0A1FF600F000F101F01BF1030800F8
:04400E00F4E0FFFFDC
:00000001FF
